{
  "_format": "hh-sol-artifact-1",
  "contractName": "SafeSetup",
  "sourceName": "contracts/SafeSetup.sol",
  "abi": [
    {
      "inputs": [
        {
          "internalType": "address",
          "name": "_addOwnerModule",
          "type": "address"
        },
        {
          "internalType": "address",
          "name": "_removeOwnerModule",
          "type": "address"
        }
      ],
      "stateMutability": "nonpayable",
      "type": "constructor"
    },
    {
      "inputs": [],
      "name": "setup",
      "outputs": [],
      "stateMutability": "nonpayable",
      "type": "function"
    }
  ],
  "bytecode": "0x60c060405234801561001057600080fd5b5060405161035138038061035183398181016040528101906100329190610104565b8173ffffffffffffffffffffffffffffffffffffffff1660808173ffffffffffffffffffffffffffffffffffffffff16815250508073ffffffffffffffffffffffffffffffffffffffff1660a08173ffffffffffffffffffffffffffffffffffffffff16815250505050610144565b600080fd5b600073ffffffffffffffffffffffffffffffffffffffff82169050919050565b60006100d1826100a6565b9050919050565b6100e1816100c6565b81146100ec57600080fd5b50565b6000815190506100fe816100d8565b92915050565b6000806040838503121561011b5761011a6100a1565b5b6000610129858286016100ef565b925050602061013a858286016100ef565b9150509250929050565b60805160a0516101ea610167600039600060e801526000605d01526101ea6000f3fe608060405234801561001057600080fd5b506004361061002b5760003560e01c8063ba0bba4014610030575b600080fd5b61003861003a565b005b60003090508073ffffffffffffffffffffffffffffffffffffffff1663610b59257f00000000000000000000000000000000000000000000000000000000000000006040518263ffffffff1660e01b81526004016100989190610199565b600060405180830381600087803b1580156100b257600080fd5b505af11580156100c6573d6000803e3d6000fd5b505050508073ffffffffffffffffffffffffffffffffffffffff1663610b59257f00000000000000000000000000000000000000000000000000000000000000006040518263ffffffff1660e01b81526004016101239190610199565b600060405180830381600087803b15801561013d57600080fd5b505af1158015610151573d6000803e3d6000fd5b5050505050565b600073ffffffffffffffffffffffffffffffffffffffff82169050919050565b600061018382610158565b9050919050565b61019381610178565b82525050565b60006020820190506101ae600083018461018a565b9291505056fea26469706673582212200724c2197e032bf64a7d9d173f384fc1c8008ccaabf707069ee3fdd8c2b0941864736f6c63430008130033",
  "linkReferences": {},
  "deployedLinkReferences": {}
}