{
  "_format": "hh-sol-artifact-1",
  "contractName": "WalletDeployer",
  "sourceName": "contracts/WalletDeployer.sol",
  "abi": [
    {
      "inputs": [
        {
          "internalType": "address",
          "name": "gnosisSafeContract",
          "type": "address"
        },
        {
          "internalType": "address",
          "name": "gnosisSafeProxyFactory",
          "type": "address"
        },
        {
          "internalType": "address",
          "name": "defaultFallbackHandler",
          "type": "address"
        },
        {
          "internalType": "address",
          "name": "setupHandler",
          "type": "address"
        }
      ],
      "stateMutability": "nonpayable",
      "type": "constructor"
    },
    {
      "inputs": [],
      "name": "CHAIN_ID",
      "outputs": [
        {
          "internalType": "string",
          "name": "",
          "type": "string"
        }
      ],
      "stateMutability": "view",
      "type": "function"
    },
    {
      "inputs": [],
      "name": "STATEMENT",
      "outputs": [
        {
          "internalType": "string",
          "name": "",
          "type": "string"
        }
      ],
      "stateMutability": "view",
      "type": "function"
    },
    {
      "inputs": [
        {
          "components": [
            {
              "internalType": "address",
              "name": "owner",
              "type": "address"
            },
            {
              "internalType": "address",
              "name": "device",
              "type": "address"
            },
            {
              "internalType": "uint256",
              "name": "issuedAt",
              "type": "uint256"
            }
          ],
          "internalType": "struct TokenAuthenticated.TokenRequest",
          "name": "request",
          "type": "tuple"
        },
        {
          "internalType": "bytes",
          "name": "signature",
          "type": "bytes"
        },
        {
          "internalType": "address",
          "name": "englishOwnerAdder",
          "type": "address"
        }
      ],
      "name": "createSafe",
      "outputs": [],
      "stateMutability": "nonpayable",
      "type": "function"
    },
    {
      "inputs": [
        {
          "internalType": "address",
          "name": "owner",
          "type": "address"
        },
        {
          "internalType": "address",
          "name": "device",
          "type": "address"
        }
      ],
      "name": "createTokenRequest",
      "outputs": [
        {
          "components": [
            {
              "internalType": "address",
              "name": "owner",
              "type": "address"
            },
            {
              "internalType": "address",
              "name": "device",
              "type": "address"
            },
            {
              "internalType": "uint256",
              "name": "issuedAt",
              "type": "uint256"
            }
          ],
          "internalType": "struct TokenAuthenticated.TokenRequest",
          "name": "request",
          "type": "tuple"
        },
        {
          "internalType": "string",
          "name": "",
          "type": "string"
        }
      ],
      "stateMutability": "view",
      "type": "function"
    },
    {
      "inputs": [],
      "name": "lengthOfToken",
      "outputs": [
        {
          "internalType": "uint256",
          "name": "",
          "type": "uint256"
        }
      ],
      "stateMutability": "view",
      "type": "function"
    },
    {
      "inputs": [
        {
          "internalType": "address",
          "name": "",
          "type": "address"
        }
      ],
      "name": "ownerToSafe",
      "outputs": [
        {
          "internalType": "address",
          "name": "",
          "type": "address"
        }
      ],
      "stateMutability": "view",
      "type": "function"
    },
    {
      "inputs": [
        {
          "internalType": "address",
          "name": "",
          "type": "address"
        }
      ],
      "name": "safeToOwner",
      "outputs": [
        {
          "internalType": "address",
          "name": "",
          "type": "address"
        }
      ],
      "stateMutability": "view",
      "type": "function"
    }
  ],
  "bytecode": "0x610100604052600f6001553480156200001757600080fd5b5060405162002bb938038062002bb983398181016040528101906200003d91906200041b565b6040518060600160405280603a815260200162002b7f603a9139806000908162000068919062000707565b50506200007b466200016660201b60201c565b600290816200008b919062000707565b508373ffffffffffffffffffffffffffffffffffffffff1660808173ffffffffffffffffffffffffffffffffffffffff16815250508273ffffffffffffffffffffffffffffffffffffffff1660a08173ffffffffffffffffffffffffffffffffffffffff16815250508173ffffffffffffffffffffffffffffffffffffffff1660c08173ffffffffffffffffffffffffffffffffffffffff16815250508073ffffffffffffffffffffffffffffffffffffffff1660e08173ffffffffffffffffffffffffffffffffffffffff1681525050505050506200081d565b6060600060016200017d846200024560201b60201c565b01905060008167ffffffffffffffff8111156200019f576200019e62000498565b5b6040519080825280601f01601f191660200182016040528015620001d25781602001600182028036833780820191505090505b509050600082602001820190505b6001156200023a578080600190039150507f3031323334353637383961626364656600000000000000000000000000000000600a86061a8153600a85816200022d576200022c620007ee565b5b04945060008503620001e0575b819350505050919050565b600080600090507a184f03e93ff9f4daa797ed6e38ed64bf6a1f0100000000000000008310620002a7577a184f03e93ff9f4daa797ed6e38ed64bf6a1f01000000000000000083816200029d576200029c620007ee565b5b0492506040810190505b6d04ee2d6d415b85acef81000000008310620002e8576d04ee2d6d415b85acef81000000008381620002de57620002dd620007ee565b5b0492506020810190505b662386f26fc1000083106200031b57662386f26fc100008381620003115762000310620007ee565b5b0492506010810190505b6305f5e100831062000348576305f5e10083816200033e576200033d620007ee565b5b0492506008810190505b612710831062000371576127108381620003675762000366620007ee565b5b0492506004810190505b606483106200039857606483816200038e576200038d620007ee565b5b0492506002810190505b600a8310620003a8576001810190505b80915050919050565b600080fd5b600073ffffffffffffffffffffffffffffffffffffffff82169050919050565b6000620003e382620003b6565b9050919050565b620003f581620003d6565b81146200040157600080fd5b50565b6000815190506200041581620003ea565b92915050565b60008060008060808587031215620004385762000437620003b1565b5b6000620004488782880162000404565b94505060206200045b8782880162000404565b93505060406200046e8782880162000404565b9250506060620004818782880162000404565b91505092959194509250565b600081519050919050565b7f4e487b7100000000000000000000000000000000000000000000000000000000600052604160045260246000fd5b7f4e487b7100000000000000000000000000000000000000000000000000000000600052602260045260246000fd5b600060028204905060018216806200050f57607f821691505b602082108103620005255762000524620004c7565b5b50919050565b60008190508160005260206000209050919050565b60006020601f8301049050919050565b600082821b905092915050565b6000600883026200058f7fffffffffffffffffffffffffffffffffffffffffffffffffffffffffffffffff8262000550565b6200059b868362000550565b95508019841693508086168417925050509392505050565b6000819050919050565b6000819050919050565b6000620005e8620005e2620005dc84620005b3565b620005bd565b620005b3565b9050919050565b6000819050919050565b6200060483620005c7565b6200061c6200061382620005ef565b8484546200055d565b825550505050565b600090565b6200063362000624565b62000640818484620005f9565b505050565b5b8181101562000668576200065c60008262000629565b60018101905062000646565b5050565b601f821115620006b75762000681816200052b565b6200068c8462000540565b810160208510156200069c578190505b620006b4620006ab8562000540565b83018262000645565b50505b505050565b600082821c905092915050565b6000620006dc60001984600802620006bc565b1980831691505092915050565b6000620006f78383620006c9565b9150826002028217905092915050565b62000712826200048d565b67ffffffffffffffff8111156200072e576200072d62000498565b5b6200073a8254620004f6565b620007478282856200066c565b600060209050601f8311600181146200077f57600084156200076a578287015190505b620007768582620006e9565b865550620007e6565b601f1984166200078f866200052b565b60005b82811015620007b95784890151825560018201915060208501945060208101905062000792565b86831015620007d95784890151620007d5601f891682620006c9565b8355505b6001600288020188555050505b505050505050565b7f4e487b7100000000000000000000000000000000000000000000000000000000600052601260045260246000fd5b60805160a05160c05160e0516123286200085760003960006103990152600061043d015260006104fd0152600061053901526123286000f3fe608060405234801561001057600080fd5b506004361061007d5760003560e01c806385e1f4d01161005b57806385e1f4d0146100fe578063b6ad16a81461011c578063bebc479c1461014d578063cb2e60431461016b5761007d565b806306634e88146100825780635e619a4a146100b25780637a1238a9146100e2575b600080fd5b61009c60048036038101906100979190611337565b610189565b6040516100a99190611373565b60405180910390f35b6100cc60048036038101906100c79190611337565b6101bc565b6040516100d99190611373565b60405180910390f35b6100fc60048036038101906100f79190611417565b6101ef565b005b61010661079e565b604051610113919061151b565b60405180910390f35b6101366004803603810190610131919061153d565b61082c565b6040516101449291906115e7565b60405180910390f35b6101556108a0565b604051610162919061151b565b60405180910390f35b61017361092e565b6040516101809190611626565b60405180910390f35b60046020528060005260406000206000915054906101000a900473ffffffffffffffffffffffffffffffffffffffff1681565b60036020528060005260406000206000915054906101000a900473ffffffffffffffffffffffffffffffffffffffff1681565b600073ffffffffffffffffffffffffffffffffffffffff166003600086600001602081019061021e9190611337565b73ffffffffffffffffffffffffffffffffffffffff1673ffffffffffffffffffffffffffffffffffffffff16815260200190815260200160002060009054906101000a900473ffffffffffffffffffffffffffffffffffffffff1673ffffffffffffffffffffffffffffffffffffffff16146102cf576040517f08c379a00000000000000000000000000000000000000000000000000000000081526004016102c69061168d565b60405180910390fd5b6102da848484610934565b6102e357600080fd5b6000600167ffffffffffffffff811115610300576102ff6116ad565b5b60405190808252806020026020018201604052801561032e5781602001602082028036833780820191505090505b5090508460000160208101906103449190611337565b81600081518110610358576103576116dc565b5b602002602001019073ffffffffffffffffffffffffffffffffffffffff16908173ffffffffffffffffffffffffffffffffffffffff168152505060008160017f00000000000000000000000000000000000000000000000000000000000000006040516024016040516020818303038152906040527fba0bba40000000000000000000000000000000000000000000000000000000007bffffffffffffffffffffffffffffffffffffffffffffffffffffffff19166020820180517bffffffffffffffffffffffffffffffffffffffffffffffffffffffff83818316178352505050507f000000000000000000000000000000000000000000000000000000000000000060008060008060405160240161047a9998979695949392919061180f565b6040516020818303038152906040527fb63e800d000000000000000000000000000000000000000000000000000000007bffffffffffffffffffffffffffffffffffffffffffffffffffffffff19166020820180517bffffffffffffffffffffffffffffffffffffffffffffffffffffffff8381831617835250505050905060007f000000000000000000000000000000000000000000000000000000000000000073ffffffffffffffffffffffffffffffffffffffff16631688f0b97f000000000000000000000000000000000000000000000000000000000000000084466040518463ffffffff1660e01b8152600401610578939291906118aa565b6020604051808303816000875af1158015610597573d6000803e3d6000fd5b505050506040513d601f19601f820116820180604052508101906105bb91906118fd565b9050600073ffffffffffffffffffffffffffffffffffffffff168760200160208101906105e89190611337565b73ffffffffffffffffffffffffffffffffffffffff1614610675578373ffffffffffffffffffffffffffffffffffffffff1663724e59c3828989896040518563ffffffff1660e01b81526004016106429493929190611a1a565b600060405180830381600087803b15801561065c57600080fd5b505af1158015610670573d6000803e3d6000fd5b505050505b806003600089600001602081019061068d9190611337565b73ffffffffffffffffffffffffffffffffffffffff1673ffffffffffffffffffffffffffffffffffffffff16815260200190815260200160002060006101000a81548173ffffffffffffffffffffffffffffffffffffffff021916908373ffffffffffffffffffffffffffffffffffffffff1602179055508660000160208101906107189190611337565b600460008373ffffffffffffffffffffffffffffffffffffffff1673ffffffffffffffffffffffffffffffffffffffff16815260200190815260200160002060006101000a81548173ffffffffffffffffffffffffffffffffffffffff021916908373ffffffffffffffffffffffffffffffffffffffff16021790555050505050505050565b600280546107ab90611a89565b80601f01602080910402602001604051908101604052809291908181526020018280546107d790611a89565b80156108245780601f106107f957610100808354040283529160200191610824565b820191906000526020600020905b81548152906001019060200180831161080757829003601f168201915b505050505081565b610834611278565b606060405180606001604052808573ffffffffffffffffffffffffffffffffffffffff1681526020018473ffffffffffffffffffffffffffffffffffffffff1681526020016001436108869190611ae9565b81525091508161089583610a75565b915091509250929050565b600080546108ad90611a89565b80601f01602080910402602001604051908101604052809291908181526020018280546108d990611a89565b80156109265780601f106108fb57610100808354040283529160200191610926565b820191906000526020600020905b81548152906001019060200180831161090957829003601f168201915b505050505081565b60015481565b60008061094085610ac9565b905060006109928286868080601f016020809104026020016040519081016040528093929190818152602001838380828437600081840152601f19601f82011690508083019250505050505050610af3565b90508560000160208101906109a79190611337565b73ffffffffffffffffffffffffffffffffffffffff168173ffffffffffffffffffffffffffffffffffffffff1614610a14576040517f08c379a0000000000000000000000000000000000000000000000000000000008152600401610a0b90611b69565b60405180910390fd5b60015443610a229190611ae9565b86604001351015610a68576040517f08c379a0000000000000000000000000000000000000000000000000000000008152600401610a5f90611bd5565b60405180910390fd5b6001925050509392505050565b60606000610a868360000151610b1a565b610a938460200151610b1a565b610aa08560400151610b47565b604051602001610ab39493929190611dad565b6040516020818303038152906040529050919050565b6000610aec610ae783803603810190610ae29190611ec1565b610a75565b610c15565b9050919050565b6000806000610b028585610c50565b91509150610b0f81610ca1565b819250505092915050565b6060610b408273ffffffffffffffffffffffffffffffffffffffff16601460ff16610e07565b9050919050565b606060006001610b5684611043565b01905060008167ffffffffffffffff811115610b7557610b746116ad565b5b6040519080825280601f01601f191660200182016040528015610ba75781602001600182028036833780820191505090505b509050600082602001820190505b600115610c0a578080600190039150507f3031323334353637383961626364656600000000000000000000000000000000600a86061a8153600a8581610bfe57610bfd611eee565b5b04945060008503610bb5575b819350505050919050565b6000610c218251610b47565b82604051602001610c33929190611fa5565b604051602081830303815290604052805190602001209050919050565b6000806041835103610c915760008060006020860151925060408601519150606086015160001a9050610c8587828585611196565b94509450505050610c9a565b60006002915091505b9250929050565b60006004811115610cb557610cb4611fd4565b5b816004811115610cc857610cc7611fd4565b5b0315610e045760016004811115610ce257610ce1611fd4565b5b816004811115610cf557610cf4611fd4565b5b03610d35576040517f08c379a0000000000000000000000000000000000000000000000000000000008152600401610d2c9061204f565b60405180910390fd5b60026004811115610d4957610d48611fd4565b5b816004811115610d5c57610d5b611fd4565b5b03610d9c576040517f08c379a0000000000000000000000000000000000000000000000000000000008152600401610d93906120bb565b60405180910390fd5b60036004811115610db057610daf611fd4565b5b816004811115610dc357610dc2611fd4565b5b03610e03576040517f08c379a0000000000000000000000000000000000000000000000000000000008152600401610dfa9061214d565b60405180910390fd5b5b50565b606060006002836002610e1a919061216d565b610e2491906121af565b67ffffffffffffffff811115610e3d57610e3c6116ad565b5b6040519080825280601f01601f191660200182016040528015610e6f5781602001600182028036833780820191505090505b5090507f300000000000000000000000000000000000000000000000000000000000000081600081518110610ea757610ea66116dc565b5b60200101907effffffffffffffffffffffffffffffffffffffffffffffffffffffffffffff1916908160001a9053507f780000000000000000000000000000000000000000000000000000000000000081600181518110610f0b57610f0a6116dc565b5b60200101907effffffffffffffffffffffffffffffffffffffffffffffffffffffffffffff1916908160001a90535060006001846002610f4b919061216d565b610f5591906121af565b90505b6001811115610ff5577f3031323334353637383961626364656600000000000000000000000000000000600f861660108110610f9757610f966116dc565b5b1a60f81b828281518110610fae57610fad6116dc565b5b60200101907effffffffffffffffffffffffffffffffffffffffffffffffffffffffffffff1916908160001a905350600485901c945080610fee906121e3565b9050610f58565b5060008414611039576040517f08c379a000000000000000000000000000000000000000000000000000000000815260040161103090612258565b60405180910390fd5b8091505092915050565b600080600090507a184f03e93ff9f4daa797ed6e38ed64bf6a1f01000000000000000083106110a1577a184f03e93ff9f4daa797ed6e38ed64bf6a1f010000000000000000838161109757611096611eee565b5b0492506040810190505b6d04ee2d6d415b85acef810000000083106110de576d04ee2d6d415b85acef810000000083816110d4576110d3611eee565b5b0492506020810190505b662386f26fc10000831061110d57662386f26fc10000838161110357611102611eee565b5b0492506010810190505b6305f5e1008310611136576305f5e100838161112c5761112b611eee565b5b0492506008810190505b612710831061115b57612710838161115157611150611eee565b5b0492506004810190505b6064831061117e576064838161117457611173611eee565b5b0492506002810190505b600a831061118d576001810190505b80915050919050565b6000807f7fffffffffffffffffffffffffffffff5d576e7357a4501ddfe92f46681b20a08360001c11156111d157600060039150915061126f565b6000600187878787604051600081526020016040526040516111f694939291906122ad565b6020604051602081039080840390855afa158015611218573d6000803e3d6000fd5b505050602060405103519050600073ffffffffffffffffffffffffffffffffffffffff168173ffffffffffffffffffffffffffffffffffffffff16036112665760006001925092505061126f565b80600092509250505b94509492505050565b6040518060600160405280600073ffffffffffffffffffffffffffffffffffffffff168152602001600073ffffffffffffffffffffffffffffffffffffffff168152602001600081525090565b6000604051905090565b600080fd5b600080fd5b600073ffffffffffffffffffffffffffffffffffffffff82169050919050565b6000611304826112d9565b9050919050565b611314816112f9565b811461131f57600080fd5b50565b6000813590506113318161130b565b92915050565b60006020828403121561134d5761134c6112cf565b5b600061135b84828501611322565b91505092915050565b61136d816112f9565b82525050565b60006020820190506113886000830184611364565b92915050565b600080fd5b6000606082840312156113a9576113a861138e565b5b81905092915050565b600080fd5b600080fd5b600080fd5b60008083601f8401126113d7576113d66113b2565b5b8235905067ffffffffffffffff8111156113f4576113f36113b7565b5b6020830191508360018202830111156114105761140f6113bc565b5b9250929050565b60008060008060a08587031215611431576114306112cf565b5b600061143f87828801611393565b945050606085013567ffffffffffffffff8111156114605761145f6112d4565b5b61146c878288016113c1565b9350935050608061147f87828801611322565b91505092959194509250565b600081519050919050565b600082825260208201905092915050565b60005b838110156114c55780820151818401526020810190506114aa565b60008484015250505050565b6000601f19601f8301169050919050565b60006114ed8261148b565b6114f78185611496565b93506115078185602086016114a7565b611510816114d1565b840191505092915050565b6000602082019050818103600083015261153581846114e2565b905092915050565b60008060408385031215611554576115536112cf565b5b600061156285828601611322565b925050602061157385828601611322565b9150509250929050565b611586816112f9565b82525050565b6000819050919050565b61159f8161158c565b82525050565b6060820160008201516115bb600085018261157d565b5060208201516115ce602085018261157d565b5060408201516115e16040850182611596565b50505050565b60006080820190506115fc60008301856115a5565b818103606083015261160e81846114e2565b90509392505050565b6116208161158c565b82525050565b600060208201905061163b6000830184611617565b92915050565b7f5361666520616c72656164792065786973747320666f72206f776e6572000000600082015250565b6000611677601d83611496565b915061168282611641565b602082019050919050565b600060208201905081810360008301526116a68161166a565b9050919050565b7f4e487b7100000000000000000000000000000000000000000000000000000000600052604160045260246000fd5b7f4e487b7100000000000000000000000000000000000000000000000000000000600052603260045260246000fd5b600081519050919050565b600082825260208201905092915050565b6000819050602082019050919050565b6000611743838361157d565b60208301905092915050565b6000602082019050919050565b60006117678261170b565b6117718185611716565b935061177c83611727565b8060005b838110156117ad5781516117948882611737565b975061179f8361174f565b925050600181019050611780565b5085935050505092915050565b600081519050919050565b600082825260208201905092915050565b60006117e1826117ba565b6117eb81856117c5565b93506117fb8185602086016114a7565b611804816114d1565b840191505092915050565b600061012082019050818103600083015261182a818c61175c565b9050611839602083018b611617565b611846604083018a611364565b818103606083015261185881896117d6565b90506118676080830188611364565b61187460a0830187611364565b61188160c0830186611364565b61188e60e0830185611617565b61189c610100830184611364565b9a9950505050505050505050565b60006060820190506118bf6000830186611364565b81810360208301526118d181856117d6565b90506118e06040830184611617565b949350505050565b6000815190506118f78161130b565b92915050565b600060208284031215611913576119126112cf565b5b6000611921848285016118e8565b91505092915050565b60006119396020840184611322565b905092915050565b61194a8161158c565b811461195557600080fd5b50565b60008135905061196781611941565b92915050565b600061197c6020840184611958565b905092915050565b60608201611995600083018361192a565b6119a2600085018261157d565b506119b0602083018361192a565b6119bd602085018261157d565b506119cb604083018361196d565b6119d86040850182611596565b50505050565b82818337600083830152505050565b60006119f983856117c5565b9350611a068385846119de565b611a0f836114d1565b840190509392505050565b600060a082019050611a2f6000830187611364565b611a3c6020830186611984565b8181036080830152611a4f8184866119ed565b905095945050505050565b7f4e487b7100000000000000000000000000000000000000000000000000000000600052602260045260246000fd5b60006002820490506001821680611aa157607f821691505b602082108103611ab457611ab3611a5a565b5b50919050565b7f4e487b7100000000000000000000000000000000000000000000000000000000600052601160045260246000fd5b6000611af48261158c565b9150611aff8361158c565b9250828203905081811115611b1757611b16611aba565b5b92915050565b7f696e76616c6964207369676e6174757265000000000000000000000000000000600082015250565b6000611b53601183611496565b9150611b5e82611b1d565b602082019050919050565b60006020820190508181036000830152611b8281611b46565b9050919050565b7f5265717565737420697320746f6f206f6c640000000000000000000000000000600082015250565b6000611bbf601283611496565b9150611bca82611b89565b602082019050919050565b60006020820190508181036000830152611bee81611bb2565b9050919050565b600081905092915050565b60008190508160005260206000209050919050565b60008154611c2281611a89565b611c2c8186611bf5565b94506001821660008114611c475760018114611c5c57611c8f565b60ff1983168652811515820286019350611c8f565b611c6585611c00565b60005b83811015611c8757815481890152600182019150602081019050611c68565b838801955050505b50505092915050565b7f0a0a4d653a200000000000000000000000000000000000000000000000000000600082015250565b6000611cce600683611bf5565b9150611cd982611c98565b600682019050919050565b6000611cef8261148b565b611cf98185611bf5565b9350611d098185602086016114a7565b80840191505092915050565b7f0a4465766963653a200000000000000000000000000000000000000000000000600082015250565b6000611d4b600983611bf5565b9150611d5682611d15565b600982019050919050565b7f0a4973737565642061743a200000000000000000000000000000000000000000600082015250565b6000611d97600c83611bf5565b9150611da282611d61565b600c82019050919050565b6000611db98287611c15565b9150611dc482611cc1565b9150611dd08286611ce4565b9150611ddb82611d3e565b9150611de78285611ce4565b9150611df282611d8a565b9150611dfe8284611ce4565b915081905095945050505050565b600080fd5b611e1a826114d1565b810181811067ffffffffffffffff82111715611e3957611e386116ad565b5b80604052505050565b6000611e4c6112c5565b9050611e588282611e11565b919050565b600060608284031215611e7357611e72611e0c565b5b611e7d6060611e42565b90506000611e8d84828501611322565b6000830152506020611ea184828501611322565b6020830152506040611eb584828501611958565b60408301525092915050565b600060608284031215611ed757611ed66112cf565b5b6000611ee584828501611e5d565b91505092915050565b7f4e487b7100000000000000000000000000000000000000000000000000000000600052601260045260246000fd5b7f19457468657265756d205369676e6564204d6573736167653a0a000000000000600082015250565b6000611f53601a83611bf5565b9150611f5e82611f1d565b601a82019050919050565b600081905092915050565b6000611f7f826117ba565b611f898185611f69565b9350611f998185602086016114a7565b80840191505092915050565b6000611fb082611f46565b9150611fbc8285611ce4565b9150611fc88284611f74565b91508190509392505050565b7f4e487b7100000000000000000000000000000000000000000000000000000000600052602160045260246000fd5b7f45434453413a20696e76616c6964207369676e61747572650000000000000000600082015250565b6000612039601883611496565b915061204482612003565b602082019050919050565b600060208201905081810360008301526120688161202c565b9050919050565b7f45434453413a20696e76616c6964207369676e6174757265206c656e67746800600082015250565b60006120a5601f83611496565b91506120b08261206f565b602082019050919050565b600060208201905081810360008301526120d481612098565b9050919050565b7f45434453413a20696e76616c6964207369676e6174757265202773272076616c60008201527f7565000000000000000000000000000000000000000000000000000000000000602082015250565b6000612137602283611496565b9150612142826120db565b604082019050919050565b600060208201905081810360008301526121668161212a565b9050919050565b60006121788261158c565b91506121838361158c565b92508282026121918161158c565b915082820484148315176121a8576121a7611aba565b5b5092915050565b60006121ba8261158c565b91506121c58361158c565b92508282019050808211156121dd576121dc611aba565b5b92915050565b60006121ee8261158c565b91506000820361220157612200611aba565b5b600182039050919050565b7f537472696e67733a20686578206c656e67746820696e73756666696369656e74600082015250565b6000612242602083611496565b915061224d8261220c565b602082019050919050565b6000602082019050818103600083015261227181612235565b9050919050565b6000819050919050565b61228b81612278565b82525050565b600060ff82169050919050565b6122a781612291565b82525050565b60006080820190506122c26000830187612282565b6122cf602083018661229e565b6122dc6040830185612282565b6122e96060830184612282565b9594505050505056fea264697066735822122014ff7fc7bb4927c15b323f54f21d470143961ea2b73514b392d7e3bc911142b264736f6c634300081300334920617574686f72697a6520746869732064657669636520746f2073656e64207472616e73616374696f6e73206f6e206d7920626568616c662e",
  "linkReferences": {},
  "deployedLinkReferences": {}
}