{
  "_format": "hh-sol-artifact-1",
  "contractName": "WalletDeployer",
  "sourceName": "contracts/WalletDeployer.sol",
  "abi": [
    {
      "inputs": [
        {
          "internalType": "address",
          "name": "gnosisSafeContract",
          "type": "address"
        },
        {
          "internalType": "address",
          "name": "gnosisSafeProxyFactory",
          "type": "address"
        },
        {
          "internalType": "address",
          "name": "defaultFallbackHandler",
          "type": "address"
        },
        {
          "internalType": "address",
          "name": "setupHandler",
          "type": "address"
        }
      ],
      "stateMutability": "nonpayable",
      "type": "constructor"
    },
    {
      "inputs": [],
      "name": "CHAIN_ID",
      "outputs": [
        {
          "internalType": "string",
          "name": "",
          "type": "string"
        }
      ],
      "stateMutability": "view",
      "type": "function"
    },
    {
      "inputs": [],
      "name": "STATEMENT",
      "outputs": [
        {
          "internalType": "string",
          "name": "",
          "type": "string"
        }
      ],
      "stateMutability": "view",
      "type": "function"
    },
    {
      "inputs": [
        {
          "components": [
            {
              "internalType": "address",
              "name": "owner",
              "type": "address"
            },
            {
              "internalType": "address",
              "name": "device",
              "type": "address"
            },
            {
              "internalType": "uint256",
              "name": "issuedAt",
              "type": "uint256"
            }
          ],
          "internalType": "struct TokenAuthenticated.TokenRequest",
          "name": "request",
          "type": "tuple"
        },
        {
          "internalType": "bytes",
          "name": "signature",
          "type": "bytes"
        }
      ],
      "name": "createSafe",
      "outputs": [],
      "stateMutability": "nonpayable",
      "type": "function"
    },
    {
      "inputs": [
        {
          "internalType": "address",
          "name": "owner",
          "type": "address"
        },
        {
          "internalType": "address",
          "name": "device",
          "type": "address"
        }
      ],
      "name": "createTokenRequest",
      "outputs": [
        {
          "components": [
            {
              "internalType": "address",
              "name": "owner",
              "type": "address"
            },
            {
              "internalType": "address",
              "name": "device",
              "type": "address"
            },
            {
              "internalType": "uint256",
              "name": "issuedAt",
              "type": "uint256"
            }
          ],
          "internalType": "struct TokenAuthenticated.TokenRequest",
          "name": "request",
          "type": "tuple"
        },
        {
          "internalType": "string",
          "name": "",
          "type": "string"
        }
      ],
      "stateMutability": "view",
      "type": "function"
    },
    {
      "inputs": [],
      "name": "lengthOfToken",
      "outputs": [
        {
          "internalType": "uint256",
          "name": "",
          "type": "uint256"
        }
      ],
      "stateMutability": "view",
      "type": "function"
    },
    {
      "inputs": [
        {
          "internalType": "address",
          "name": "",
          "type": "address"
        }
      ],
      "name": "ownerToSafe",
      "outputs": [
        {
          "internalType": "address",
          "name": "",
          "type": "address"
        }
      ],
      "stateMutability": "view",
      "type": "function"
    },
    {
      "inputs": [
        {
          "internalType": "address",
          "name": "",
          "type": "address"
        }
      ],
      "name": "safeToOwner",
      "outputs": [
        {
          "internalType": "address",
          "name": "",
          "type": "address"
        }
      ],
      "stateMutability": "view",
      "type": "function"
    }
  ],
  "bytecode": "0x610100604052600f6001553480156200001757600080fd5b5060405162002b4238038062002b4283398181016040528101906200003d91906200041b565b6040518060600160405280603a815260200162002b08603a9139806000908162000068919062000707565b50506200007b466200016660201b60201c565b600290816200008b919062000707565b508373ffffffffffffffffffffffffffffffffffffffff1660808173ffffffffffffffffffffffffffffffffffffffff16815250508273ffffffffffffffffffffffffffffffffffffffff1660a08173ffffffffffffffffffffffffffffffffffffffff16815250508173ffffffffffffffffffffffffffffffffffffffff1660c08173ffffffffffffffffffffffffffffffffffffffff16815250508073ffffffffffffffffffffffffffffffffffffffff1660e08173ffffffffffffffffffffffffffffffffffffffff1681525050505050506200081d565b6060600060016200017d846200024560201b60201c565b01905060008167ffffffffffffffff8111156200019f576200019e62000498565b5b6040519080825280601f01601f191660200182016040528015620001d25781602001600182028036833780820191505090505b509050600082602001820190505b6001156200023a578080600190039150507f3031323334353637383961626364656600000000000000000000000000000000600a86061a8153600a85816200022d576200022c620007ee565b5b04945060008503620001e0575b819350505050919050565b600080600090507a184f03e93ff9f4daa797ed6e38ed64bf6a1f0100000000000000008310620002a7577a184f03e93ff9f4daa797ed6e38ed64bf6a1f01000000000000000083816200029d576200029c620007ee565b5b0492506040810190505b6d04ee2d6d415b85acef81000000008310620002e8576d04ee2d6d415b85acef81000000008381620002de57620002dd620007ee565b5b0492506020810190505b662386f26fc1000083106200031b57662386f26fc100008381620003115762000310620007ee565b5b0492506010810190505b6305f5e100831062000348576305f5e10083816200033e576200033d620007ee565b5b0492506008810190505b612710831062000371576127108381620003675762000366620007ee565b5b0492506004810190505b606483106200039857606483816200038e576200038d620007ee565b5b0492506002810190505b600a8310620003a8576001810190505b80915050919050565b600080fd5b600073ffffffffffffffffffffffffffffffffffffffff82169050919050565b6000620003e382620003b6565b9050919050565b620003f581620003d6565b81146200040157600080fd5b50565b6000815190506200041581620003ea565b92915050565b60008060008060808587031215620004385762000437620003b1565b5b6000620004488782880162000404565b94505060206200045b8782880162000404565b93505060406200046e8782880162000404565b9250506060620004818782880162000404565b91505092959194509250565b600081519050919050565b7f4e487b7100000000000000000000000000000000000000000000000000000000600052604160045260246000fd5b7f4e487b7100000000000000000000000000000000000000000000000000000000600052602260045260246000fd5b600060028204905060018216806200050f57607f821691505b602082108103620005255762000524620004c7565b5b50919050565b60008190508160005260206000209050919050565b60006020601f8301049050919050565b600082821b905092915050565b6000600883026200058f7fffffffffffffffffffffffffffffffffffffffffffffffffffffffffffffffff8262000550565b6200059b868362000550565b95508019841693508086168417925050509392505050565b6000819050919050565b6000819050919050565b6000620005e8620005e2620005dc84620005b3565b620005bd565b620005b3565b9050919050565b6000819050919050565b6200060483620005c7565b6200061c6200061382620005ef565b8484546200055d565b825550505050565b600090565b6200063362000624565b62000640818484620005f9565b505050565b5b8181101562000668576200065c60008262000629565b60018101905062000646565b5050565b601f821115620006b75762000681816200052b565b6200068c8462000540565b810160208510156200069c578190505b620006b4620006ab8562000540565b83018262000645565b50505b505050565b600082821c905092915050565b6000620006dc60001984600802620006bc565b1980831691505092915050565b6000620006f78383620006c9565b9150826002028217905092915050565b62000712826200048d565b67ffffffffffffffff8111156200072e576200072d62000498565b5b6200073a8254620004f6565b620007478282856200066c565b600060209050601f8311600181146200077f57600084156200076a578287015190505b620007768582620006e9565b865550620007e6565b601f1984166200078f866200052b565b60005b82811015620007b95784890151825560018201915060208501945060208101905062000792565b86831015620007d95784890151620007d5601f891682620006c9565b8355505b6001600288020188555050505b505050505050565b7f4e487b7100000000000000000000000000000000000000000000000000000000600052601260045260246000fd5b60805160a05160c05160e0516122b16200085760003960006104c001526000610564015260006106240152600061066001526122b16000f3fe608060405234801561001057600080fd5b506004361061007d5760003560e01c806385e1f4d01161005b57806385e1f4d0146100fe578063b6ad16a81461011c578063bebc479c1461014d578063cb2e60431461016b5761007d565b806306634e881461008257806324f669b4146100b25780635e619a4a146100ce575b600080fd5b61009c600480360381019061009791906113d8565b610189565b6040516100a99190611414565b60405180910390f35b6100cc60048036038101906100c791906114b8565b6101bc565b005b6100e860048036038101906100e391906113d8565b61080c565b6040516100f59190611414565b60405180910390f35b61010661083f565b60405161011391906115a8565b60405180910390f35b610136600480360381019061013191906115ca565b6108cd565b604051610144929190611674565b60405180910390f35b610155610941565b60405161016291906115a8565b60405180910390f35b6101736109cf565b60405161018091906116b3565b60405180910390f35b60046020528060005260406000206000915054906101000a900473ffffffffffffffffffffffffffffffffffffffff1681565b600073ffffffffffffffffffffffffffffffffffffffff16600360008560000160208101906101eb91906113d8565b73ffffffffffffffffffffffffffffffffffffffff1673ffffffffffffffffffffffffffffffffffffffff16815260200190815260200160002060009054906101000a900473ffffffffffffffffffffffffffffffffffffffff1673ffffffffffffffffffffffffffffffffffffffff161461029c576040517f08c379a00000000000000000000000000000000000000000000000000000000081526004016102939061171a565b60405180910390fd5b6102a78383836109d5565b6102b057600080fd5b6060600073ffffffffffffffffffffffffffffffffffffffff168460200160208101906102dd91906113d8565b73ffffffffffffffffffffffffffffffffffffffff16036103aa57600167ffffffffffffffff8111156103135761031261173a565b5b6040519080825280602002602001820160405280156103415781602001602082028036833780820191505090505b50905083600001602081019061035791906113d8565b8160008151811061036b5761036a611769565b5b602002602001019073ffffffffffffffffffffffffffffffffffffffff16908173ffffffffffffffffffffffffffffffffffffffff16815250506104b9565b600267ffffffffffffffff8111156103c5576103c461173a565b5b6040519080825280602002602001820160405280156103f35781602001602082028036833780820191505090505b50905083600001602081019061040991906113d8565b8160008151811061041d5761041c611769565b5b602002602001019073ffffffffffffffffffffffffffffffffffffffff16908173ffffffffffffffffffffffffffffffffffffffff168152505083602001602081019061046a91906113d8565b8160018151811061047e5761047d611769565b5b602002602001019073ffffffffffffffffffffffffffffffffffffffff16908173ffffffffffffffffffffffffffffffffffffffff16815250505b60008160017f00000000000000000000000000000000000000000000000000000000000000006040516024016040516020818303038152906040527fba0bba40000000000000000000000000000000000000000000000000000000007bffffffffffffffffffffffffffffffffffffffffffffffffffffffff19166020820180517bffffffffffffffffffffffffffffffffffffffffffffffffffffffff83818316178352505050507f00000000000000000000000000000000000000000000000000000000000000006000806000806040516024016105a19998979695949392919061189c565b6040516020818303038152906040527fb63e800d000000000000000000000000000000000000000000000000000000007bffffffffffffffffffffffffffffffffffffffffffffffffffffffff19166020820180517bffffffffffffffffffffffffffffffffffffffffffffffffffffffff8381831617835250505050905060007f000000000000000000000000000000000000000000000000000000000000000073ffffffffffffffffffffffffffffffffffffffff16631688f0b97f000000000000000000000000000000000000000000000000000000000000000084466040518463ffffffff1660e01b815260040161069f93929190611937565b6020604051808303816000875af11580156106be573d6000803e3d6000fd5b505050506040513d601f19601f820116820180604052508101906106e2919061198a565b905080600360008860000160208101906106fc91906113d8565b73ffffffffffffffffffffffffffffffffffffffff1673ffffffffffffffffffffffffffffffffffffffff16815260200190815260200160002060006101000a81548173ffffffffffffffffffffffffffffffffffffffff021916908373ffffffffffffffffffffffffffffffffffffffff16021790555085600001602081019061078791906113d8565b600460008373ffffffffffffffffffffffffffffffffffffffff1673ffffffffffffffffffffffffffffffffffffffff16815260200190815260200160002060006101000a81548173ffffffffffffffffffffffffffffffffffffffff021916908373ffffffffffffffffffffffffffffffffffffffff160217905550505050505050565b60036020528060005260406000206000915054906101000a900473ffffffffffffffffffffffffffffffffffffffff1681565b6002805461084c906119e6565b80601f0160208091040260200160405190810160405280929190818152602001828054610878906119e6565b80156108c55780601f1061089a576101008083540402835291602001916108c5565b820191906000526020600020905b8154815290600101906020018083116108a857829003601f168201915b505050505081565b6108d5611319565b606060405180606001604052808573ffffffffffffffffffffffffffffffffffffffff1681526020018473ffffffffffffffffffffffffffffffffffffffff1681526020016001436109279190611a46565b81525091508161093683610b16565b915091509250929050565b6000805461094e906119e6565b80601f016020809104026020016040519081016040528092919081815260200182805461097a906119e6565b80156109c75780601f1061099c576101008083540402835291602001916109c7565b820191906000526020600020905b8154815290600101906020018083116109aa57829003601f168201915b505050505081565b60015481565b6000806109e185610b6a565b90506000610a338286868080601f016020809104026020016040519081016040528093929190818152602001838380828437600081840152601f19601f82011690508083019250505050505050610b94565b9050856000016020810190610a4891906113d8565b73ffffffffffffffffffffffffffffffffffffffff168173ffffffffffffffffffffffffffffffffffffffff1614610ab5576040517f08c379a0000000000000000000000000000000000000000000000000000000008152600401610aac90611ac6565b60405180910390fd5b60015443610ac39190611a46565b86604001351015610b09576040517f08c379a0000000000000000000000000000000000000000000000000000000008152600401610b0090611b32565b60405180910390fd5b6001925050509392505050565b60606000610b278360000151610bbb565b610b348460200151610bbb565b610b418560400151610be8565b604051602001610b549493929190611d0a565b6040516020818303038152906040529050919050565b6000610b8d610b8883803603810190610b839190611e4a565b610b16565b610cb6565b9050919050565b6000806000610ba38585610cf1565b91509150610bb081610d42565b819250505092915050565b6060610be18273ffffffffffffffffffffffffffffffffffffffff16601460ff16610ea8565b9050919050565b606060006001610bf7846110e4565b01905060008167ffffffffffffffff811115610c1657610c1561173a565b5b6040519080825280601f01601f191660200182016040528015610c485781602001600182028036833780820191505090505b509050600082602001820190505b600115610cab578080600190039150507f3031323334353637383961626364656600000000000000000000000000000000600a86061a8153600a8581610c9f57610c9e611e77565b5b04945060008503610c56575b819350505050919050565b6000610cc28251610be8565b82604051602001610cd4929190611f2e565b604051602081830303815290604052805190602001209050919050565b6000806041835103610d325760008060006020860151925060408601519150606086015160001a9050610d2687828585611237565b94509450505050610d3b565b60006002915091505b9250929050565b60006004811115610d5657610d55611f5d565b5b816004811115610d6957610d68611f5d565b5b0315610ea55760016004811115610d8357610d82611f5d565b5b816004811115610d9657610d95611f5d565b5b03610dd6576040517f08c379a0000000000000000000000000000000000000000000000000000000008152600401610dcd90611fd8565b60405180910390fd5b60026004811115610dea57610de9611f5d565b5b816004811115610dfd57610dfc611f5d565b5b03610e3d576040517f08c379a0000000000000000000000000000000000000000000000000000000008152600401610e3490612044565b60405180910390fd5b60036004811115610e5157610e50611f5d565b5b816004811115610e6457610e63611f5d565b5b03610ea4576040517f08c379a0000000000000000000000000000000000000000000000000000000008152600401610e9b906120d6565b60405180910390fd5b5b50565b606060006002836002610ebb91906120f6565b610ec59190612138565b67ffffffffffffffff811115610ede57610edd61173a565b5b6040519080825280601f01601f191660200182016040528015610f105781602001600182028036833780820191505090505b5090507f300000000000000000000000000000000000000000000000000000000000000081600081518110610f4857610f47611769565b5b60200101907effffffffffffffffffffffffffffffffffffffffffffffffffffffffffffff1916908160001a9053507f780000000000000000000000000000000000000000000000000000000000000081600181518110610fac57610fab611769565b5b60200101907effffffffffffffffffffffffffffffffffffffffffffffffffffffffffffff1916908160001a90535060006001846002610fec91906120f6565b610ff69190612138565b90505b6001811115611096577f3031323334353637383961626364656600000000000000000000000000000000600f86166010811061103857611037611769565b5b1a60f81b82828151811061104f5761104e611769565b5b60200101907effffffffffffffffffffffffffffffffffffffffffffffffffffffffffffff1916908160001a905350600485901c94508061108f9061216c565b9050610ff9565b50600084146110da576040517f08c379a00000000000000000000000000000000000000000000000000000000081526004016110d1906121e1565b60405180910390fd5b8091505092915050565b600080600090507a184f03e93ff9f4daa797ed6e38ed64bf6a1f0100000000000000008310611142577a184f03e93ff9f4daa797ed6e38ed64bf6a1f010000000000000000838161113857611137611e77565b5b0492506040810190505b6d04ee2d6d415b85acef8100000000831061117f576d04ee2d6d415b85acef8100000000838161117557611174611e77565b5b0492506020810190505b662386f26fc1000083106111ae57662386f26fc1000083816111a4576111a3611e77565b5b0492506010810190505b6305f5e10083106111d7576305f5e10083816111cd576111cc611e77565b5b0492506008810190505b61271083106111fc5761271083816111f2576111f1611e77565b5b0492506004810190505b6064831061121f576064838161121557611214611e77565b5b0492506002810190505b600a831061122e576001810190505b80915050919050565b6000807f7fffffffffffffffffffffffffffffff5d576e7357a4501ddfe92f46681b20a08360001c1115611272576000600391509150611310565b6000600187878787604051600081526020016040526040516112979493929190612236565b6020604051602081039080840390855afa1580156112b9573d6000803e3d6000fd5b505050602060405103519050600073ffffffffffffffffffffffffffffffffffffffff168173ffffffffffffffffffffffffffffffffffffffff160361130757600060019250925050611310565b80600092509250505b94509492505050565b6040518060600160405280600073ffffffffffffffffffffffffffffffffffffffff168152602001600073ffffffffffffffffffffffffffffffffffffffff168152602001600081525090565b6000604051905090565b600080fd5b600080fd5b600073ffffffffffffffffffffffffffffffffffffffff82169050919050565b60006113a58261137a565b9050919050565b6113b58161139a565b81146113c057600080fd5b50565b6000813590506113d2816113ac565b92915050565b6000602082840312156113ee576113ed611370565b5b60006113fc848285016113c3565b91505092915050565b61140e8161139a565b82525050565b60006020820190506114296000830184611405565b92915050565b600080fd5b60006060828403121561144a5761144961142f565b5b81905092915050565b600080fd5b600080fd5b600080fd5b60008083601f84011261147857611477611453565b5b8235905067ffffffffffffffff81111561149557611494611458565b5b6020830191508360018202830111156114b1576114b061145d565b5b9250929050565b6000806000608084860312156114d1576114d0611370565b5b60006114df86828701611434565b935050606084013567ffffffffffffffff811115611500576114ff611375565b5b61150c86828701611462565b92509250509250925092565b600081519050919050565b600082825260208201905092915050565b60005b83811015611552578082015181840152602081019050611537565b60008484015250505050565b6000601f19601f8301169050919050565b600061157a82611518565b6115848185611523565b9350611594818560208601611534565b61159d8161155e565b840191505092915050565b600060208201905081810360008301526115c2818461156f565b905092915050565b600080604083850312156115e1576115e0611370565b5b60006115ef858286016113c3565b9250506020611600858286016113c3565b9150509250929050565b6116138161139a565b82525050565b6000819050919050565b61162c81611619565b82525050565b606082016000820151611648600085018261160a565b50602082015161165b602085018261160a565b50604082015161166e6040850182611623565b50505050565b60006080820190506116896000830185611632565b818103606083015261169b818461156f565b90509392505050565b6116ad81611619565b82525050565b60006020820190506116c860008301846116a4565b92915050565b7f5361666520616c72656164792065786973747320666f72206f776e6572000000600082015250565b6000611704601d83611523565b915061170f826116ce565b602082019050919050565b60006020820190508181036000830152611733816116f7565b9050919050565b7f4e487b7100000000000000000000000000000000000000000000000000000000600052604160045260246000fd5b7f4e487b7100000000000000000000000000000000000000000000000000000000600052603260045260246000fd5b600081519050919050565b600082825260208201905092915050565b6000819050602082019050919050565b60006117d0838361160a565b60208301905092915050565b6000602082019050919050565b60006117f482611798565b6117fe81856117a3565b9350611809836117b4565b8060005b8381101561183a57815161182188826117c4565b975061182c836117dc565b92505060018101905061180d565b5085935050505092915050565b600081519050919050565b600082825260208201905092915050565b600061186e82611847565b6118788185611852565b9350611888818560208601611534565b6118918161155e565b840191505092915050565b60006101208201905081810360008301526118b7818c6117e9565b90506118c6602083018b6116a4565b6118d3604083018a611405565b81810360608301526118e58189611863565b90506118f46080830188611405565b61190160a0830187611405565b61190e60c0830186611405565b61191b60e08301856116a4565b611929610100830184611405565b9a9950505050505050505050565b600060608201905061194c6000830186611405565b818103602083015261195e8185611863565b905061196d60408301846116a4565b949350505050565b600081519050611984816113ac565b92915050565b6000602082840312156119a05761199f611370565b5b60006119ae84828501611975565b91505092915050565b7f4e487b7100000000000000000000000000000000000000000000000000000000600052602260045260246000fd5b600060028204905060018216806119fe57607f821691505b602082108103611a1157611a106119b7565b5b50919050565b7f4e487b7100000000000000000000000000000000000000000000000000000000600052601160045260246000fd5b6000611a5182611619565b9150611a5c83611619565b9250828203905081811115611a7457611a73611a17565b5b92915050565b7f696e76616c6964207369676e6174757265000000000000000000000000000000600082015250565b6000611ab0601183611523565b9150611abb82611a7a565b602082019050919050565b60006020820190508181036000830152611adf81611aa3565b9050919050565b7f5265717565737420697320746f6f206f6c640000000000000000000000000000600082015250565b6000611b1c601283611523565b9150611b2782611ae6565b602082019050919050565b60006020820190508181036000830152611b4b81611b0f565b9050919050565b600081905092915050565b60008190508160005260206000209050919050565b60008154611b7f816119e6565b611b898186611b52565b94506001821660008114611ba45760018114611bb957611bec565b60ff1983168652811515820286019350611bec565b611bc285611b5d565b60005b83811015611be457815481890152600182019150602081019050611bc5565b838801955050505b50505092915050565b7f0a0a4d653a200000000000000000000000000000000000000000000000000000600082015250565b6000611c2b600683611b52565b9150611c3682611bf5565b600682019050919050565b6000611c4c82611518565b611c568185611b52565b9350611c66818560208601611534565b80840191505092915050565b7f0a4465766963653a200000000000000000000000000000000000000000000000600082015250565b6000611ca8600983611b52565b9150611cb382611c72565b600982019050919050565b7f0a4973737565642061743a200000000000000000000000000000000000000000600082015250565b6000611cf4600c83611b52565b9150611cff82611cbe565b600c82019050919050565b6000611d168287611b72565b9150611d2182611c1e565b9150611d2d8286611c41565b9150611d3882611c9b565b9150611d448285611c41565b9150611d4f82611ce7565b9150611d5b8284611c41565b915081905095945050505050565b600080fd5b611d778261155e565b810181811067ffffffffffffffff82111715611d9657611d9561173a565b5b80604052505050565b6000611da9611366565b9050611db58282611d6e565b919050565b611dc381611619565b8114611dce57600080fd5b50565b600081359050611de081611dba565b92915050565b600060608284031215611dfc57611dfb611d69565b5b611e066060611d9f565b90506000611e16848285016113c3565b6000830152506020611e2a848285016113c3565b6020830152506040611e3e84828501611dd1565b60408301525092915050565b600060608284031215611e6057611e5f611370565b5b6000611e6e84828501611de6565b91505092915050565b7f4e487b7100000000000000000000000000000000000000000000000000000000600052601260045260246000fd5b7f19457468657265756d205369676e6564204d6573736167653a0a000000000000600082015250565b6000611edc601a83611b52565b9150611ee782611ea6565b601a82019050919050565b600081905092915050565b6000611f0882611847565b611f128185611ef2565b9350611f22818560208601611534565b80840191505092915050565b6000611f3982611ecf565b9150611f458285611c41565b9150611f518284611efd565b91508190509392505050565b7f4e487b7100000000000000000000000000000000000000000000000000000000600052602160045260246000fd5b7f45434453413a20696e76616c6964207369676e61747572650000000000000000600082015250565b6000611fc2601883611523565b9150611fcd82611f8c565b602082019050919050565b60006020820190508181036000830152611ff181611fb5565b9050919050565b7f45434453413a20696e76616c6964207369676e6174757265206c656e67746800600082015250565b600061202e601f83611523565b915061203982611ff8565b602082019050919050565b6000602082019050818103600083015261205d81612021565b9050919050565b7f45434453413a20696e76616c6964207369676e6174757265202773272076616c60008201527f7565000000000000000000000000000000000000000000000000000000000000602082015250565b60006120c0602283611523565b91506120cb82612064565b604082019050919050565b600060208201905081810360008301526120ef816120b3565b9050919050565b600061210182611619565b915061210c83611619565b925082820261211a81611619565b9150828204841483151761213157612130611a17565b5b5092915050565b600061214382611619565b915061214e83611619565b925082820190508082111561216657612165611a17565b5b92915050565b600061217782611619565b91506000820361218a57612189611a17565b5b600182039050919050565b7f537472696e67733a20686578206c656e67746820696e73756666696369656e74600082015250565b60006121cb602083611523565b91506121d682612195565b602082019050919050565b600060208201905081810360008301526121fa816121be565b9050919050565b6000819050919050565b61221481612201565b82525050565b600060ff82169050919050565b6122308161221a565b82525050565b600060808201905061224b600083018761220b565b6122586020830186612227565b612265604083018561220b565b612272606083018461220b565b9594505050505056fea26469706673582212209ffa297742161d59069dbe814745d870cfd5434814ebfb411454e35e7fba9a9064736f6c634300081300334920617574686f72697a6520746869732064657669636520746f2073656e64207472616e73616374696f6e73206f6e206d7920626568616c662e",
  "linkReferences": {},
  "deployedLinkReferences": {}
}