{
  "_format": "hh-sol-artifact-1",
  "contractName": "WalletDeployer",
  "sourceName": "contracts/WalletDeployer.sol",
  "abi": [
    {
      "inputs": [
        {
          "internalType": "address",
          "name": "gnosisSafeContract",
          "type": "address"
        },
        {
          "internalType": "address",
          "name": "gnosisSafeProxyFactory",
          "type": "address"
        },
        {
          "internalType": "address",
          "name": "defaultFallbackHandler",
          "type": "address"
        },
        {
          "internalType": "address",
          "name": "setupHandler",
          "type": "address"
        }
      ],
      "stateMutability": "nonpayable",
      "type": "constructor"
    },
    {
      "inputs": [],
      "name": "CHAIN_ID",
      "outputs": [
        {
          "internalType": "string",
          "name": "",
          "type": "string"
        }
      ],
      "stateMutability": "view",
      "type": "function"
    },
    {
      "inputs": [],
      "name": "STATEMENT",
      "outputs": [
        {
          "internalType": "string",
          "name": "",
          "type": "string"
        }
      ],
      "stateMutability": "view",
      "type": "function"
    },
    {
      "inputs": [
        {
          "components": [
            {
              "internalType": "address",
              "name": "owner",
              "type": "address"
            },
            {
              "internalType": "address",
              "name": "device",
              "type": "address"
            },
            {
              "internalType": "uint256",
              "name": "issuedAt",
              "type": "uint256"
            }
          ],
          "internalType": "struct TokenAuthenticated.TokenRequest",
          "name": "request",
          "type": "tuple"
        },
        {
          "internalType": "bytes",
          "name": "signature",
          "type": "bytes"
        },
        {
          "internalType": "address",
          "name": "englishOwnerAdder",
          "type": "address"
        },
        {
          "internalType": "bytes",
          "name": "firstTransaction",
          "type": "bytes"
        }
      ],
      "name": "createSafe",
      "outputs": [],
      "stateMutability": "nonpayable",
      "type": "function"
    },
    {
      "inputs": [
        {
          "internalType": "address",
          "name": "owner",
          "type": "address"
        },
        {
          "internalType": "address",
          "name": "device",
          "type": "address"
        }
      ],
      "name": "createTokenRequest",
      "outputs": [
        {
          "components": [
            {
              "internalType": "address",
              "name": "owner",
              "type": "address"
            },
            {
              "internalType": "address",
              "name": "device",
              "type": "address"
            },
            {
              "internalType": "uint256",
              "name": "issuedAt",
              "type": "uint256"
            }
          ],
          "internalType": "struct TokenAuthenticated.TokenRequest",
          "name": "request",
          "type": "tuple"
        },
        {
          "internalType": "string",
          "name": "",
          "type": "string"
        }
      ],
      "stateMutability": "view",
      "type": "function"
    },
    {
      "inputs": [
        {
          "internalType": "bytes",
          "name": "buffer",
          "type": "bytes"
        }
      ],
      "name": "iToHex",
      "outputs": [
        {
          "internalType": "string",
          "name": "",
          "type": "string"
        }
      ],
      "stateMutability": "pure",
      "type": "function"
    },
    {
      "inputs": [],
      "name": "lengthOfToken",
      "outputs": [
        {
          "internalType": "uint256",
          "name": "",
          "type": "uint256"
        }
      ],
      "stateMutability": "view",
      "type": "function"
    },
    {
      "inputs": [
        {
          "internalType": "address",
          "name": "",
          "type": "address"
        }
      ],
      "name": "ownerToSafe",
      "outputs": [
        {
          "internalType": "address",
          "name": "",
          "type": "address"
        }
      ],
      "stateMutability": "view",
      "type": "function"
    },
    {
      "inputs": [
        {
          "internalType": "address",
          "name": "",
          "type": "address"
        }
      ],
      "name": "safeToOwner",
      "outputs": [
        {
          "internalType": "address",
          "name": "",
          "type": "address"
        }
      ],
      "stateMutability": "view",
      "type": "function"
    }
  ],
  "bytecode": "0x610100604052600f6001553480156200001757600080fd5b506040516200319e3803806200319e83398181016040528101906200003d91906200041b565b6040518060600160405280603a815260200162003164603a9139806000908162000068919062000707565b50506200007b466200016660201b60201c565b600290816200008b919062000707565b508373ffffffffffffffffffffffffffffffffffffffff1660808173ffffffffffffffffffffffffffffffffffffffff16815250508273ffffffffffffffffffffffffffffffffffffffff1660a08173ffffffffffffffffffffffffffffffffffffffff16815250508173ffffffffffffffffffffffffffffffffffffffff1660c08173ffffffffffffffffffffffffffffffffffffffff16815250508073ffffffffffffffffffffffffffffffffffffffff1660e08173ffffffffffffffffffffffffffffffffffffffff1681525050505050506200081d565b6060600060016200017d846200024560201b60201c565b01905060008167ffffffffffffffff8111156200019f576200019e62000498565b5b6040519080825280601f01601f191660200182016040528015620001d25781602001600182028036833780820191505090505b509050600082602001820190505b6001156200023a578080600190039150507f3031323334353637383961626364656600000000000000000000000000000000600a86061a8153600a85816200022d576200022c620007ee565b5b04945060008503620001e0575b819350505050919050565b600080600090507a184f03e93ff9f4daa797ed6e38ed64bf6a1f0100000000000000008310620002a7577a184f03e93ff9f4daa797ed6e38ed64bf6a1f01000000000000000083816200029d576200029c620007ee565b5b0492506040810190505b6d04ee2d6d415b85acef81000000008310620002e8576d04ee2d6d415b85acef81000000008381620002de57620002dd620007ee565b5b0492506020810190505b662386f26fc1000083106200031b57662386f26fc100008381620003115762000310620007ee565b5b0492506010810190505b6305f5e100831062000348576305f5e10083816200033e576200033d620007ee565b5b0492506008810190505b612710831062000371576127108381620003675762000366620007ee565b5b0492506004810190505b606483106200039857606483816200038e576200038d620007ee565b5b0492506002810190505b600a8310620003a8576001810190505b80915050919050565b600080fd5b600073ffffffffffffffffffffffffffffffffffffffff82169050919050565b6000620003e382620003b6565b9050919050565b620003f581620003d6565b81146200040157600080fd5b50565b6000815190506200041581620003ea565b92915050565b60008060008060808587031215620004385762000437620003b1565b5b6000620004488782880162000404565b94505060206200045b8782880162000404565b93505060406200046e8782880162000404565b9250506060620004818782880162000404565b91505092959194509250565b600081519050919050565b7f4e487b7100000000000000000000000000000000000000000000000000000000600052604160045260246000fd5b7f4e487b7100000000000000000000000000000000000000000000000000000000600052602260045260246000fd5b600060028204905060018216806200050f57607f821691505b602082108103620005255762000524620004c7565b5b50919050565b60008190508160005260206000209050919050565b60006020601f8301049050919050565b600082821b905092915050565b6000600883026200058f7fffffffffffffffffffffffffffffffffffffffffffffffffffffffffffffffff8262000550565b6200059b868362000550565b95508019841693508086168417925050509392505050565b6000819050919050565b6000819050919050565b6000620005e8620005e2620005dc84620005b3565b620005bd565b620005b3565b9050919050565b6000819050919050565b6200060483620005c7565b6200061c6200061382620005ef565b8484546200055d565b825550505050565b600090565b6200063362000624565b62000640818484620005f9565b505050565b5b8181101562000668576200065c60008262000629565b60018101905062000646565b5050565b601f821115620006b75762000681816200052b565b6200068c8462000540565b810160208510156200069c578190505b620006b4620006ab8562000540565b83018262000645565b50505b505050565b600082821c905092915050565b6000620006dc60001984600802620006bc565b1980831691505092915050565b6000620006f78383620006c9565b9150826002028217905092915050565b62000712826200048d565b67ffffffffffffffff8111156200072e576200072d62000498565b5b6200073a8254620004f6565b620007478282856200066c565b600060209050601f8311600181146200077f57600084156200076a578287015190505b620007768582620006e9565b865550620007e6565b601f1984166200078f866200052b565b60005b82811015620007b95784890151825560018201915060208501945060208101905062000792565b86831015620007d95784890151620007d5601f891682620006c9565b8355505b6001600288020188555050505b505050505050565b7f4e487b7100000000000000000000000000000000000000000000000000000000600052601260045260246000fd5b60805160a05160c05160e05161290d6200085760003960006105f90152600061069d0152600061075b01526000610797015261290d6000f3fe608060405234801561001057600080fd5b50600436106100885760003560e01c806385e1f4d01161005b57806385e1f4d014610139578063b6ad16a814610157578063bebc479c14610188578063cb2e6043146101a657610088565b806306634e881461008d5780635e619a4a146100bd578063671ff786146100ed57806385442d5e1461011d575b600080fd5b6100a760048036038101906100a29190611647565b6101c4565b6040516100b49190611683565b60405180910390f35b6100d760048036038101906100d29190611647565b6101f7565b6040516100e49190611683565b60405180910390f35b610107600480360381019061010291906117e4565b61022a565b60405161011491906118ac565b60405180910390f35b61013760048036038101906101329190611952565b61044f565b005b610141610aae565b60405161014e91906118ac565b60405180910390f35b610171600480360381019061016c91906119f9565b610b3c565b60405161017f929190611aa3565b60405180910390f35b610190610bb0565b60405161019d91906118ac565b60405180910390f35b6101ae610c3e565b6040516101bb9190611ae2565b60405180910390f35b60046020528060005260406000206000915054906101000a900473ffffffffffffffffffffffffffffffffffffffff1681565b60036020528060005260406000206000915054906101000a900473ffffffffffffffffffffffffffffffffffffffff1681565b606060006002835161023c9190611b2c565b67ffffffffffffffff811115610255576102546116b9565b5b6040519080825280601f01601f1916602001820160405280156102875781602001600182028036833780820191505090505b50905060006040518060400160405280601081526020017f3031323334353637383961626364656600000000000000000000000000000000815250905060005b8451811015610425578182518683815181106102e6576102e5611b6e565b5b602001015160f81c60f81b60f81c60ff166103019190611bcc565b8151811061031257610311611b6e565b5b602001015160f81c60f81b8360028361032b9190611b2c565b8151811061033c5761033b611b6e565b5b60200101907effffffffffffffffffffffffffffffffffffffffffffffffffffffffffffff1916908160001a90535081825186838151811061038157610380611b6e565b5b602001015160f81c60f81b60f81c60ff1661039c9190611bfd565b815181106103ad576103ac611b6e565b5b602001015160f81c60f81b8360016002846103c89190611b2c565b6103d29190611c2e565b815181106103e3576103e2611b6e565b5b60200101907effffffffffffffffffffffffffffffffffffffffffffffffffffffffffffff1916908160001a905350808061041d90611c62565b9150506102c7565b50816040516020016104379190611d48565b60405160208183030381529060405292505050919050565b600073ffffffffffffffffffffffffffffffffffffffff166003600088600001602081019061047e9190611647565b73ffffffffffffffffffffffffffffffffffffffff1673ffffffffffffffffffffffffffffffffffffffff16815260200190815260200160002060009054906101000a900473ffffffffffffffffffffffffffffffffffffffff1673ffffffffffffffffffffffffffffffffffffffff161461052f576040517f08c379a000000000000000000000000000000000000000000000000000000000815260040161052690611db6565b60405180910390fd5b61053a868686610c44565b61054357600080fd5b6000600167ffffffffffffffff8111156105605761055f6116b9565b5b60405190808252806020026020018201604052801561058e5781602001602082028036833780820191505090505b5090508660000160208101906105a49190611647565b816000815181106105b8576105b7611b6e565b5b602002602001019073ffffffffffffffffffffffffffffffffffffffff16908173ffffffffffffffffffffffffffffffffffffffff168152505060008160017f00000000000000000000000000000000000000000000000000000000000000006040516024016040516020818303038152906040527fba0bba40000000000000000000000000000000000000000000000000000000007bffffffffffffffffffffffffffffffffffffffffffffffffffffffff19166020820180517bffffffffffffffffffffffffffffffffffffffffffffffffffffffff83818316178352505050507f000000000000000000000000000000000000000000000000000000000000000060008060006040516024016106d8989796959493929190611ecf565b6040516020818303038152906040527fb63e800d000000000000000000000000000000000000000000000000000000007bffffffffffffffffffffffffffffffffffffffffffffffffffffffff19166020820180517bffffffffffffffffffffffffffffffffffffffffffffffffffffffff8381831617835250505050905060007f000000000000000000000000000000000000000000000000000000000000000073ffffffffffffffffffffffffffffffffffffffff16631688f0b97f000000000000000000000000000000000000000000000000000000000000000084466040518463ffffffff1660e01b81526004016107d693929190611f5b565b6020604051808303816000875af11580156107f5573d6000803e3d6000fd5b505050506040513d601f19601f820116820180604052508101906108199190611fae565b9050600073ffffffffffffffffffffffffffffffffffffffff168960200160208101906108469190611647565b73ffffffffffffffffffffffffffffffffffffffff16146108d3578573ffffffffffffffffffffffffffffffffffffffff1663724e59c3828b8b8b6040518563ffffffff1660e01b81526004016108a094939291906120bc565b600060405180830381600087803b1580156108ba57600080fd5b505af11580156108ce573d6000803e3d6000fd5b505050505b80600360008b60000160208101906108eb9190611647565b73ffffffffffffffffffffffffffffffffffffffff1673ffffffffffffffffffffffffffffffffffffffff16815260200190815260200160002060006101000a81548173ffffffffffffffffffffffffffffffffffffffff021916908373ffffffffffffffffffffffffffffffffffffffff1602179055508860000160208101906109769190611647565b600460008373ffffffffffffffffffffffffffffffffffffffff1673ffffffffffffffffffffffffffffffffffffffff16815260200190815260200160002060006101000a81548173ffffffffffffffffffffffffffffffffffffffff021916908373ffffffffffffffffffffffffffffffffffffffff16021790555060008173ffffffffffffffffffffffffffffffffffffffff168686604051610a1c929190612121565b6000604051808303816000865af19150503d8060008114610a59576040519150601f19603f3d011682016040523d82523d6000602084013e610a5e565b606091505b5050905080610aa2576040517f08c379a0000000000000000000000000000000000000000000000000000000008152600401610a9990612186565b60405180910390fd5b50505050505050505050565b60028054610abb906121d5565b80601f0160208091040260200160405190810160405280929190818152602001828054610ae7906121d5565b8015610b345780601f10610b0957610100808354040283529160200191610b34565b820191906000526020600020905b815481529060010190602001808311610b1757829003601f168201915b505050505081565b610b44611588565b606060405180606001604052808573ffffffffffffffffffffffffffffffffffffffff1681526020018473ffffffffffffffffffffffffffffffffffffffff168152602001600143610b969190612206565b815250915081610ba583610d85565b915091509250929050565b60008054610bbd906121d5565b80601f0160208091040260200160405190810160405280929190818152602001828054610be9906121d5565b8015610c365780601f10610c0b57610100808354040283529160200191610c36565b820191906000526020600020905b815481529060010190602001808311610c1957829003601f168201915b505050505081565b60015481565b600080610c5085610dd9565b90506000610ca28286868080601f016020809104026020016040519081016040528093929190818152602001838380828437600081840152601f19601f82011690508083019250505050505050610e03565b9050856000016020810190610cb79190611647565b73ffffffffffffffffffffffffffffffffffffffff168173ffffffffffffffffffffffffffffffffffffffff1614610d24576040517f08c379a0000000000000000000000000000000000000000000000000000000008152600401610d1b90612286565b60405180910390fd5b60015443610d329190612206565b86604001351015610d78576040517f08c379a0000000000000000000000000000000000000000000000000000000008152600401610d6f906122f2565b60405180910390fd5b6001925050509392505050565b60606000610d968360000151610e2a565b610da38460200151610e2a565b610db08560400151610e57565b604051602001610dc394939291906124bf565b6040516020818303038152906040529050919050565b6000610dfc610df783803603810190610df29190612587565b610d85565b610f25565b9050919050565b6000806000610e128585610f60565b91509150610e1f81610fb1565b819250505092915050565b6060610e508273ffffffffffffffffffffffffffffffffffffffff16601460ff16611117565b9050919050565b606060006001610e6684611353565b01905060008167ffffffffffffffff811115610e8557610e846116b9565b5b6040519080825280601f01601f191660200182016040528015610eb75781602001600182028036833780820191505090505b509050600082602001820190505b600115610f1a578080600190039150507f3031323334353637383961626364656600000000000000000000000000000000600a86061a8153600a8581610f0e57610f0d611b9d565b5b04945060008503610ec5575b819350505050919050565b6000610f318251610e57565b82604051602001610f43929190612600565b604051602081830303815290604052805190602001209050919050565b6000806041835103610fa15760008060006020860151925060408601519150606086015160001a9050610f95878285856114a6565b94509450505050610faa565b60006002915091505b9250929050565b60006004811115610fc557610fc461262f565b5b816004811115610fd857610fd761262f565b5b03156111145760016004811115610ff257610ff161262f565b5b8160048111156110055761100461262f565b5b03611045576040517f08c379a000000000000000000000000000000000000000000000000000000000815260040161103c906126aa565b60405180910390fd5b600260048111156110595761105861262f565b5b81600481111561106c5761106b61262f565b5b036110ac576040517f08c379a00000000000000000000000000000000000000000000000000000000081526004016110a390612716565b60405180910390fd5b600360048111156110c0576110bf61262f565b5b8160048111156110d3576110d261262f565b5b03611113576040517f08c379a000000000000000000000000000000000000000000000000000000000815260040161110a906127a8565b60405180910390fd5b5b50565b60606000600283600261112a9190611b2c565b6111349190611c2e565b67ffffffffffffffff81111561114d5761114c6116b9565b5b6040519080825280601f01601f19166020018201604052801561117f5781602001600182028036833780820191505090505b5090507f3000000000000000000000000000000000000000000000000000000000000000816000815181106111b7576111b6611b6e565b5b60200101907effffffffffffffffffffffffffffffffffffffffffffffffffffffffffffff1916908160001a9053507f78000000000000000000000000000000000000000000000000000000000000008160018151811061121b5761121a611b6e565b5b60200101907effffffffffffffffffffffffffffffffffffffffffffffffffffffffffffff1916908160001a9053506000600184600261125b9190611b2c565b6112659190611c2e565b90505b6001811115611305577f3031323334353637383961626364656600000000000000000000000000000000600f8616601081106112a7576112a6611b6e565b5b1a60f81b8282815181106112be576112bd611b6e565b5b60200101907effffffffffffffffffffffffffffffffffffffffffffffffffffffffffffff1916908160001a905350600485901c9450806112fe906127c8565b9050611268565b5060008414611349576040517f08c379a00000000000000000000000000000000000000000000000000000000081526004016113409061283d565b60405180910390fd5b8091505092915050565b600080600090507a184f03e93ff9f4daa797ed6e38ed64bf6a1f01000000000000000083106113b1577a184f03e93ff9f4daa797ed6e38ed64bf6a1f01000000000000000083816113a7576113a6611b9d565b5b0492506040810190505b6d04ee2d6d415b85acef810000000083106113ee576d04ee2d6d415b85acef810000000083816113e4576113e3611b9d565b5b0492506020810190505b662386f26fc10000831061141d57662386f26fc10000838161141357611412611b9d565b5b0492506010810190505b6305f5e1008310611446576305f5e100838161143c5761143b611b9d565b5b0492506008810190505b612710831061146b57612710838161146157611460611b9d565b5b0492506004810190505b6064831061148e576064838161148457611483611b9d565b5b0492506002810190505b600a831061149d576001810190505b80915050919050565b6000807f7fffffffffffffffffffffffffffffff5d576e7357a4501ddfe92f46681b20a08360001c11156114e157600060039150915061157f565b6000600187878787604051600081526020016040526040516115069493929190612892565b6020604051602081039080840390855afa158015611528573d6000803e3d6000fd5b505050602060405103519050600073ffffffffffffffffffffffffffffffffffffffff168173ffffffffffffffffffffffffffffffffffffffff16036115765760006001925092505061157f565b80600092509250505b94509492505050565b6040518060600160405280600073ffffffffffffffffffffffffffffffffffffffff168152602001600073ffffffffffffffffffffffffffffffffffffffff168152602001600081525090565b6000604051905090565b600080fd5b600080fd5b600073ffffffffffffffffffffffffffffffffffffffff82169050919050565b6000611614826115e9565b9050919050565b61162481611609565b811461162f57600080fd5b50565b6000813590506116418161161b565b92915050565b60006020828403121561165d5761165c6115df565b5b600061166b84828501611632565b91505092915050565b61167d81611609565b82525050565b60006020820190506116986000830184611674565b92915050565b600080fd5b600080fd5b6000601f19601f8301169050919050565b7f4e487b7100000000000000000000000000000000000000000000000000000000600052604160045260246000fd5b6116f1826116a8565b810181811067ffffffffffffffff821117156117105761170f6116b9565b5b80604052505050565b60006117236115d5565b905061172f82826116e8565b919050565b600067ffffffffffffffff82111561174f5761174e6116b9565b5b611758826116a8565b9050602081019050919050565b82818337600083830152505050565b600061178761178284611734565b611719565b9050828152602081018484840111156117a3576117a26116a3565b5b6117ae848285611765565b509392505050565b600082601f8301126117cb576117ca61169e565b5b81356117db848260208601611774565b91505092915050565b6000602082840312156117fa576117f96115df565b5b600082013567ffffffffffffffff811115611818576118176115e4565b5b611824848285016117b6565b91505092915050565b600081519050919050565b600082825260208201905092915050565b60005b8381101561186757808201518184015260208101905061184c565b60008484015250505050565b600061187e8261182d565b6118888185611838565b9350611898818560208601611849565b6118a1816116a8565b840191505092915050565b600060208201905081810360008301526118c68184611873565b905092915050565b600080fd5b6000606082840312156118e9576118e86118ce565b5b81905092915050565b600080fd5b600080fd5b60008083601f8401126119125761191161169e565b5b8235905067ffffffffffffffff81111561192f5761192e6118f2565b5b60208301915083600182028301111561194b5761194a6118f7565b5b9250929050565b60008060008060008060c0878903121561196f5761196e6115df565b5b600061197d89828a016118d3565b965050606087013567ffffffffffffffff81111561199e5761199d6115e4565b5b6119aa89828a016118fc565b955095505060806119bd89828a01611632565b93505060a087013567ffffffffffffffff8111156119de576119dd6115e4565b5b6119ea89828a016118fc565b92509250509295509295509295565b60008060408385031215611a1057611a0f6115df565b5b6000611a1e85828601611632565b9250506020611a2f85828601611632565b9150509250929050565b611a4281611609565b82525050565b6000819050919050565b611a5b81611a48565b82525050565b606082016000820151611a776000850182611a39565b506020820151611a8a6020850182611a39565b506040820151611a9d6040850182611a52565b50505050565b6000608082019050611ab86000830185611a61565b8181036060830152611aca8184611873565b90509392505050565b611adc81611a48565b82525050565b6000602082019050611af76000830184611ad3565b92915050565b7f4e487b7100000000000000000000000000000000000000000000000000000000600052601160045260246000fd5b6000611b3782611a48565b9150611b4283611a48565b9250828202611b5081611a48565b91508282048414831517611b6757611b66611afd565b5b5092915050565b7f4e487b7100000000000000000000000000000000000000000000000000000000600052603260045260246000fd5b7f4e487b7100000000000000000000000000000000000000000000000000000000600052601260045260246000fd5b6000611bd782611a48565b9150611be283611a48565b925082611bf257611bf1611b9d565b5b828204905092915050565b6000611c0882611a48565b9150611c1383611a48565b925082611c2357611c22611b9d565b5b828206905092915050565b6000611c3982611a48565b9150611c4483611a48565b9250828201905080821115611c5c57611c5b611afd565b5b92915050565b6000611c6d82611a48565b91507fffffffffffffffffffffffffffffffffffffffffffffffffffffffffffffffff8203611c9f57611c9e611afd565b5b600182019050919050565b600081905092915050565b7f3078000000000000000000000000000000000000000000000000000000000000600082015250565b6000611ceb600283611caa565b9150611cf682611cb5565b600282019050919050565b600081519050919050565b600081905092915050565b6000611d2282611d01565b611d2c8185611d0c565b9350611d3c818560208601611849565b80840191505092915050565b6000611d5382611cde565b9150611d5f8284611d17565b915081905092915050565b7f5361666520616c72656164792065786973747320666f72206f776e6572000000600082015250565b6000611da0601d83611838565b9150611dab82611d6a565b602082019050919050565b60006020820190508181036000830152611dcf81611d93565b9050919050565b600081519050919050565b600082825260208201905092915050565b6000819050602082019050919050565b6000611e0e8383611a39565b60208301905092915050565b6000602082019050919050565b6000611e3282611dd6565b611e3c8185611de1565b9350611e4783611df2565b8060005b83811015611e78578151611e5f8882611e02565b9750611e6a83611e1a565b925050600181019050611e4b565b5085935050505092915050565b600082825260208201905092915050565b6000611ea182611d01565b611eab8185611e85565b9350611ebb818560208601611849565b611ec4816116a8565b840191505092915050565b6000610100820190508181036000830152611eea818b611e27565b9050611ef9602083018a611ad3565b611f066040830189611674565b8181036060830152611f188188611e96565b9050611f276080830187611674565b611f3460a0830186611674565b611f4160c0830185611ad3565b611f4e60e0830184611674565b9998505050505050505050565b6000606082019050611f706000830186611674565b8181036020830152611f828185611e96565b9050611f916040830184611ad3565b949350505050565b600081519050611fa88161161b565b92915050565b600060208284031215611fc457611fc36115df565b5b6000611fd284828501611f99565b91505092915050565b6000611fea6020840184611632565b905092915050565b611ffb81611a48565b811461200657600080fd5b50565b60008135905061201881611ff2565b92915050565b600061202d6020840184612009565b905092915050565b606082016120466000830183611fdb565b6120536000850182611a39565b506120616020830183611fdb565b61206e6020850182611a39565b5061207c604083018361201e565b6120896040850182611a52565b50505050565b600061209b8385611e85565b93506120a8838584611765565b6120b1836116a8565b840190509392505050565b600060a0820190506120d16000830187611674565b6120de6020830186612035565b81810360808301526120f181848661208f565b905095945050505050565b60006121088385611d0c565b9350612115838584611765565b82840190509392505050565b600061212e8284866120fc565b91508190509392505050565b7f4669727374207472616e73616374696f6e206661696c65640000000000000000600082015250565b6000612170601883611838565b915061217b8261213a565b602082019050919050565b6000602082019050818103600083015261219f81612163565b9050919050565b7f4e487b7100000000000000000000000000000000000000000000000000000000600052602260045260246000fd5b600060028204905060018216806121ed57607f821691505b602082108103612200576121ff6121a6565b5b50919050565b600061221182611a48565b915061221c83611a48565b925082820390508181111561223457612233611afd565b5b92915050565b7f696e76616c6964207369676e6174757265000000000000000000000000000000600082015250565b6000612270601183611838565b915061227b8261223a565b602082019050919050565b6000602082019050818103600083015261229f81612263565b9050919050565b7f5265717565737420697320746f6f206f6c640000000000000000000000000000600082015250565b60006122dc601283611838565b91506122e7826122a6565b602082019050919050565b6000602082019050818103600083015261230b816122cf565b9050919050565b60008190508160005260206000209050919050565b60008154612334816121d5565b61233e8186611caa565b94506001821660008114612359576001811461236e576123a1565b60ff19831686528115158202860193506123a1565b61237785612312565b60005b838110156123995781548189015260018201915060208101905061237a565b838801955050505b50505092915050565b7f0a0a4d653a200000000000000000000000000000000000000000000000000000600082015250565b60006123e0600683611caa565b91506123eb826123aa565b600682019050919050565b60006124018261182d565b61240b8185611caa565b935061241b818560208601611849565b80840191505092915050565b7f0a4465766963653a200000000000000000000000000000000000000000000000600082015250565b600061245d600983611caa565b915061246882612427565b600982019050919050565b7f0a4973737565642061743a200000000000000000000000000000000000000000600082015250565b60006124a9600c83611caa565b91506124b482612473565b600c82019050919050565b60006124cb8287612327565b91506124d6826123d3565b91506124e282866123f6565b91506124ed82612450565b91506124f982856123f6565b91506125048261249c565b915061251082846123f6565b915081905095945050505050565b600080fd5b6000606082840312156125395761253861251e565b5b6125436060611719565b9050600061255384828501611632565b600083015250602061256784828501611632565b602083015250604061257b84828501612009565b60408301525092915050565b60006060828403121561259d5761259c6115df565b5b60006125ab84828501612523565b91505092915050565b7f19457468657265756d205369676e6564204d6573736167653a0a000000000000600082015250565b60006125ea601a83611caa565b91506125f5826125b4565b601a82019050919050565b600061260b826125dd565b915061261782856123f6565b91506126238284611d17565b91508190509392505050565b7f4e487b7100000000000000000000000000000000000000000000000000000000600052602160045260246000fd5b7f45434453413a20696e76616c6964207369676e61747572650000000000000000600082015250565b6000612694601883611838565b915061269f8261265e565b602082019050919050565b600060208201905081810360008301526126c381612687565b9050919050565b7f45434453413a20696e76616c6964207369676e6174757265206c656e67746800600082015250565b6000612700601f83611838565b915061270b826126ca565b602082019050919050565b6000602082019050818103600083015261272f816126f3565b9050919050565b7f45434453413a20696e76616c6964207369676e6174757265202773272076616c60008201527f7565000000000000000000000000000000000000000000000000000000000000602082015250565b6000612792602283611838565b915061279d82612736565b604082019050919050565b600060208201905081810360008301526127c181612785565b9050919050565b60006127d382611a48565b9150600082036127e6576127e5611afd565b5b600182039050919050565b7f537472696e67733a20686578206c656e67746820696e73756666696369656e74600082015250565b6000612827602083611838565b9150612832826127f1565b602082019050919050565b600060208201905081810360008301526128568161281a565b9050919050565b6000819050919050565b6128708161285d565b82525050565b600060ff82169050919050565b61288c81612876565b82525050565b60006080820190506128a76000830187612867565b6128b46020830186612883565b6128c16040830185612867565b6128ce6060830184612867565b9594505050505056fea26469706673582212207167cc10b3a91e5b789733762431f0ec1799c7f7c4cf19e08cf6b24a0968253764736f6c634300081300334920617574686f72697a6520746869732064657669636520746f2073656e64207472616e73616374696f6e73206f6e206d7920626568616c662e",
  "linkReferences": {},
  "deployedLinkReferences": {}
}