{
  "_format": "hh-sol-artifact-1",
  "contractName": "WalletDeployer",
  "sourceName": "contracts/WalletDeployer.sol",
  "abi": [
    {
      "inputs": [
        {
          "internalType": "address",
          "name": "gnosisSafeContract",
          "type": "address"
        },
        {
          "internalType": "address",
          "name": "gnosisSafeProxyFactory",
          "type": "address"
        },
        {
          "internalType": "address",
          "name": "defaultFallbackHandler",
          "type": "address"
        },
        {
          "internalType": "address",
          "name": "setupHandler",
          "type": "address"
        }
      ],
      "stateMutability": "nonpayable",
      "type": "constructor"
    },
    {
      "inputs": [],
      "name": "CHAIN_ID",
      "outputs": [
        {
          "internalType": "string",
          "name": "",
          "type": "string"
        }
      ],
      "stateMutability": "view",
      "type": "function"
    },
    {
      "inputs": [],
      "name": "STATEMENT",
      "outputs": [
        {
          "internalType": "string",
          "name": "",
          "type": "string"
        }
      ],
      "stateMutability": "view",
      "type": "function"
    },
    {
      "inputs": [
        {
          "components": [
            {
              "internalType": "address",
              "name": "owner",
              "type": "address"
            },
            {
              "internalType": "address",
              "name": "device",
              "type": "address"
            },
            {
              "internalType": "uint256",
              "name": "issuedAt",
              "type": "uint256"
            }
          ],
          "internalType": "struct TokenAuthenticated.TokenRequest",
          "name": "request",
          "type": "tuple"
        },
        {
          "internalType": "bytes",
          "name": "signature",
          "type": "bytes"
        },
        {
          "internalType": "address",
          "name": "englishOwnerAdder",
          "type": "address"
        }
      ],
      "name": "createSafe",
      "outputs": [],
      "stateMutability": "nonpayable",
      "type": "function"
    },
    {
      "inputs": [
        {
          "internalType": "address",
          "name": "owner",
          "type": "address"
        },
        {
          "internalType": "address",
          "name": "device",
          "type": "address"
        }
      ],
      "name": "createTokenRequest",
      "outputs": [
        {
          "components": [
            {
              "internalType": "address",
              "name": "owner",
              "type": "address"
            },
            {
              "internalType": "address",
              "name": "device",
              "type": "address"
            },
            {
              "internalType": "uint256",
              "name": "issuedAt",
              "type": "uint256"
            }
          ],
          "internalType": "struct TokenAuthenticated.TokenRequest",
          "name": "request",
          "type": "tuple"
        },
        {
          "internalType": "string",
          "name": "",
          "type": "string"
        }
      ],
      "stateMutability": "view",
      "type": "function"
    },
    {
      "inputs": [
        {
          "internalType": "bytes",
          "name": "buffer",
          "type": "bytes"
        }
      ],
      "name": "iToHex",
      "outputs": [
        {
          "internalType": "string",
          "name": "",
          "type": "string"
        }
      ],
      "stateMutability": "pure",
      "type": "function"
    },
    {
      "inputs": [],
      "name": "lengthOfToken",
      "outputs": [
        {
          "internalType": "uint256",
          "name": "",
          "type": "uint256"
        }
      ],
      "stateMutability": "view",
      "type": "function"
    },
    {
      "inputs": [
        {
          "internalType": "address",
          "name": "",
          "type": "address"
        }
      ],
      "name": "ownerToSafe",
      "outputs": [
        {
          "internalType": "address",
          "name": "",
          "type": "address"
        }
      ],
      "stateMutability": "view",
      "type": "function"
    },
    {
      "inputs": [
        {
          "internalType": "address",
          "name": "",
          "type": "address"
        }
      ],
      "name": "safeToOwner",
      "outputs": [
        {
          "internalType": "address",
          "name": "",
          "type": "address"
        }
      ],
      "stateMutability": "view",
      "type": "function"
    }
  ],
  "bytecode": "0x610100604052600f6001553480156200001757600080fd5b506040516200300f3803806200300f83398181016040528101906200003d91906200041b565b6040518060600160405280603a815260200162002fd5603a9139806000908162000068919062000707565b50506200007b466200016660201b60201c565b600290816200008b919062000707565b508373ffffffffffffffffffffffffffffffffffffffff1660808173ffffffffffffffffffffffffffffffffffffffff16815250508273ffffffffffffffffffffffffffffffffffffffff1660a08173ffffffffffffffffffffffffffffffffffffffff16815250508173ffffffffffffffffffffffffffffffffffffffff1660c08173ffffffffffffffffffffffffffffffffffffffff16815250508073ffffffffffffffffffffffffffffffffffffffff1660e08173ffffffffffffffffffffffffffffffffffffffff1681525050505050506200081d565b6060600060016200017d846200024560201b60201c565b01905060008167ffffffffffffffff8111156200019f576200019e62000498565b5b6040519080825280601f01601f191660200182016040528015620001d25781602001600182028036833780820191505090505b509050600082602001820190505b6001156200023a578080600190039150507f3031323334353637383961626364656600000000000000000000000000000000600a86061a8153600a85816200022d576200022c620007ee565b5b04945060008503620001e0575b819350505050919050565b600080600090507a184f03e93ff9f4daa797ed6e38ed64bf6a1f0100000000000000008310620002a7577a184f03e93ff9f4daa797ed6e38ed64bf6a1f01000000000000000083816200029d576200029c620007ee565b5b0492506040810190505b6d04ee2d6d415b85acef81000000008310620002e8576d04ee2d6d415b85acef81000000008381620002de57620002dd620007ee565b5b0492506020810190505b662386f26fc1000083106200031b57662386f26fc100008381620003115762000310620007ee565b5b0492506010810190505b6305f5e100831062000348576305f5e10083816200033e576200033d620007ee565b5b0492506008810190505b612710831062000371576127108381620003675762000366620007ee565b5b0492506004810190505b606483106200039857606483816200038e576200038d620007ee565b5b0492506002810190505b600a8310620003a8576001810190505b80915050919050565b600080fd5b600073ffffffffffffffffffffffffffffffffffffffff82169050919050565b6000620003e382620003b6565b9050919050565b620003f581620003d6565b81146200040157600080fd5b50565b6000815190506200041581620003ea565b92915050565b60008060008060808587031215620004385762000437620003b1565b5b6000620004488782880162000404565b94505060206200045b8782880162000404565b93505060406200046e8782880162000404565b9250506060620004818782880162000404565b91505092959194509250565b600081519050919050565b7f4e487b7100000000000000000000000000000000000000000000000000000000600052604160045260246000fd5b7f4e487b7100000000000000000000000000000000000000000000000000000000600052602260045260246000fd5b600060028204905060018216806200050f57607f821691505b602082108103620005255762000524620004c7565b5b50919050565b60008190508160005260206000209050919050565b60006020601f8301049050919050565b600082821b905092915050565b6000600883026200058f7fffffffffffffffffffffffffffffffffffffffffffffffffffffffffffffffff8262000550565b6200059b868362000550565b95508019841693508086168417925050509392505050565b6000819050919050565b6000819050919050565b6000620005e8620005e2620005dc84620005b3565b620005bd565b620005b3565b9050919050565b6000819050919050565b6200060483620005c7565b6200061c6200061382620005ef565b8484546200055d565b825550505050565b600090565b6200063362000624565b62000640818484620005f9565b505050565b5b8181101562000668576200065c60008262000629565b60018101905062000646565b5050565b601f821115620006b75762000681816200052b565b6200068c8462000540565b810160208510156200069c578190505b620006b4620006ab8562000540565b83018262000645565b50505b505050565b600082821c905092915050565b6000620006dc60001984600802620006bc565b1980831691505092915050565b6000620006f78383620006c9565b9150826002028217905092915050565b62000712826200048d565b67ffffffffffffffff8111156200072e576200072d62000498565b5b6200073a8254620004f6565b620007478282856200066c565b600060209050601f8311600181146200077f57600084156200076a578287015190505b620007768582620006e9565b865550620007e6565b601f1984166200078f866200052b565b60005b82811015620007b95784890151825560018201915060208501945060208101905062000792565b86831015620007d95784890151620007d5601f891682620006c9565b8355505b6001600288020188555050505b505050505050565b7f4e487b7100000000000000000000000000000000000000000000000000000000600052601260045260246000fd5b60805160a05160c05160e05161277e6200085760003960006105f90152600061069d0152600061075b01526000610797015261277e6000f3fe608060405234801561001057600080fd5b50600436106100885760003560e01c806385e1f4d01161005b57806385e1f4d014610139578063b6ad16a814610157578063bebc479c14610188578063cb2e6043146101a657610088565b806306634e881461008d5780635e619a4a146100bd578063671ff786146100ed5780637a1238a91461011d575b600080fd5b6100a760048036038101906100a29190611595565b6101c4565b6040516100b491906115d1565b60405180910390f35b6100d760048036038101906100d29190611595565b6101f7565b6040516100e491906115d1565b60405180910390f35b61010760048036038101906101029190611732565b61022a565b60405161011491906117fa565b60405180910390f35b610137600480360381019061013291906118a0565b61044f565b005b6101416109fc565b60405161014e91906117fa565b60405180910390f35b610171600480360381019061016c9190611914565b610a8a565b60405161017f9291906119be565b60405180910390f35b610190610afe565b60405161019d91906117fa565b60405180910390f35b6101ae610b8c565b6040516101bb91906119fd565b60405180910390f35b60046020528060005260406000206000915054906101000a900473ffffffffffffffffffffffffffffffffffffffff1681565b60036020528060005260406000206000915054906101000a900473ffffffffffffffffffffffffffffffffffffffff1681565b606060006002835161023c9190611a47565b67ffffffffffffffff81111561025557610254611607565b5b6040519080825280601f01601f1916602001820160405280156102875781602001600182028036833780820191505090505b50905060006040518060400160405280601081526020017f3031323334353637383961626364656600000000000000000000000000000000815250905060005b8451811015610425578182518683815181106102e6576102e5611a89565b5b602001015160f81c60f81b60f81c60ff166103019190611ae7565b8151811061031257610311611a89565b5b602001015160f81c60f81b8360028361032b9190611a47565b8151811061033c5761033b611a89565b5b60200101907effffffffffffffffffffffffffffffffffffffffffffffffffffffffffffff1916908160001a90535081825186838151811061038157610380611a89565b5b602001015160f81c60f81b60f81c60ff1661039c9190611b18565b815181106103ad576103ac611a89565b5b602001015160f81c60f81b8360016002846103c89190611a47565b6103d29190611b49565b815181106103e3576103e2611a89565b5b60200101907effffffffffffffffffffffffffffffffffffffffffffffffffffffffffffff1916908160001a905350808061041d90611b7d565b9150506102c7565b50816040516020016104379190611c63565b60405160208183030381529060405292505050919050565b600073ffffffffffffffffffffffffffffffffffffffff166003600086600001602081019061047e9190611595565b73ffffffffffffffffffffffffffffffffffffffff1673ffffffffffffffffffffffffffffffffffffffff16815260200190815260200160002060009054906101000a900473ffffffffffffffffffffffffffffffffffffffff1673ffffffffffffffffffffffffffffffffffffffff161461052f576040517f08c379a000000000000000000000000000000000000000000000000000000000815260040161052690611cd1565b60405180910390fd5b61053a848484610b92565b61054357600080fd5b6000600167ffffffffffffffff8111156105605761055f611607565b5b60405190808252806020026020018201604052801561058e5781602001602082028036833780820191505090505b5090508460000160208101906105a49190611595565b816000815181106105b8576105b7611a89565b5b602002602001019073ffffffffffffffffffffffffffffffffffffffff16908173ffffffffffffffffffffffffffffffffffffffff168152505060008160017f00000000000000000000000000000000000000000000000000000000000000006040516024016040516020818303038152906040527fba0bba40000000000000000000000000000000000000000000000000000000007bffffffffffffffffffffffffffffffffffffffffffffffffffffffff19166020820180517bffffffffffffffffffffffffffffffffffffffffffffffffffffffff83818316178352505050507f000000000000000000000000000000000000000000000000000000000000000060008060006040516024016106d8989796959493929190611dea565b6040516020818303038152906040527fb63e800d000000000000000000000000000000000000000000000000000000007bffffffffffffffffffffffffffffffffffffffffffffffffffffffff19166020820180517bffffffffffffffffffffffffffffffffffffffffffffffffffffffff8381831617835250505050905060007f000000000000000000000000000000000000000000000000000000000000000073ffffffffffffffffffffffffffffffffffffffff16631688f0b97f000000000000000000000000000000000000000000000000000000000000000084466040518463ffffffff1660e01b81526004016107d693929190611e76565b6020604051808303816000875af11580156107f5573d6000803e3d6000fd5b505050506040513d601f19601f820116820180604052508101906108199190611ec9565b9050600073ffffffffffffffffffffffffffffffffffffffff168760200160208101906108469190611595565b73ffffffffffffffffffffffffffffffffffffffff16146108d3578373ffffffffffffffffffffffffffffffffffffffff1663724e59c3828989896040518563ffffffff1660e01b81526004016108a09493929190611fd7565b600060405180830381600087803b1580156108ba57600080fd5b505af11580156108ce573d6000803e3d6000fd5b505050505b80600360008960000160208101906108eb9190611595565b73ffffffffffffffffffffffffffffffffffffffff1673ffffffffffffffffffffffffffffffffffffffff16815260200190815260200160002060006101000a81548173ffffffffffffffffffffffffffffffffffffffff021916908373ffffffffffffffffffffffffffffffffffffffff1602179055508660000160208101906109769190611595565b600460008373ffffffffffffffffffffffffffffffffffffffff1673ffffffffffffffffffffffffffffffffffffffff16815260200190815260200160002060006101000a81548173ffffffffffffffffffffffffffffffffffffffff021916908373ffffffffffffffffffffffffffffffffffffffff16021790555050505050505050565b60028054610a0990612046565b80601f0160208091040260200160405190810160405280929190818152602001828054610a3590612046565b8015610a825780601f10610a5757610100808354040283529160200191610a82565b820191906000526020600020905b815481529060010190602001808311610a6557829003601f168201915b505050505081565b610a926114d6565b606060405180606001604052808573ffffffffffffffffffffffffffffffffffffffff1681526020018473ffffffffffffffffffffffffffffffffffffffff168152602001600143610ae49190612077565b815250915081610af383610cd3565b915091509250929050565b60008054610b0b90612046565b80601f0160208091040260200160405190810160405280929190818152602001828054610b3790612046565b8015610b845780601f10610b5957610100808354040283529160200191610b84565b820191906000526020600020905b815481529060010190602001808311610b6757829003601f168201915b505050505081565b60015481565b600080610b9e85610d27565b90506000610bf08286868080601f016020809104026020016040519081016040528093929190818152602001838380828437600081840152601f19601f82011690508083019250505050505050610d51565b9050856000016020810190610c059190611595565b73ffffffffffffffffffffffffffffffffffffffff168173ffffffffffffffffffffffffffffffffffffffff1614610c72576040517f08c379a0000000000000000000000000000000000000000000000000000000008152600401610c69906120f7565b60405180910390fd5b60015443610c809190612077565b86604001351015610cc6576040517f08c379a0000000000000000000000000000000000000000000000000000000008152600401610cbd90612163565b60405180910390fd5b6001925050509392505050565b60606000610ce48360000151610d78565b610cf18460200151610d78565b610cfe8560400151610da5565b604051602001610d119493929190612330565b6040516020818303038152906040529050919050565b6000610d4a610d4583803603810190610d4091906123f8565b610cd3565b610e73565b9050919050565b6000806000610d608585610eae565b91509150610d6d81610eff565b819250505092915050565b6060610d9e8273ffffffffffffffffffffffffffffffffffffffff16601460ff16611065565b9050919050565b606060006001610db4846112a1565b01905060008167ffffffffffffffff811115610dd357610dd2611607565b5b6040519080825280601f01601f191660200182016040528015610e055781602001600182028036833780820191505090505b509050600082602001820190505b600115610e68578080600190039150507f3031323334353637383961626364656600000000000000000000000000000000600a86061a8153600a8581610e5c57610e5b611ab8565b5b04945060008503610e13575b819350505050919050565b6000610e7f8251610da5565b82604051602001610e91929190612471565b604051602081830303815290604052805190602001209050919050565b6000806041835103610eef5760008060006020860151925060408601519150606086015160001a9050610ee3878285856113f4565b94509450505050610ef8565b60006002915091505b9250929050565b60006004811115610f1357610f126124a0565b5b816004811115610f2657610f256124a0565b5b03156110625760016004811115610f4057610f3f6124a0565b5b816004811115610f5357610f526124a0565b5b03610f93576040517f08c379a0000000000000000000000000000000000000000000000000000000008152600401610f8a9061251b565b60405180910390fd5b60026004811115610fa757610fa66124a0565b5b816004811115610fba57610fb96124a0565b5b03610ffa576040517f08c379a0000000000000000000000000000000000000000000000000000000008152600401610ff190612587565b60405180910390fd5b6003600481111561100e5761100d6124a0565b5b816004811115611021576110206124a0565b5b03611061576040517f08c379a000000000000000000000000000000000000000000000000000000000815260040161105890612619565b60405180910390fd5b5b50565b6060600060028360026110789190611a47565b6110829190611b49565b67ffffffffffffffff81111561109b5761109a611607565b5b6040519080825280601f01601f1916602001820160405280156110cd5781602001600182028036833780820191505090505b5090507f30000000000000000000000000000000000000000000000000000000000000008160008151811061110557611104611a89565b5b60200101907effffffffffffffffffffffffffffffffffffffffffffffffffffffffffffff1916908160001a9053507f78000000000000000000000000000000000000000000000000000000000000008160018151811061116957611168611a89565b5b60200101907effffffffffffffffffffffffffffffffffffffffffffffffffffffffffffff1916908160001a905350600060018460026111a99190611a47565b6111b39190611b49565b90505b6001811115611253577f3031323334353637383961626364656600000000000000000000000000000000600f8616601081106111f5576111f4611a89565b5b1a60f81b82828151811061120c5761120b611a89565b5b60200101907effffffffffffffffffffffffffffffffffffffffffffffffffffffffffffff1916908160001a905350600485901c94508061124c90612639565b90506111b6565b5060008414611297576040517f08c379a000000000000000000000000000000000000000000000000000000000815260040161128e906126ae565b60405180910390fd5b8091505092915050565b600080600090507a184f03e93ff9f4daa797ed6e38ed64bf6a1f01000000000000000083106112ff577a184f03e93ff9f4daa797ed6e38ed64bf6a1f01000000000000000083816112f5576112f4611ab8565b5b0492506040810190505b6d04ee2d6d415b85acef8100000000831061133c576d04ee2d6d415b85acef8100000000838161133257611331611ab8565b5b0492506020810190505b662386f26fc10000831061136b57662386f26fc10000838161136157611360611ab8565b5b0492506010810190505b6305f5e1008310611394576305f5e100838161138a57611389611ab8565b5b0492506008810190505b61271083106113b95761271083816113af576113ae611ab8565b5b0492506004810190505b606483106113dc57606483816113d2576113d1611ab8565b5b0492506002810190505b600a83106113eb576001810190505b80915050919050565b6000807f7fffffffffffffffffffffffffffffff5d576e7357a4501ddfe92f46681b20a08360001c111561142f5760006003915091506114cd565b6000600187878787604051600081526020016040526040516114549493929190612703565b6020604051602081039080840390855afa158015611476573d6000803e3d6000fd5b505050602060405103519050600073ffffffffffffffffffffffffffffffffffffffff168173ffffffffffffffffffffffffffffffffffffffff16036114c4576000600192509250506114cd565b80600092509250505b94509492505050565b6040518060600160405280600073ffffffffffffffffffffffffffffffffffffffff168152602001600073ffffffffffffffffffffffffffffffffffffffff168152602001600081525090565b6000604051905090565b600080fd5b600080fd5b600073ffffffffffffffffffffffffffffffffffffffff82169050919050565b600061156282611537565b9050919050565b61157281611557565b811461157d57600080fd5b50565b60008135905061158f81611569565b92915050565b6000602082840312156115ab576115aa61152d565b5b60006115b984828501611580565b91505092915050565b6115cb81611557565b82525050565b60006020820190506115e660008301846115c2565b92915050565b600080fd5b600080fd5b6000601f19601f8301169050919050565b7f4e487b7100000000000000000000000000000000000000000000000000000000600052604160045260246000fd5b61163f826115f6565b810181811067ffffffffffffffff8211171561165e5761165d611607565b5b80604052505050565b6000611671611523565b905061167d8282611636565b919050565b600067ffffffffffffffff82111561169d5761169c611607565b5b6116a6826115f6565b9050602081019050919050565b82818337600083830152505050565b60006116d56116d084611682565b611667565b9050828152602081018484840111156116f1576116f06115f1565b5b6116fc8482856116b3565b509392505050565b600082601f830112611719576117186115ec565b5b81356117298482602086016116c2565b91505092915050565b6000602082840312156117485761174761152d565b5b600082013567ffffffffffffffff81111561176657611765611532565b5b61177284828501611704565b91505092915050565b600081519050919050565b600082825260208201905092915050565b60005b838110156117b557808201518184015260208101905061179a565b60008484015250505050565b60006117cc8261177b565b6117d68185611786565b93506117e6818560208601611797565b6117ef816115f6565b840191505092915050565b6000602082019050818103600083015261181481846117c1565b905092915050565b600080fd5b6000606082840312156118375761183661181c565b5b81905092915050565b600080fd5b600080fd5b60008083601f8401126118605761185f6115ec565b5b8235905067ffffffffffffffff81111561187d5761187c611840565b5b60208301915083600182028301111561189957611898611845565b5b9250929050565b60008060008060a085870312156118ba576118b961152d565b5b60006118c887828801611821565b945050606085013567ffffffffffffffff8111156118e9576118e8611532565b5b6118f58782880161184a565b9350935050608061190887828801611580565b91505092959194509250565b6000806040838503121561192b5761192a61152d565b5b600061193985828601611580565b925050602061194a85828601611580565b9150509250929050565b61195d81611557565b82525050565b6000819050919050565b61197681611963565b82525050565b6060820160008201516119926000850182611954565b5060208201516119a56020850182611954565b5060408201516119b8604085018261196d565b50505050565b60006080820190506119d3600083018561197c565b81810360608301526119e581846117c1565b90509392505050565b6119f781611963565b82525050565b6000602082019050611a1260008301846119ee565b92915050565b7f4e487b7100000000000000000000000000000000000000000000000000000000600052601160045260246000fd5b6000611a5282611963565b9150611a5d83611963565b9250828202611a6b81611963565b91508282048414831517611a8257611a81611a18565b5b5092915050565b7f4e487b7100000000000000000000000000000000000000000000000000000000600052603260045260246000fd5b7f4e487b7100000000000000000000000000000000000000000000000000000000600052601260045260246000fd5b6000611af282611963565b9150611afd83611963565b925082611b0d57611b0c611ab8565b5b828204905092915050565b6000611b2382611963565b9150611b2e83611963565b925082611b3e57611b3d611ab8565b5b828206905092915050565b6000611b5482611963565b9150611b5f83611963565b9250828201905080821115611b7757611b76611a18565b5b92915050565b6000611b8882611963565b91507fffffffffffffffffffffffffffffffffffffffffffffffffffffffffffffffff8203611bba57611bb9611a18565b5b600182019050919050565b600081905092915050565b7f3078000000000000000000000000000000000000000000000000000000000000600082015250565b6000611c06600283611bc5565b9150611c1182611bd0565b600282019050919050565b600081519050919050565b600081905092915050565b6000611c3d82611c1c565b611c478185611c27565b9350611c57818560208601611797565b80840191505092915050565b6000611c6e82611bf9565b9150611c7a8284611c32565b915081905092915050565b7f5361666520616c72656164792065786973747320666f72206f776e6572000000600082015250565b6000611cbb601d83611786565b9150611cc682611c85565b602082019050919050565b60006020820190508181036000830152611cea81611cae565b9050919050565b600081519050919050565b600082825260208201905092915050565b6000819050602082019050919050565b6000611d298383611954565b60208301905092915050565b6000602082019050919050565b6000611d4d82611cf1565b611d578185611cfc565b9350611d6283611d0d565b8060005b83811015611d93578151611d7a8882611d1d565b9750611d8583611d35565b925050600181019050611d66565b5085935050505092915050565b600082825260208201905092915050565b6000611dbc82611c1c565b611dc68185611da0565b9350611dd6818560208601611797565b611ddf816115f6565b840191505092915050565b6000610100820190508181036000830152611e05818b611d42565b9050611e14602083018a6119ee565b611e2160408301896115c2565b8181036060830152611e338188611db1565b9050611e4260808301876115c2565b611e4f60a08301866115c2565b611e5c60c08301856119ee565b611e6960e08301846115c2565b9998505050505050505050565b6000606082019050611e8b60008301866115c2565b8181036020830152611e9d8185611db1565b9050611eac60408301846119ee565b949350505050565b600081519050611ec381611569565b92915050565b600060208284031215611edf57611ede61152d565b5b6000611eed84828501611eb4565b91505092915050565b6000611f056020840184611580565b905092915050565b611f1681611963565b8114611f2157600080fd5b50565b600081359050611f3381611f0d565b92915050565b6000611f486020840184611f24565b905092915050565b60608201611f616000830183611ef6565b611f6e6000850182611954565b50611f7c6020830183611ef6565b611f896020850182611954565b50611f976040830183611f39565b611fa4604085018261196d565b50505050565b6000611fb68385611da0565b9350611fc38385846116b3565b611fcc836115f6565b840190509392505050565b600060a082019050611fec60008301876115c2565b611ff96020830186611f50565b818103608083015261200c818486611faa565b905095945050505050565b7f4e487b7100000000000000000000000000000000000000000000000000000000600052602260045260246000fd5b6000600282049050600182168061205e57607f821691505b60208210810361207157612070612017565b5b50919050565b600061208282611963565b915061208d83611963565b92508282039050818111156120a5576120a4611a18565b5b92915050565b7f696e76616c6964207369676e6174757265000000000000000000000000000000600082015250565b60006120e1601183611786565b91506120ec826120ab565b602082019050919050565b60006020820190508181036000830152612110816120d4565b9050919050565b7f5265717565737420697320746f6f206f6c640000000000000000000000000000600082015250565b600061214d601283611786565b915061215882612117565b602082019050919050565b6000602082019050818103600083015261217c81612140565b9050919050565b60008190508160005260206000209050919050565b600081546121a581612046565b6121af8186611bc5565b945060018216600081146121ca57600181146121df57612212565b60ff1983168652811515820286019350612212565b6121e885612183565b60005b8381101561220a578154818901526001820191506020810190506121eb565b838801955050505b50505092915050565b7f0a0a4d653a200000000000000000000000000000000000000000000000000000600082015250565b6000612251600683611bc5565b915061225c8261221b565b600682019050919050565b60006122728261177b565b61227c8185611bc5565b935061228c818560208601611797565b80840191505092915050565b7f0a4465766963653a200000000000000000000000000000000000000000000000600082015250565b60006122ce600983611bc5565b91506122d982612298565b600982019050919050565b7f0a4973737565642061743a200000000000000000000000000000000000000000600082015250565b600061231a600c83611bc5565b9150612325826122e4565b600c82019050919050565b600061233c8287612198565b915061234782612244565b91506123538286612267565b915061235e826122c1565b915061236a8285612267565b91506123758261230d565b91506123818284612267565b915081905095945050505050565b600080fd5b6000606082840312156123aa576123a961238f565b5b6123b46060611667565b905060006123c484828501611580565b60008301525060206123d884828501611580565b60208301525060406123ec84828501611f24565b60408301525092915050565b60006060828403121561240e5761240d61152d565b5b600061241c84828501612394565b91505092915050565b7f19457468657265756d205369676e6564204d6573736167653a0a000000000000600082015250565b600061245b601a83611bc5565b915061246682612425565b601a82019050919050565b600061247c8261244e565b91506124888285612267565b91506124948284611c32565b91508190509392505050565b7f4e487b7100000000000000000000000000000000000000000000000000000000600052602160045260246000fd5b7f45434453413a20696e76616c6964207369676e61747572650000000000000000600082015250565b6000612505601883611786565b9150612510826124cf565b602082019050919050565b60006020820190508181036000830152612534816124f8565b9050919050565b7f45434453413a20696e76616c6964207369676e6174757265206c656e67746800600082015250565b6000612571601f83611786565b915061257c8261253b565b602082019050919050565b600060208201905081810360008301526125a081612564565b9050919050565b7f45434453413a20696e76616c6964207369676e6174757265202773272076616c60008201527f7565000000000000000000000000000000000000000000000000000000000000602082015250565b6000612603602283611786565b915061260e826125a7565b604082019050919050565b60006020820190508181036000830152612632816125f6565b9050919050565b600061264482611963565b91506000820361265757612656611a18565b5b600182039050919050565b7f537472696e67733a20686578206c656e67746820696e73756666696369656e74600082015250565b6000612698602083611786565b91506126a382612662565b602082019050919050565b600060208201905081810360008301526126c78161268b565b9050919050565b6000819050919050565b6126e1816126ce565b82525050565b600060ff82169050919050565b6126fd816126e7565b82525050565b600060808201905061271860008301876126d8565b61272560208301866126f4565b61273260408301856126d8565b61273f60608301846126d8565b9594505050505056fea264697066735822122096b9fe249c07f0a102074a120a6e28b562bf15c723a2b187e8188de76227326764736f6c634300081300334920617574686f72697a6520746869732064657669636520746f2073656e64207472616e73616374696f6e73206f6e206d7920626568616c662e",
  "linkReferences": {},
  "deployedLinkReferences": {}
}