{"contracts/WalletDeployer.sol":{"WalletDeployer":{"abi":[{"inputs":[{"internalType":"address","name":"gnosisSafeContract","type":"address"},{"internalType":"address","name":"gnosisSafeProxyFactory","type":"address"},{"internalType":"address","name":"defaultFallbackHandler","type":"address"},{"internalType":"address","name":"setupHandler","type":"address"}],"stateMutability":"nonpayable","type":"constructor"},{"inputs":[],"name":"CHAIN_ID","outputs":[{"internalType":"string","name":"","type":"string"}],"stateMutability":"view","type":"function"},{"inputs":[],"name":"STATEMENT","outputs":[{"internalType":"string","name":"","type":"string"}],"stateMutability":"view","type":"function"},{"inputs":[{"components":[{"internalType":"address","name":"owner","type":"address"},{"internalType":"address","name":"device","type":"address"},{"internalType":"uint256","name":"issuedAt","type":"uint256"}],"internalType":"struct TokenAuthenticated.TokenRequest","name":"request","type":"tuple"},{"internalType":"bytes","name":"signature","type":"bytes"}],"name":"createSafe","outputs":[],"stateMutability":"nonpayable","type":"function"},{"inputs":[{"internalType":"address","name":"owner","type":"address"},{"internalType":"address","name":"device","type":"address"}],"name":"createTokenRequest","outputs":[{"components":[{"internalType":"address","name":"owner","type":"address"},{"internalType":"address","name":"device","type":"address"},{"internalType":"uint256","name":"issuedAt","type":"uint256"}],"internalType":"struct TokenAuthenticated.TokenRequest","name":"request","type":"tuple"},{"internalType":"string","name":"","type":"string"}],"stateMutability":"view","type":"function"},{"inputs":[],"name":"lengthOfToken","outputs":[{"internalType":"uint256","name":"","type":"uint256"}],"stateMutability":"view","type":"function"},{"inputs":[{"internalType":"address","name":"","type":"address"}],"name":"ownerToSafe","outputs":[{"internalType":"address","name":"","type":"address"}],"stateMutability":"view","type":"function"},{"inputs":[{"internalType":"address","name":"","type":"address"}],"name":"safeToOwner","outputs":[{"internalType":"address","name":"","type":"address"}],"stateMutability":"view","type":"function"}],"devdoc":{"details":"A contract that allows a user to create a Gnosis Safe wallet by signing an English message.      It sets up a a safe by calling the SafeStetup.sol contract which adds the correct modules and the TokenRequest      device and owner as owners to the safe. ","kind":"dev","methods":{"createSafe((address,address,uint256),bytes)":{"details":"Creates a Gnosis Safe wallet using the provided WalletCreateRequest and signature.","params":{"request":"The WalletCreateRequest struct containing the owner address, first device address, and issuedAt block number.","signature":"The signature signed by the owner to verify ownership."}}},"title":"WalletDeployer","version":1},"evm":{"bytecode":{"linkReferences":{},"object":"610100604052600f6001553480156200001757600080fd5b5060405162002c2b38038062002c2b83398181016040528101906200003d91906200041b565b6040518060600160405280603a815260200162002bf1603a9139806000908162000068919062000707565b50506200007b466200016660201b60201c565b600290816200008b919062000707565b508373ffffffffffffffffffffffffffffffffffffffff1660808173ffffffffffffffffffffffffffffffffffffffff16815250508273ffffffffffffffffffffffffffffffffffffffff1660a08173ffffffffffffffffffffffffffffffffffffffff16815250508173ffffffffffffffffffffffffffffffffffffffff1660c08173ffffffffffffffffffffffffffffffffffffffff16815250508073ffffffffffffffffffffffffffffffffffffffff1660e08173ffffffffffffffffffffffffffffffffffffffff1681525050505050506200081d565b6060600060016200017d846200024560201b60201c565b01905060008167ffffffffffffffff8111156200019f576200019e62000498565b5b6040519080825280601f01601f191660200182016040528015620001d25781602001600182028036833780820191505090505b509050600082602001820190505b6001156200023a578080600190039150507f3031323334353637383961626364656600000000000000000000000000000000600a86061a8153600a85816200022d576200022c620007ee565b5b04945060008503620001e0575b819350505050919050565b600080600090507a184f03e93ff9f4daa797ed6e38ed64bf6a1f0100000000000000008310620002a7577a184f03e93ff9f4daa797ed6e38ed64bf6a1f01000000000000000083816200029d576200029c620007ee565b5b0492506040810190505b6d04ee2d6d415b85acef81000000008310620002e8576d04ee2d6d415b85acef81000000008381620002de57620002dd620007ee565b5b0492506020810190505b662386f26fc1000083106200031b57662386f26fc100008381620003115762000310620007ee565b5b0492506010810190505b6305f5e100831062000348576305f5e10083816200033e576200033d620007ee565b5b0492506008810190505b612710831062000371576127108381620003675762000366620007ee565b5b0492506004810190505b606483106200039857606483816200038e576200038d620007ee565b5b0492506002810190505b600a8310620003a8576001810190505b80915050919050565b600080fd5b600073ffffffffffffffffffffffffffffffffffffffff82169050919050565b6000620003e382620003b6565b9050919050565b620003f581620003d6565b81146200040157600080fd5b50565b6000815190506200041581620003ea565b92915050565b60008060008060808587031215620004385762000437620003b1565b5b6000620004488782880162000404565b94505060206200045b8782880162000404565b93505060406200046e8782880162000404565b9250506060620004818782880162000404565b91505092959194509250565b600081519050919050565b7f4e487b7100000000000000000000000000000000000000000000000000000000600052604160045260246000fd5b7f4e487b7100000000000000000000000000000000000000000000000000000000600052602260045260246000fd5b600060028204905060018216806200050f57607f821691505b602082108103620005255762000524620004c7565b5b50919050565b60008190508160005260206000209050919050565b60006020601f8301049050919050565b600082821b905092915050565b6000600883026200058f7fffffffffffffffffffffffffffffffffffffffffffffffffffffffffffffffff8262000550565b6200059b868362000550565b95508019841693508086168417925050509392505050565b6000819050919050565b6000819050919050565b6000620005e8620005e2620005dc84620005b3565b620005bd565b620005b3565b9050919050565b6000819050919050565b6200060483620005c7565b6200061c6200061382620005ef565b8484546200055d565b825550505050565b600090565b6200063362000624565b62000640818484620005f9565b505050565b5b8181101562000668576200065c60008262000629565b60018101905062000646565b5050565b601f821115620006b75762000681816200052b565b6200068c8462000540565b810160208510156200069c578190505b620006b4620006ab8562000540565b83018262000645565b50505b505050565b600082821c905092915050565b6000620006dc60001984600802620006bc565b1980831691505092915050565b6000620006f78383620006c9565b9150826002028217905092915050565b62000712826200048d565b67ffffffffffffffff8111156200072e576200072d62000498565b5b6200073a8254620004f6565b620007478282856200066c565b600060209050601f8311600181146200077f57600084156200076a578287015190505b620007768582620006e9565b865550620007e6565b601f1984166200078f866200052b565b60005b82811015620007b95784890151825560018201915060208501945060208101905062000792565b86831015620007d95784890151620007d5601f891682620006c9565b8355505b6001600288020188555050505b505050505050565b7f4e487b7100000000000000000000000000000000000000000000000000000000600052601260045260246000fd5b60805160a05160c05160e05161239a6200085760003960006103b5015260006104590152600061051901526000610555015261239a6000f3fe608060405234801561001057600080fd5b506004361061007d5760003560e01c806385e1f4d01161005b57806385e1f4d0146100fe578063b6ad16a81461011c578063bebc479c1461014d578063cb2e60431461016b5761007d565b806306634e881461008257806324f669b4146100b25780635e619a4a146100ce575b600080fd5b61009c6004803603810190610097919061141c565b610189565b6040516100a99190611458565b60405180910390f35b6100cc60048036038101906100c791906114fc565b6101bc565b005b6100e860048036038101906100e3919061141c565b610850565b6040516100f59190611458565b60405180910390f35b610106610883565b60405161011391906115ec565b60405180910390f35b6101366004803603810190610131919061160e565b610911565b6040516101449291906116b8565b60405180910390f35b610155610985565b60405161016291906115ec565b60405180910390f35b610173610a13565b60405161018091906116f7565b60405180910390f35b60046020528060005260406000206000915054906101000a900473ffffffffffffffffffffffffffffffffffffffff1681565b600073ffffffffffffffffffffffffffffffffffffffff16600360008560000160208101906101eb919061141c565b73ffffffffffffffffffffffffffffffffffffffff1673ffffffffffffffffffffffffffffffffffffffff16815260200190815260200160002060009054906101000a900473ffffffffffffffffffffffffffffffffffffffff1673ffffffffffffffffffffffffffffffffffffffff161461029c576040517f08c379a00000000000000000000000000000000000000000000000000000000081526004016102939061175e565b60405180910390fd5b6102a7838383610a19565b6102b057600080fd5b6000600267ffffffffffffffff8111156102cd576102cc61177e565b5b6040519080825280602002602001820160405280156102fb5781602001602082028036833780820191505090505b509050836000016020810190610311919061141c565b81600081518110610325576103246117ad565b5b602002602001019073ffffffffffffffffffffffffffffffffffffffff16908173ffffffffffffffffffffffffffffffffffffffff16815250503081600181518110610374576103736117ad565b5b602002602001019073ffffffffffffffffffffffffffffffffffffffff16908173ffffffffffffffffffffffffffffffffffffffff168152505060008160017f00000000000000000000000000000000000000000000000000000000000000006040516024016040516020818303038152906040527fba0bba40000000000000000000000000000000000000000000000000000000007bffffffffffffffffffffffffffffffffffffffffffffffffffffffff19166020820180517bffffffffffffffffffffffffffffffffffffffffffffffffffffffff83818316178352505050507f0000000000000000000000000000000000000000000000000000000000000000600080600080604051602401610496999897969594939291906118e0565b6040516020818303038152906040527fb63e800d000000000000000000000000000000000000000000000000000000007bffffffffffffffffffffffffffffffffffffffffffffffffffffffff19166020820180517bffffffffffffffffffffffffffffffffffffffffffffffffffffffff8381831617835250505050905060007f000000000000000000000000000000000000000000000000000000000000000073ffffffffffffffffffffffffffffffffffffffff16631688f0b97f000000000000000000000000000000000000000000000000000000000000000084466040518463ffffffff1660e01b81526004016105949392919061197b565b6020604051808303816000875af11580156105b3573d6000803e3d6000fd5b505050506040513d601f19601f820116820180604052508101906105d791906119ce565b90506000819050600073ffffffffffffffffffffffffffffffffffffffff16876020016020810190610609919061141c565b73ffffffffffffffffffffffffffffffffffffffff16146106a5578073ffffffffffffffffffffffffffffffffffffffff16630d582f13886020016020810190610653919061141c565b60016040518363ffffffff1660e01b8152600401610672929190611a40565b600060405180830381600087803b15801561068c57600080fd5b505af11580156106a0573d6000803e3d6000fd5b505050505b8073ffffffffffffffffffffffffffffffffffffffff1663f8dc5dd98860000160208101906106d4919061141c565b3060016040518463ffffffff1660e01b81526004016106f593929190611a69565b600060405180830381600087803b15801561070f57600080fd5b505af1158015610723573d6000803e3d6000fd5b50505050816003600089600001602081019061073f919061141c565b73ffffffffffffffffffffffffffffffffffffffff1673ffffffffffffffffffffffffffffffffffffffff16815260200190815260200160002060006101000a81548173ffffffffffffffffffffffffffffffffffffffff021916908373ffffffffffffffffffffffffffffffffffffffff1602179055508660000160208101906107ca919061141c565b600460008473ffffffffffffffffffffffffffffffffffffffff1673ffffffffffffffffffffffffffffffffffffffff16815260200190815260200160002060006101000a81548173ffffffffffffffffffffffffffffffffffffffff021916908373ffffffffffffffffffffffffffffffffffffffff16021790555050505050505050565b60036020528060005260406000206000915054906101000a900473ffffffffffffffffffffffffffffffffffffffff1681565b6002805461089090611acf565b80601f01602080910402602001604051908101604052809291908181526020018280546108bc90611acf565b80156109095780601f106108de57610100808354040283529160200191610909565b820191906000526020600020905b8154815290600101906020018083116108ec57829003601f168201915b505050505081565b61091961135d565b606060405180606001604052808573ffffffffffffffffffffffffffffffffffffffff1681526020018473ffffffffffffffffffffffffffffffffffffffff16815260200160014361096b9190611b2f565b81525091508161097a83610b5a565b915091509250929050565b6000805461099290611acf565b80601f01602080910402602001604051908101604052809291908181526020018280546109be90611acf565b8015610a0b5780601f106109e057610100808354040283529160200191610a0b565b820191906000526020600020905b8154815290600101906020018083116109ee57829003601f168201915b505050505081565b60015481565b600080610a2585610bae565b90506000610a778286868080601f016020809104026020016040519081016040528093929190818152602001838380828437600081840152601f19601f82011690508083019250505050505050610bd8565b9050856000016020810190610a8c919061141c565b73ffffffffffffffffffffffffffffffffffffffff168173ffffffffffffffffffffffffffffffffffffffff1614610af9576040517f08c379a0000000000000000000000000000000000000000000000000000000008152600401610af090611baf565b60405180910390fd5b60015443610b079190611b2f565b86604001351015610b4d576040517f08c379a0000000000000000000000000000000000000000000000000000000008152600401610b4490611c1b565b60405180910390fd5b6001925050509392505050565b60606000610b6b8360000151610bff565b610b788460200151610bff565b610b858560400151610c2c565b604051602001610b989493929190611df3565b6040516020818303038152906040529050919050565b6000610bd1610bcc83803603810190610bc79190611f33565b610b5a565b610cfa565b9050919050565b6000806000610be78585610d35565b91509150610bf481610d86565b819250505092915050565b6060610c258273ffffffffffffffffffffffffffffffffffffffff16601460ff16610eec565b9050919050565b606060006001610c3b84611128565b01905060008167ffffffffffffffff811115610c5a57610c5961177e565b5b6040519080825280601f01601f191660200182016040528015610c8c5781602001600182028036833780820191505090505b509050600082602001820190505b600115610cef578080600190039150507f3031323334353637383961626364656600000000000000000000000000000000600a86061a8153600a8581610ce357610ce2611f60565b5b04945060008503610c9a575b819350505050919050565b6000610d068251610c2c565b82604051602001610d18929190612017565b604051602081830303815290604052805190602001209050919050565b6000806041835103610d765760008060006020860151925060408601519150606086015160001a9050610d6a8782858561127b565b94509450505050610d7f565b60006002915091505b9250929050565b60006004811115610d9a57610d99612046565b5b816004811115610dad57610dac612046565b5b0315610ee95760016004811115610dc757610dc6612046565b5b816004811115610dda57610dd9612046565b5b03610e1a576040517f08c379a0000000000000000000000000000000000000000000000000000000008152600401610e11906120c1565b60405180910390fd5b60026004811115610e2e57610e2d612046565b5b816004811115610e4157610e40612046565b5b03610e81576040517f08c379a0000000000000000000000000000000000000000000000000000000008152600401610e789061212d565b60405180910390fd5b60036004811115610e9557610e94612046565b5b816004811115610ea857610ea7612046565b5b03610ee8576040517f08c379a0000000000000000000000000000000000000000000000000000000008152600401610edf906121bf565b60405180910390fd5b5b50565b606060006002836002610eff91906121df565b610f099190612221565b67ffffffffffffffff811115610f2257610f2161177e565b5b6040519080825280601f01601f191660200182016040528015610f545781602001600182028036833780820191505090505b5090507f300000000000000000000000000000000000000000000000000000000000000081600081518110610f8c57610f8b6117ad565b5b60200101907effffffffffffffffffffffffffffffffffffffffffffffffffffffffffffff1916908160001a9053507f780000000000000000000000000000000000000000000000000000000000000081600181518110610ff057610fef6117ad565b5b60200101907effffffffffffffffffffffffffffffffffffffffffffffffffffffffffffff1916908160001a9053506000600184600261103091906121df565b61103a9190612221565b90505b60018111156110da577f3031323334353637383961626364656600000000000000000000000000000000600f86166010811061107c5761107b6117ad565b5b1a60f81b828281518110611093576110926117ad565b5b60200101907effffffffffffffffffffffffffffffffffffffffffffffffffffffffffffff1916908160001a905350600485901c9450806110d390612255565b905061103d565b506000841461111e576040517f08c379a0000000000000000000000000000000000000000000000000000000008152600401611115906122ca565b60405180910390fd5b8091505092915050565b600080600090507a184f03e93ff9f4daa797ed6e38ed64bf6a1f0100000000000000008310611186577a184f03e93ff9f4daa797ed6e38ed64bf6a1f010000000000000000838161117c5761117b611f60565b5b0492506040810190505b6d04ee2d6d415b85acef810000000083106111c3576d04ee2d6d415b85acef810000000083816111b9576111b8611f60565b5b0492506020810190505b662386f26fc1000083106111f257662386f26fc1000083816111e8576111e7611f60565b5b0492506010810190505b6305f5e100831061121b576305f5e100838161121157611210611f60565b5b0492506008810190505b612710831061124057612710838161123657611235611f60565b5b0492506004810190505b60648310611263576064838161125957611258611f60565b5b0492506002810190505b600a8310611272576001810190505b80915050919050565b6000807f7fffffffffffffffffffffffffffffff5d576e7357a4501ddfe92f46681b20a08360001c11156112b6576000600391509150611354565b6000600187878787604051600081526020016040526040516112db949392919061231f565b6020604051602081039080840390855afa1580156112fd573d6000803e3d6000fd5b505050602060405103519050600073ffffffffffffffffffffffffffffffffffffffff168173ffffffffffffffffffffffffffffffffffffffff160361134b57600060019250925050611354565b80600092509250505b94509492505050565b6040518060600160405280600073ffffffffffffffffffffffffffffffffffffffff168152602001600073ffffffffffffffffffffffffffffffffffffffff168152602001600081525090565b6000604051905090565b600080fd5b600080fd5b600073ffffffffffffffffffffffffffffffffffffffff82169050919050565b60006113e9826113be565b9050919050565b6113f9816113de565b811461140457600080fd5b50565b600081359050611416816113f0565b92915050565b600060208284031215611432576114316113b4565b5b600061144084828501611407565b91505092915050565b611452816113de565b82525050565b600060208201905061146d6000830184611449565b92915050565b600080fd5b60006060828403121561148e5761148d611473565b5b81905092915050565b600080fd5b600080fd5b600080fd5b60008083601f8401126114bc576114bb611497565b5b8235905067ffffffffffffffff8111156114d9576114d861149c565b5b6020830191508360018202830111156114f5576114f46114a1565b5b9250929050565b600080600060808486031215611515576115146113b4565b5b600061152386828701611478565b935050606084013567ffffffffffffffff811115611544576115436113b9565b5b611550868287016114a6565b92509250509250925092565b600081519050919050565b600082825260208201905092915050565b60005b8381101561159657808201518184015260208101905061157b565b60008484015250505050565b6000601f19601f8301169050919050565b60006115be8261155c565b6115c88185611567565b93506115d8818560208601611578565b6115e1816115a2565b840191505092915050565b6000602082019050818103600083015261160681846115b3565b905092915050565b60008060408385031215611625576116246113b4565b5b600061163385828601611407565b925050602061164485828601611407565b9150509250929050565b611657816113de565b82525050565b6000819050919050565b6116708161165d565b82525050565b60608201600082015161168c600085018261164e565b50602082015161169f602085018261164e565b5060408201516116b26040850182611667565b50505050565b60006080820190506116cd6000830185611676565b81810360608301526116df81846115b3565b90509392505050565b6116f18161165d565b82525050565b600060208201905061170c60008301846116e8565b92915050565b7f5361666520616c72656164792065786973747320666f72206f776e6572000000600082015250565b6000611748601d83611567565b915061175382611712565b602082019050919050565b600060208201905081810360008301526117778161173b565b9050919050565b7f4e487b7100000000000000000000000000000000000000000000000000000000600052604160045260246000fd5b7f4e487b7100000000000000000000000000000000000000000000000000000000600052603260045260246000fd5b600081519050919050565b600082825260208201905092915050565b6000819050602082019050919050565b6000611814838361164e565b60208301905092915050565b6000602082019050919050565b6000611838826117dc565b61184281856117e7565b935061184d836117f8565b8060005b8381101561187e5781516118658882611808565b975061187083611820565b925050600181019050611851565b5085935050505092915050565b600081519050919050565b600082825260208201905092915050565b60006118b28261188b565b6118bc8185611896565b93506118cc818560208601611578565b6118d5816115a2565b840191505092915050565b60006101208201905081810360008301526118fb818c61182d565b905061190a602083018b6116e8565b611917604083018a611449565b818103606083015261192981896118a7565b90506119386080830188611449565b61194560a0830187611449565b61195260c0830186611449565b61195f60e08301856116e8565b61196d610100830184611449565b9a9950505050505050505050565b60006060820190506119906000830186611449565b81810360208301526119a281856118a7565b90506119b160408301846116e8565b949350505050565b6000815190506119c8816113f0565b92915050565b6000602082840312156119e4576119e36113b4565b5b60006119f2848285016119b9565b91505092915050565b6000819050919050565b6000819050919050565b6000611a2a611a25611a20846119fb565b611a05565b61165d565b9050919050565b611a3a81611a0f565b82525050565b6000604082019050611a556000830185611449565b611a626020830184611a31565b9392505050565b6000606082019050611a7e6000830186611449565b611a8b6020830185611449565b611a986040830184611a31565b949350505050565b7f4e487b7100000000000000000000000000000000000000000000000000000000600052602260045260246000fd5b60006002820490506001821680611ae757607f821691505b602082108103611afa57611af9611aa0565b5b50919050565b7f4e487b7100000000000000000000000000000000000000000000000000000000600052601160045260246000fd5b6000611b3a8261165d565b9150611b458361165d565b9250828203905081811115611b5d57611b5c611b00565b5b92915050565b7f696e76616c6964207369676e6174757265000000000000000000000000000000600082015250565b6000611b99601183611567565b9150611ba482611b63565b602082019050919050565b60006020820190508181036000830152611bc881611b8c565b9050919050565b7f5265717565737420697320746f6f206f6c640000000000000000000000000000600082015250565b6000611c05601283611567565b9150611c1082611bcf565b602082019050919050565b60006020820190508181036000830152611c3481611bf8565b9050919050565b600081905092915050565b60008190508160005260206000209050919050565b60008154611c6881611acf565b611c728186611c3b565b94506001821660008114611c8d5760018114611ca257611cd5565b60ff1983168652811515820286019350611cd5565b611cab85611c46565b60005b83811015611ccd57815481890152600182019150602081019050611cae565b838801955050505b50505092915050565b7f0a0a4d653a200000000000000000000000000000000000000000000000000000600082015250565b6000611d14600683611c3b565b9150611d1f82611cde565b600682019050919050565b6000611d358261155c565b611d3f8185611c3b565b9350611d4f818560208601611578565b80840191505092915050565b7f0a4465766963653a200000000000000000000000000000000000000000000000600082015250565b6000611d91600983611c3b565b9150611d9c82611d5b565b600982019050919050565b7f0a4973737565642061743a200000000000000000000000000000000000000000600082015250565b6000611ddd600c83611c3b565b9150611de882611da7565b600c82019050919050565b6000611dff8287611c5b565b9150611e0a82611d07565b9150611e168286611d2a565b9150611e2182611d84565b9150611e2d8285611d2a565b9150611e3882611dd0565b9150611e448284611d2a565b915081905095945050505050565b600080fd5b611e60826115a2565b810181811067ffffffffffffffff82111715611e7f57611e7e61177e565b5b80604052505050565b6000611e926113aa565b9050611e9e8282611e57565b919050565b611eac8161165d565b8114611eb757600080fd5b50565b600081359050611ec981611ea3565b92915050565b600060608284031215611ee557611ee4611e52565b5b611eef6060611e88565b90506000611eff84828501611407565b6000830152506020611f1384828501611407565b6020830152506040611f2784828501611eba565b60408301525092915050565b600060608284031215611f4957611f486113b4565b5b6000611f5784828501611ecf565b91505092915050565b7f4e487b7100000000000000000000000000000000000000000000000000000000600052601260045260246000fd5b7f19457468657265756d205369676e6564204d6573736167653a0a000000000000600082015250565b6000611fc5601a83611c3b565b9150611fd082611f8f565b601a82019050919050565b600081905092915050565b6000611ff18261188b565b611ffb8185611fdb565b935061200b818560208601611578565b80840191505092915050565b600061202282611fb8565b915061202e8285611d2a565b915061203a8284611fe6565b91508190509392505050565b7f4e487b7100000000000000000000000000000000000000000000000000000000600052602160045260246000fd5b7f45434453413a20696e76616c6964207369676e61747572650000000000000000600082015250565b60006120ab601883611567565b91506120b682612075565b602082019050919050565b600060208201905081810360008301526120da8161209e565b9050919050565b7f45434453413a20696e76616c6964207369676e6174757265206c656e67746800600082015250565b6000612117601f83611567565b9150612122826120e1565b602082019050919050565b600060208201905081810360008301526121468161210a565b9050919050565b7f45434453413a20696e76616c6964207369676e6174757265202773272076616c60008201527f7565000000000000000000000000000000000000000000000000000000000000602082015250565b60006121a9602283611567565b91506121b48261214d565b604082019050919050565b600060208201905081810360008301526121d88161219c565b9050919050565b60006121ea8261165d565b91506121f58361165d565b92508282026122038161165d565b9150828204841483151761221a57612219611b00565b5b5092915050565b600061222c8261165d565b91506122378361165d565b925082820190508082111561224f5761224e611b00565b5b92915050565b60006122608261165d565b91506000820361227357612272611b00565b5b600182039050919050565b7f537472696e67733a20686578206c656e67746820696e73756666696369656e74600082015250565b60006122b4602083611567565b91506122bf8261227e565b602082019050919050565b600060208201905081810360008301526122e3816122a7565b9050919050565b6000819050919050565b6122fd816122ea565b82525050565b600060ff82169050919050565b61231981612303565b82525050565b600060808201905061233460008301876122f4565b6123416020830186612310565b61234e60408301856122f4565b61235b60608301846122f4565b9594505050505056fea264697066735822122044b72c76328d30b78976e07862de2a9fc48dee5dd67cd8fec43363775426c19264736f6c634300081300334920617574686f72697a6520746869732064657669636520746f2073656e64207472616e73616374696f6e73206f6e206d7920626568616c662e","opcodes":"PUSH2 0x100 PUSH1 0x40 MSTORE PUSH1 0xF PUSH1 0x1 SSTORE CALLVALUE DUP1 ISZERO PUSH3 0x17 JUMPI PUSH1 0x0 DUP1 REVERT JUMPDEST POP PUSH1 0x40 MLOAD PUSH3 0x2C2B CODESIZE SUB DUP1 PUSH3 0x2C2B DUP4 CODECOPY DUP2 DUP2 ADD PUSH1 0x40 MSTORE DUP2 ADD SWAP1 PUSH3 0x3D SWAP2 SWAP1 PUSH3 0x41B JUMP JUMPDEST PUSH1 0x40 MLOAD DUP1 PUSH1 0x60 ADD PUSH1 0x40 MSTORE DUP1 PUSH1 0x3A DUP2 MSTORE PUSH1 0x20 ADD PUSH3 0x2BF1 PUSH1 0x3A SWAP2 CODECOPY DUP1 PUSH1 0x0 SWAP1 DUP2 PUSH3 0x68 SWAP2 SWAP1 PUSH3 0x707 JUMP JUMPDEST POP POP PUSH3 0x7B CHAINID PUSH3 0x166 PUSH1 0x20 SHL PUSH1 0x20 SHR JUMP JUMPDEST PUSH1 0x2 SWAP1 DUP2 PUSH3 0x8B SWAP2 SWAP1 PUSH3 0x707 JUMP JUMPDEST POP DUP4 PUSH20 0xFFFFFFFFFFFFFFFFFFFFFFFFFFFFFFFFFFFFFFFF AND PUSH1 0x80 DUP2 PUSH20 0xFFFFFFFFFFFFFFFFFFFFFFFFFFFFFFFFFFFFFFFF AND DUP2 MSTORE POP POP DUP3 PUSH20 0xFFFFFFFFFFFFFFFFFFFFFFFFFFFFFFFFFFFFFFFF AND PUSH1 0xA0 DUP2 PUSH20 0xFFFFFFFFFFFFFFFFFFFFFFFFFFFFFFFFFFFFFFFF AND DUP2 MSTORE POP POP DUP2 PUSH20 0xFFFFFFFFFFFFFFFFFFFFFFFFFFFFFFFFFFFFFFFF AND PUSH1 0xC0 DUP2 PUSH20 0xFFFFFFFFFFFFFFFFFFFFFFFFFFFFFFFFFFFFFFFF AND DUP2 MSTORE POP POP DUP1 PUSH20 0xFFFFFFFFFFFFFFFFFFFFFFFFFFFFFFFFFFFFFFFF AND PUSH1 0xE0 DUP2 PUSH20 0xFFFFFFFFFFFFFFFFFFFFFFFFFFFFFFFFFFFFFFFF AND DUP2 MSTORE POP POP POP POP POP POP PUSH3 0x81D JUMP JUMPDEST PUSH1 0x60 PUSH1 0x0 PUSH1 0x1 PUSH3 0x17D DUP5 PUSH3 0x245 PUSH1 0x20 SHL PUSH1 0x20 SHR JUMP JUMPDEST ADD SWAP1 POP PUSH1 0x0 DUP2 PUSH8 0xFFFFFFFFFFFFFFFF DUP2 GT ISZERO PUSH3 0x19F JUMPI PUSH3 0x19E PUSH3 0x498 JUMP JUMPDEST JUMPDEST PUSH1 0x40 MLOAD SWAP1 DUP1 DUP3 MSTORE DUP1 PUSH1 0x1F ADD PUSH1 0x1F NOT AND PUSH1 0x20 ADD DUP3 ADD PUSH1 0x40 MSTORE DUP1 ISZERO PUSH3 0x1D2 JUMPI DUP2 PUSH1 0x20 ADD PUSH1 0x1 DUP3 MUL DUP1 CALLDATASIZE DUP4 CALLDATACOPY DUP1 DUP3 ADD SWAP2 POP POP SWAP1 POP JUMPDEST POP SWAP1 POP PUSH1 0x0 DUP3 PUSH1 0x20 ADD DUP3 ADD SWAP1 POP JUMPDEST PUSH1 0x1 ISZERO PUSH3 0x23A JUMPI DUP1 DUP1 PUSH1 0x1 SWAP1 SUB SWAP2 POP POP PUSH32 0x3031323334353637383961626364656600000000000000000000000000000000 PUSH1 0xA DUP7 MOD BYTE DUP2 MSTORE8 PUSH1 0xA DUP6 DUP2 PUSH3 0x22D JUMPI PUSH3 0x22C PUSH3 0x7EE JUMP JUMPDEST JUMPDEST DIV SWAP5 POP PUSH1 0x0 DUP6 SUB PUSH3 0x1E0 JUMPI JUMPDEST DUP2 SWAP4 POP POP POP POP SWAP2 SWAP1 POP JUMP JUMPDEST PUSH1 0x0 DUP1 PUSH1 0x0 SWAP1 POP PUSH27 0x184F03E93FF9F4DAA797ED6E38ED64BF6A1F010000000000000000 DUP4 LT PUSH3 0x2A7 JUMPI PUSH27 0x184F03E93FF9F4DAA797ED6E38ED64BF6A1F010000000000000000 DUP4 DUP2 PUSH3 0x29D JUMPI PUSH3 0x29C PUSH3 0x7EE JUMP JUMPDEST JUMPDEST DIV SWAP3 POP PUSH1 0x40 DUP2 ADD SWAP1 POP JUMPDEST PUSH14 0x4EE2D6D415B85ACEF8100000000 DUP4 LT PUSH3 0x2E8 JUMPI PUSH14 0x4EE2D6D415B85ACEF8100000000 DUP4 DUP2 PUSH3 0x2DE JUMPI PUSH3 0x2DD PUSH3 0x7EE JUMP JUMPDEST JUMPDEST DIV SWAP3 POP PUSH1 0x20 DUP2 ADD SWAP1 POP JUMPDEST PUSH7 0x2386F26FC10000 DUP4 LT PUSH3 0x31B JUMPI PUSH7 0x2386F26FC10000 DUP4 DUP2 PUSH3 0x311 JUMPI PUSH3 0x310 PUSH3 0x7EE JUMP JUMPDEST JUMPDEST DIV SWAP3 POP PUSH1 0x10 DUP2 ADD SWAP1 POP JUMPDEST PUSH4 0x5F5E100 DUP4 LT PUSH3 0x348 JUMPI PUSH4 0x5F5E100 DUP4 DUP2 PUSH3 0x33E JUMPI PUSH3 0x33D PUSH3 0x7EE JUMP JUMPDEST JUMPDEST DIV SWAP3 POP PUSH1 0x8 DUP2 ADD SWAP1 POP JUMPDEST PUSH2 0x2710 DUP4 LT PUSH3 0x371 JUMPI PUSH2 0x2710 DUP4 DUP2 PUSH3 0x367 JUMPI PUSH3 0x366 PUSH3 0x7EE JUMP JUMPDEST JUMPDEST DIV SWAP3 POP PUSH1 0x4 DUP2 ADD SWAP1 POP JUMPDEST PUSH1 0x64 DUP4 LT PUSH3 0x398 JUMPI PUSH1 0x64 DUP4 DUP2 PUSH3 0x38E JUMPI PUSH3 0x38D PUSH3 0x7EE JUMP JUMPDEST JUMPDEST DIV SWAP3 POP PUSH1 0x2 DUP2 ADD SWAP1 POP JUMPDEST PUSH1 0xA DUP4 LT PUSH3 0x3A8 JUMPI PUSH1 0x1 DUP2 ADD SWAP1 POP JUMPDEST DUP1 SWAP2 POP POP SWAP2 SWAP1 POP JUMP JUMPDEST PUSH1 0x0 DUP1 REVERT JUMPDEST PUSH1 0x0 PUSH20 0xFFFFFFFFFFFFFFFFFFFFFFFFFFFFFFFFFFFFFFFF DUP3 AND SWAP1 POP SWAP2 SWAP1 POP JUMP JUMPDEST PUSH1 0x0 PUSH3 0x3E3 DUP3 PUSH3 0x3B6 JUMP JUMPDEST SWAP1 POP SWAP2 SWAP1 POP JUMP JUMPDEST PUSH3 0x3F5 DUP2 PUSH3 0x3D6 JUMP JUMPDEST DUP2 EQ PUSH3 0x401 JUMPI PUSH1 0x0 DUP1 REVERT JUMPDEST POP JUMP JUMPDEST PUSH1 0x0 DUP2 MLOAD SWAP1 POP PUSH3 0x415 DUP2 PUSH3 0x3EA JUMP JUMPDEST SWAP3 SWAP2 POP POP JUMP JUMPDEST PUSH1 0x0 DUP1 PUSH1 0x0 DUP1 PUSH1 0x80 DUP6 DUP8 SUB SLT ISZERO PUSH3 0x438 JUMPI PUSH3 0x437 PUSH3 0x3B1 JUMP JUMPDEST JUMPDEST PUSH1 0x0 PUSH3 0x448 DUP8 DUP3 DUP9 ADD PUSH3 0x404 JUMP JUMPDEST SWAP5 POP POP PUSH1 0x20 PUSH3 0x45B DUP8 DUP3 DUP9 ADD PUSH3 0x404 JUMP JUMPDEST SWAP4 POP POP PUSH1 0x40 PUSH3 0x46E DUP8 DUP3 DUP9 ADD PUSH3 0x404 JUMP JUMPDEST SWAP3 POP POP PUSH1 0x60 PUSH3 0x481 DUP8 DUP3 DUP9 ADD PUSH3 0x404 JUMP JUMPDEST SWAP2 POP POP SWAP3 SWAP6 SWAP2 SWAP5 POP SWAP3 POP JUMP JUMPDEST PUSH1 0x0 DUP2 MLOAD SWAP1 POP SWAP2 SWAP1 POP JUMP JUMPDEST PUSH32 0x4E487B7100000000000000000000000000000000000000000000000000000000 PUSH1 0x0 MSTORE PUSH1 0x41 PUSH1 0x4 MSTORE PUSH1 0x24 PUSH1 0x0 REVERT JUMPDEST PUSH32 0x4E487B7100000000000000000000000000000000000000000000000000000000 PUSH1 0x0 MSTORE PUSH1 0x22 PUSH1 0x4 MSTORE PUSH1 0x24 PUSH1 0x0 REVERT JUMPDEST PUSH1 0x0 PUSH1 0x2 DUP3 DIV SWAP1 POP PUSH1 0x1 DUP3 AND DUP1 PUSH3 0x50F JUMPI PUSH1 0x7F DUP3 AND SWAP2 POP JUMPDEST PUSH1 0x20 DUP3 LT DUP2 SUB PUSH3 0x525 JUMPI PUSH3 0x524 PUSH3 0x4C7 JUMP JUMPDEST JUMPDEST POP SWAP2 SWAP1 POP JUMP JUMPDEST PUSH1 0x0 DUP2 SWAP1 POP DUP2 PUSH1 0x0 MSTORE PUSH1 0x20 PUSH1 0x0 KECCAK256 SWAP1 POP SWAP2 SWAP1 POP JUMP JUMPDEST PUSH1 0x0 PUSH1 0x20 PUSH1 0x1F DUP4 ADD DIV SWAP1 POP SWAP2 SWAP1 POP JUMP JUMPDEST PUSH1 0x0 DUP3 DUP3 SHL SWAP1 POP SWAP3 SWAP2 POP POP JUMP JUMPDEST PUSH1 0x0 PUSH1 0x8 DUP4 MUL PUSH3 0x58F PUSH32 0xFFFFFFFFFFFFFFFFFFFFFFFFFFFFFFFFFFFFFFFFFFFFFFFFFFFFFFFFFFFFFFFF DUP3 PUSH3 0x550 JUMP JUMPDEST PUSH3 0x59B DUP7 DUP4 PUSH3 0x550 JUMP JUMPDEST SWAP6 POP DUP1 NOT DUP5 AND SWAP4 POP DUP1 DUP7 AND DUP5 OR SWAP3 POP POP POP SWAP4 SWAP3 POP POP POP JUMP JUMPDEST PUSH1 0x0 DUP2 SWAP1 POP SWAP2 SWAP1 POP JUMP JUMPDEST PUSH1 0x0 DUP2 SWAP1 POP SWAP2 SWAP1 POP JUMP JUMPDEST PUSH1 0x0 PUSH3 0x5E8 PUSH3 0x5E2 PUSH3 0x5DC DUP5 PUSH3 0x5B3 JUMP JUMPDEST PUSH3 0x5BD JUMP JUMPDEST PUSH3 0x5B3 JUMP JUMPDEST SWAP1 POP SWAP2 SWAP1 POP JUMP JUMPDEST PUSH1 0x0 DUP2 SWAP1 POP SWAP2 SWAP1 POP JUMP JUMPDEST PUSH3 0x604 DUP4 PUSH3 0x5C7 JUMP JUMPDEST PUSH3 0x61C PUSH3 0x613 DUP3 PUSH3 0x5EF JUMP JUMPDEST DUP5 DUP5 SLOAD PUSH3 0x55D JUMP JUMPDEST DUP3 SSTORE POP POP POP POP JUMP JUMPDEST PUSH1 0x0 SWAP1 JUMP JUMPDEST PUSH3 0x633 PUSH3 0x624 JUMP JUMPDEST PUSH3 0x640 DUP2 DUP5 DUP5 PUSH3 0x5F9 JUMP JUMPDEST POP POP POP JUMP JUMPDEST JUMPDEST DUP2 DUP2 LT ISZERO PUSH3 0x668 JUMPI PUSH3 0x65C PUSH1 0x0 DUP3 PUSH3 0x629 JUMP JUMPDEST PUSH1 0x1 DUP2 ADD SWAP1 POP PUSH3 0x646 JUMP JUMPDEST POP POP JUMP JUMPDEST PUSH1 0x1F DUP3 GT ISZERO PUSH3 0x6B7 JUMPI PUSH3 0x681 DUP2 PUSH3 0x52B JUMP JUMPDEST PUSH3 0x68C DUP5 PUSH3 0x540 JUMP JUMPDEST DUP2 ADD PUSH1 0x20 DUP6 LT ISZERO PUSH3 0x69C JUMPI DUP2 SWAP1 POP JUMPDEST PUSH3 0x6B4 PUSH3 0x6AB DUP6 PUSH3 0x540 JUMP JUMPDEST DUP4 ADD DUP3 PUSH3 0x645 JUMP JUMPDEST POP POP JUMPDEST POP POP POP JUMP JUMPDEST PUSH1 0x0 DUP3 DUP3 SHR SWAP1 POP SWAP3 SWAP2 POP POP JUMP JUMPDEST PUSH1 0x0 PUSH3 0x6DC PUSH1 0x0 NOT DUP5 PUSH1 0x8 MUL PUSH3 0x6BC JUMP JUMPDEST NOT DUP1 DUP4 AND SWAP2 POP POP SWAP3 SWAP2 POP POP JUMP JUMPDEST PUSH1 0x0 PUSH3 0x6F7 DUP4 DUP4 PUSH3 0x6C9 JUMP JUMPDEST SWAP2 POP DUP3 PUSH1 0x2 MUL DUP3 OR SWAP1 POP SWAP3 SWAP2 POP POP JUMP JUMPDEST PUSH3 0x712 DUP3 PUSH3 0x48D JUMP JUMPDEST PUSH8 0xFFFFFFFFFFFFFFFF DUP2 GT ISZERO PUSH3 0x72E JUMPI PUSH3 0x72D PUSH3 0x498 JUMP JUMPDEST JUMPDEST PUSH3 0x73A DUP3 SLOAD PUSH3 0x4F6 JUMP JUMPDEST PUSH3 0x747 DUP3 DUP3 DUP6 PUSH3 0x66C JUMP JUMPDEST PUSH1 0x0 PUSH1 0x20 SWAP1 POP PUSH1 0x1F DUP4 GT PUSH1 0x1 DUP2 EQ PUSH3 0x77F JUMPI PUSH1 0x0 DUP5 ISZERO PUSH3 0x76A JUMPI DUP3 DUP8 ADD MLOAD SWAP1 POP JUMPDEST PUSH3 0x776 DUP6 DUP3 PUSH3 0x6E9 JUMP JUMPDEST DUP7 SSTORE POP PUSH3 0x7E6 JUMP JUMPDEST PUSH1 0x1F NOT DUP5 AND PUSH3 0x78F DUP7 PUSH3 0x52B JUMP JUMPDEST PUSH1 0x0 JUMPDEST DUP3 DUP2 LT ISZERO PUSH3 0x7B9 JUMPI DUP5 DUP10 ADD MLOAD DUP3 SSTORE PUSH1 0x1 DUP3 ADD SWAP2 POP PUSH1 0x20 DUP6 ADD SWAP5 POP PUSH1 0x20 DUP2 ADD SWAP1 POP PUSH3 0x792 JUMP JUMPDEST DUP7 DUP4 LT ISZERO PUSH3 0x7D9 JUMPI DUP5 DUP10 ADD MLOAD PUSH3 0x7D5 PUSH1 0x1F DUP10 AND DUP3 PUSH3 0x6C9 JUMP JUMPDEST DUP4 SSTORE POP JUMPDEST PUSH1 0x1 PUSH1 0x2 DUP9 MUL ADD DUP9 SSTORE POP POP POP JUMPDEST POP POP POP POP POP POP JUMP JUMPDEST PUSH32 0x4E487B7100000000000000000000000000000000000000000000000000000000 PUSH1 0x0 MSTORE PUSH1 0x12 PUSH1 0x4 MSTORE PUSH1 0x24 PUSH1 0x0 REVERT JUMPDEST PUSH1 0x80 MLOAD PUSH1 0xA0 MLOAD PUSH1 0xC0 MLOAD PUSH1 0xE0 MLOAD PUSH2 0x239A PUSH3 0x857 PUSH1 0x0 CODECOPY PUSH1 0x0 PUSH2 0x3B5 ADD MSTORE PUSH1 0x0 PUSH2 0x459 ADD MSTORE PUSH1 0x0 PUSH2 0x519 ADD MSTORE PUSH1 0x0 PUSH2 0x555 ADD MSTORE PUSH2 0x239A PUSH1 0x0 RETURN INVALID PUSH1 0x80 PUSH1 0x40 MSTORE CALLVALUE DUP1 ISZERO PUSH2 0x10 JUMPI PUSH1 0x0 DUP1 REVERT JUMPDEST POP PUSH1 0x4 CALLDATASIZE LT PUSH2 0x7D JUMPI PUSH1 0x0 CALLDATALOAD PUSH1 0xE0 SHR DUP1 PUSH4 0x85E1F4D0 GT PUSH2 0x5B JUMPI DUP1 PUSH4 0x85E1F4D0 EQ PUSH2 0xFE JUMPI DUP1 PUSH4 0xB6AD16A8 EQ PUSH2 0x11C JUMPI DUP1 PUSH4 0xBEBC479C EQ PUSH2 0x14D JUMPI DUP1 PUSH4 0xCB2E6043 EQ PUSH2 0x16B JUMPI PUSH2 0x7D JUMP JUMPDEST DUP1 PUSH4 0x6634E88 EQ PUSH2 0x82 JUMPI DUP1 PUSH4 0x24F669B4 EQ PUSH2 0xB2 JUMPI DUP1 PUSH4 0x5E619A4A EQ PUSH2 0xCE JUMPI JUMPDEST PUSH1 0x0 DUP1 REVERT JUMPDEST PUSH2 0x9C PUSH1 0x4 DUP1 CALLDATASIZE SUB DUP2 ADD SWAP1 PUSH2 0x97 SWAP2 SWAP1 PUSH2 0x141C JUMP JUMPDEST PUSH2 0x189 JUMP JUMPDEST PUSH1 0x40 MLOAD PUSH2 0xA9 SWAP2 SWAP1 PUSH2 0x1458 JUMP JUMPDEST PUSH1 0x40 MLOAD DUP1 SWAP2 SUB SWAP1 RETURN JUMPDEST PUSH2 0xCC PUSH1 0x4 DUP1 CALLDATASIZE SUB DUP2 ADD SWAP1 PUSH2 0xC7 SWAP2 SWAP1 PUSH2 0x14FC JUMP JUMPDEST PUSH2 0x1BC JUMP JUMPDEST STOP JUMPDEST PUSH2 0xE8 PUSH1 0x4 DUP1 CALLDATASIZE SUB DUP2 ADD SWAP1 PUSH2 0xE3 SWAP2 SWAP1 PUSH2 0x141C JUMP JUMPDEST PUSH2 0x850 JUMP JUMPDEST PUSH1 0x40 MLOAD PUSH2 0xF5 SWAP2 SWAP1 PUSH2 0x1458 JUMP JUMPDEST PUSH1 0x40 MLOAD DUP1 SWAP2 SUB SWAP1 RETURN JUMPDEST PUSH2 0x106 PUSH2 0x883 JUMP JUMPDEST PUSH1 0x40 MLOAD PUSH2 0x113 SWAP2 SWAP1 PUSH2 0x15EC JUMP JUMPDEST PUSH1 0x40 MLOAD DUP1 SWAP2 SUB SWAP1 RETURN JUMPDEST PUSH2 0x136 PUSH1 0x4 DUP1 CALLDATASIZE SUB DUP2 ADD SWAP1 PUSH2 0x131 SWAP2 SWAP1 PUSH2 0x160E JUMP JUMPDEST PUSH2 0x911 JUMP JUMPDEST PUSH1 0x40 MLOAD PUSH2 0x144 SWAP3 SWAP2 SWAP1 PUSH2 0x16B8 JUMP JUMPDEST PUSH1 0x40 MLOAD DUP1 SWAP2 SUB SWAP1 RETURN JUMPDEST PUSH2 0x155 PUSH2 0x985 JUMP JUMPDEST PUSH1 0x40 MLOAD PUSH2 0x162 SWAP2 SWAP1 PUSH2 0x15EC JUMP JUMPDEST PUSH1 0x40 MLOAD DUP1 SWAP2 SUB SWAP1 RETURN JUMPDEST PUSH2 0x173 PUSH2 0xA13 JUMP JUMPDEST PUSH1 0x40 MLOAD PUSH2 0x180 SWAP2 SWAP1 PUSH2 0x16F7 JUMP JUMPDEST PUSH1 0x40 MLOAD DUP1 SWAP2 SUB SWAP1 RETURN JUMPDEST PUSH1 0x4 PUSH1 0x20 MSTORE DUP1 PUSH1 0x0 MSTORE PUSH1 0x40 PUSH1 0x0 KECCAK256 PUSH1 0x0 SWAP2 POP SLOAD SWAP1 PUSH2 0x100 EXP SWAP1 DIV PUSH20 0xFFFFFFFFFFFFFFFFFFFFFFFFFFFFFFFFFFFFFFFF AND DUP2 JUMP JUMPDEST PUSH1 0x0 PUSH20 0xFFFFFFFFFFFFFFFFFFFFFFFFFFFFFFFFFFFFFFFF AND PUSH1 0x3 PUSH1 0x0 DUP6 PUSH1 0x0 ADD PUSH1 0x20 DUP2 ADD SWAP1 PUSH2 0x1EB SWAP2 SWAP1 PUSH2 0x141C JUMP JUMPDEST PUSH20 0xFFFFFFFFFFFFFFFFFFFFFFFFFFFFFFFFFFFFFFFF AND PUSH20 0xFFFFFFFFFFFFFFFFFFFFFFFFFFFFFFFFFFFFFFFF AND DUP2 MSTORE PUSH1 0x20 ADD SWAP1 DUP2 MSTORE PUSH1 0x20 ADD PUSH1 0x0 KECCAK256 PUSH1 0x0 SWAP1 SLOAD SWAP1 PUSH2 0x100 EXP SWAP1 DIV PUSH20 0xFFFFFFFFFFFFFFFFFFFFFFFFFFFFFFFFFFFFFFFF AND PUSH20 0xFFFFFFFFFFFFFFFFFFFFFFFFFFFFFFFFFFFFFFFF AND EQ PUSH2 0x29C JUMPI PUSH1 0x40 MLOAD PUSH32 0x8C379A000000000000000000000000000000000000000000000000000000000 DUP2 MSTORE PUSH1 0x4 ADD PUSH2 0x293 SWAP1 PUSH2 0x175E JUMP JUMPDEST PUSH1 0x40 MLOAD DUP1 SWAP2 SUB SWAP1 REVERT JUMPDEST PUSH2 0x2A7 DUP4 DUP4 DUP4 PUSH2 0xA19 JUMP JUMPDEST PUSH2 0x2B0 JUMPI PUSH1 0x0 DUP1 REVERT JUMPDEST PUSH1 0x0 PUSH1 0x2 PUSH8 0xFFFFFFFFFFFFFFFF DUP2 GT ISZERO PUSH2 0x2CD JUMPI PUSH2 0x2CC PUSH2 0x177E JUMP JUMPDEST JUMPDEST PUSH1 0x40 MLOAD SWAP1 DUP1 DUP3 MSTORE DUP1 PUSH1 0x20 MUL PUSH1 0x20 ADD DUP3 ADD PUSH1 0x40 MSTORE DUP1 ISZERO PUSH2 0x2FB JUMPI DUP2 PUSH1 0x20 ADD PUSH1 0x20 DUP3 MUL DUP1 CALLDATASIZE DUP4 CALLDATACOPY DUP1 DUP3 ADD SWAP2 POP POP SWAP1 POP JUMPDEST POP SWAP1 POP DUP4 PUSH1 0x0 ADD PUSH1 0x20 DUP2 ADD SWAP1 PUSH2 0x311 SWAP2 SWAP1 PUSH2 0x141C JUMP JUMPDEST DUP2 PUSH1 0x0 DUP2 MLOAD DUP2 LT PUSH2 0x325 JUMPI PUSH2 0x324 PUSH2 0x17AD JUMP JUMPDEST JUMPDEST PUSH1 0x20 MUL PUSH1 0x20 ADD ADD SWAP1 PUSH20 0xFFFFFFFFFFFFFFFFFFFFFFFFFFFFFFFFFFFFFFFF AND SWAP1 DUP2 PUSH20 0xFFFFFFFFFFFFFFFFFFFFFFFFFFFFFFFFFFFFFFFF AND DUP2 MSTORE POP POP ADDRESS DUP2 PUSH1 0x1 DUP2 MLOAD DUP2 LT PUSH2 0x374 JUMPI PUSH2 0x373 PUSH2 0x17AD JUMP JUMPDEST JUMPDEST PUSH1 0x20 MUL PUSH1 0x20 ADD ADD SWAP1 PUSH20 0xFFFFFFFFFFFFFFFFFFFFFFFFFFFFFFFFFFFFFFFF AND SWAP1 DUP2 PUSH20 0xFFFFFFFFFFFFFFFFFFFFFFFFFFFFFFFFFFFFFFFF AND DUP2 MSTORE POP POP PUSH1 0x0 DUP2 PUSH1 0x1 PUSH32 0x0 PUSH1 0x40 MLOAD PUSH1 0x24 ADD PUSH1 0x40 MLOAD PUSH1 0x20 DUP2 DUP4 SUB SUB DUP2 MSTORE SWAP1 PUSH1 0x40 MSTORE PUSH32 0xBA0BBA4000000000000000000000000000000000000000000000000000000000 PUSH28 0xFFFFFFFFFFFFFFFFFFFFFFFFFFFFFFFFFFFFFFFFFFFFFFFFFFFFFFFF NOT AND PUSH1 0x20 DUP3 ADD DUP1 MLOAD PUSH28 0xFFFFFFFFFFFFFFFFFFFFFFFFFFFFFFFFFFFFFFFFFFFFFFFFFFFFFFFF DUP4 DUP2 DUP4 AND OR DUP4 MSTORE POP POP POP POP PUSH32 0x0 PUSH1 0x0 DUP1 PUSH1 0x0 DUP1 PUSH1 0x40 MLOAD PUSH1 0x24 ADD PUSH2 0x496 SWAP10 SWAP9 SWAP8 SWAP7 SWAP6 SWAP5 SWAP4 SWAP3 SWAP2 SWAP1 PUSH2 0x18E0 JUMP JUMPDEST PUSH1 0x40 MLOAD PUSH1 0x20 DUP2 DUP4 SUB SUB DUP2 MSTORE SWAP1 PUSH1 0x40 MSTORE PUSH32 0xB63E800D00000000000000000000000000000000000000000000000000000000 PUSH28 0xFFFFFFFFFFFFFFFFFFFFFFFFFFFFFFFFFFFFFFFFFFFFFFFFFFFFFFFF NOT AND PUSH1 0x20 DUP3 ADD DUP1 MLOAD PUSH28 0xFFFFFFFFFFFFFFFFFFFFFFFFFFFFFFFFFFFFFFFFFFFFFFFFFFFFFFFF DUP4 DUP2 DUP4 AND OR DUP4 MSTORE POP POP POP POP SWAP1 POP PUSH1 0x0 PUSH32 0x0 PUSH20 0xFFFFFFFFFFFFFFFFFFFFFFFFFFFFFFFFFFFFFFFF AND PUSH4 0x1688F0B9 PUSH32 0x0 DUP5 CHAINID PUSH1 0x40 MLOAD DUP5 PUSH4 0xFFFFFFFF AND PUSH1 0xE0 SHL DUP2 MSTORE PUSH1 0x4 ADD PUSH2 0x594 SWAP4 SWAP3 SWAP2 SWAP1 PUSH2 0x197B JUMP JUMPDEST PUSH1 0x20 PUSH1 0x40 MLOAD DUP1 DUP4 SUB DUP2 PUSH1 0x0 DUP8 GAS CALL ISZERO DUP1 ISZERO PUSH2 0x5B3 JUMPI RETURNDATASIZE PUSH1 0x0 DUP1 RETURNDATACOPY RETURNDATASIZE PUSH1 0x0 REVERT JUMPDEST POP POP POP POP PUSH1 0x40 MLOAD RETURNDATASIZE PUSH1 0x1F NOT PUSH1 0x1F DUP3 ADD AND DUP3 ADD DUP1 PUSH1 0x40 MSTORE POP DUP2 ADD SWAP1 PUSH2 0x5D7 SWAP2 SWAP1 PUSH2 0x19CE JUMP JUMPDEST SWAP1 POP PUSH1 0x0 DUP2 SWAP1 POP PUSH1 0x0 PUSH20 0xFFFFFFFFFFFFFFFFFFFFFFFFFFFFFFFFFFFFFFFF AND DUP8 PUSH1 0x20 ADD PUSH1 0x20 DUP2 ADD SWAP1 PUSH2 0x609 SWAP2 SWAP1 PUSH2 0x141C JUMP JUMPDEST PUSH20 0xFFFFFFFFFFFFFFFFFFFFFFFFFFFFFFFFFFFFFFFF AND EQ PUSH2 0x6A5 JUMPI DUP1 PUSH20 0xFFFFFFFFFFFFFFFFFFFFFFFFFFFFFFFFFFFFFFFF AND PUSH4 0xD582F13 DUP9 PUSH1 0x20 ADD PUSH1 0x20 DUP2 ADD SWAP1 PUSH2 0x653 SWAP2 SWAP1 PUSH2 0x141C JUMP JUMPDEST PUSH1 0x1 PUSH1 0x40 MLOAD DUP4 PUSH4 0xFFFFFFFF AND PUSH1 0xE0 SHL DUP2 MSTORE PUSH1 0x4 ADD PUSH2 0x672 SWAP3 SWAP2 SWAP1 PUSH2 0x1A40 JUMP JUMPDEST PUSH1 0x0 PUSH1 0x40 MLOAD DUP1 DUP4 SUB DUP2 PUSH1 0x0 DUP8 DUP1 EXTCODESIZE ISZERO DUP1 ISZERO PUSH2 0x68C JUMPI PUSH1 0x0 DUP1 REVERT JUMPDEST POP GAS CALL ISZERO DUP1 ISZERO PUSH2 0x6A0 JUMPI RETURNDATASIZE PUSH1 0x0 DUP1 RETURNDATACOPY RETURNDATASIZE PUSH1 0x0 REVERT JUMPDEST POP POP POP POP JUMPDEST DUP1 PUSH20 0xFFFFFFFFFFFFFFFFFFFFFFFFFFFFFFFFFFFFFFFF AND PUSH4 0xF8DC5DD9 DUP9 PUSH1 0x0 ADD PUSH1 0x20 DUP2 ADD SWAP1 PUSH2 0x6D4 SWAP2 SWAP1 PUSH2 0x141C JUMP JUMPDEST ADDRESS PUSH1 0x1 PUSH1 0x40 MLOAD DUP5 PUSH4 0xFFFFFFFF AND PUSH1 0xE0 SHL DUP2 MSTORE PUSH1 0x4 ADD PUSH2 0x6F5 SWAP4 SWAP3 SWAP2 SWAP1 PUSH2 0x1A69 JUMP JUMPDEST PUSH1 0x0 PUSH1 0x40 MLOAD DUP1 DUP4 SUB DUP2 PUSH1 0x0 DUP8 DUP1 EXTCODESIZE ISZERO DUP1 ISZERO PUSH2 0x70F JUMPI PUSH1 0x0 DUP1 REVERT JUMPDEST POP GAS CALL ISZERO DUP1 ISZERO PUSH2 0x723 JUMPI RETURNDATASIZE PUSH1 0x0 DUP1 RETURNDATACOPY RETURNDATASIZE PUSH1 0x0 REVERT JUMPDEST POP POP POP POP DUP2 PUSH1 0x3 PUSH1 0x0 DUP10 PUSH1 0x0 ADD PUSH1 0x20 DUP2 ADD SWAP1 PUSH2 0x73F SWAP2 SWAP1 PUSH2 0x141C JUMP JUMPDEST PUSH20 0xFFFFFFFFFFFFFFFFFFFFFFFFFFFFFFFFFFFFFFFF AND PUSH20 0xFFFFFFFFFFFFFFFFFFFFFFFFFFFFFFFFFFFFFFFF AND DUP2 MSTORE PUSH1 0x20 ADD SWAP1 DUP2 MSTORE PUSH1 0x20 ADD PUSH1 0x0 KECCAK256 PUSH1 0x0 PUSH2 0x100 EXP DUP2 SLOAD DUP2 PUSH20 0xFFFFFFFFFFFFFFFFFFFFFFFFFFFFFFFFFFFFFFFF MUL NOT AND SWAP1 DUP4 PUSH20 0xFFFFFFFFFFFFFFFFFFFFFFFFFFFFFFFFFFFFFFFF AND MUL OR SWAP1 SSTORE POP DUP7 PUSH1 0x0 ADD PUSH1 0x20 DUP2 ADD SWAP1 PUSH2 0x7CA SWAP2 SWAP1 PUSH2 0x141C JUMP JUMPDEST PUSH1 0x4 PUSH1 0x0 DUP5 PUSH20 0xFFFFFFFFFFFFFFFFFFFFFFFFFFFFFFFFFFFFFFFF AND PUSH20 0xFFFFFFFFFFFFFFFFFFFFFFFFFFFFFFFFFFFFFFFF AND DUP2 MSTORE PUSH1 0x20 ADD SWAP1 DUP2 MSTORE PUSH1 0x20 ADD PUSH1 0x0 KECCAK256 PUSH1 0x0 PUSH2 0x100 EXP DUP2 SLOAD DUP2 PUSH20 0xFFFFFFFFFFFFFFFFFFFFFFFFFFFFFFFFFFFFFFFF MUL NOT AND SWAP1 DUP4 PUSH20 0xFFFFFFFFFFFFFFFFFFFFFFFFFFFFFFFFFFFFFFFF AND MUL OR SWAP1 SSTORE POP POP POP POP POP POP POP POP JUMP JUMPDEST PUSH1 0x3 PUSH1 0x20 MSTORE DUP1 PUSH1 0x0 MSTORE PUSH1 0x40 PUSH1 0x0 KECCAK256 PUSH1 0x0 SWAP2 POP SLOAD SWAP1 PUSH2 0x100 EXP SWAP1 DIV PUSH20 0xFFFFFFFFFFFFFFFFFFFFFFFFFFFFFFFFFFFFFFFF AND DUP2 JUMP JUMPDEST PUSH1 0x2 DUP1 SLOAD PUSH2 0x890 SWAP1 PUSH2 0x1ACF JUMP JUMPDEST DUP1 PUSH1 0x1F ADD PUSH1 0x20 DUP1 SWAP2 DIV MUL PUSH1 0x20 ADD PUSH1 0x40 MLOAD SWAP1 DUP2 ADD PUSH1 0x40 MSTORE DUP1 SWAP3 SWAP2 SWAP1 DUP2 DUP2 MSTORE PUSH1 0x20 ADD DUP3 DUP1 SLOAD PUSH2 0x8BC SWAP1 PUSH2 0x1ACF JUMP JUMPDEST DUP1 ISZERO PUSH2 0x909 JUMPI DUP1 PUSH1 0x1F LT PUSH2 0x8DE JUMPI PUSH2 0x100 DUP1 DUP4 SLOAD DIV MUL DUP4 MSTORE SWAP2 PUSH1 0x20 ADD SWAP2 PUSH2 0x909 JUMP JUMPDEST DUP3 ADD SWAP2 SWAP1 PUSH1 0x0 MSTORE PUSH1 0x20 PUSH1 0x0 KECCAK256 SWAP1 JUMPDEST DUP2 SLOAD DUP2 MSTORE SWAP1 PUSH1 0x1 ADD SWAP1 PUSH1 0x20 ADD DUP1 DUP4 GT PUSH2 0x8EC JUMPI DUP3 SWAP1 SUB PUSH1 0x1F AND DUP3 ADD SWAP2 JUMPDEST POP POP POP POP POP DUP2 JUMP JUMPDEST PUSH2 0x919 PUSH2 0x135D JUMP JUMPDEST PUSH1 0x60 PUSH1 0x40 MLOAD DUP1 PUSH1 0x60 ADD PUSH1 0x40 MSTORE DUP1 DUP6 PUSH20 0xFFFFFFFFFFFFFFFFFFFFFFFFFFFFFFFFFFFFFFFF AND DUP2 MSTORE PUSH1 0x20 ADD DUP5 PUSH20 0xFFFFFFFFFFFFFFFFFFFFFFFFFFFFFFFFFFFFFFFF AND DUP2 MSTORE PUSH1 0x20 ADD PUSH1 0x1 NUMBER PUSH2 0x96B SWAP2 SWAP1 PUSH2 0x1B2F JUMP JUMPDEST DUP2 MSTORE POP SWAP2 POP DUP2 PUSH2 0x97A DUP4 PUSH2 0xB5A JUMP JUMPDEST SWAP2 POP SWAP2 POP SWAP3 POP SWAP3 SWAP1 POP JUMP JUMPDEST PUSH1 0x0 DUP1 SLOAD PUSH2 0x992 SWAP1 PUSH2 0x1ACF JUMP JUMPDEST DUP1 PUSH1 0x1F ADD PUSH1 0x20 DUP1 SWAP2 DIV MUL PUSH1 0x20 ADD PUSH1 0x40 MLOAD SWAP1 DUP2 ADD PUSH1 0x40 MSTORE DUP1 SWAP3 SWAP2 SWAP1 DUP2 DUP2 MSTORE PUSH1 0x20 ADD DUP3 DUP1 SLOAD PUSH2 0x9BE SWAP1 PUSH2 0x1ACF JUMP JUMPDEST DUP1 ISZERO PUSH2 0xA0B JUMPI DUP1 PUSH1 0x1F LT PUSH2 0x9E0 JUMPI PUSH2 0x100 DUP1 DUP4 SLOAD DIV MUL DUP4 MSTORE SWAP2 PUSH1 0x20 ADD SWAP2 PUSH2 0xA0B JUMP JUMPDEST DUP3 ADD SWAP2 SWAP1 PUSH1 0x0 MSTORE PUSH1 0x20 PUSH1 0x0 KECCAK256 SWAP1 JUMPDEST DUP2 SLOAD DUP2 MSTORE SWAP1 PUSH1 0x1 ADD SWAP1 PUSH1 0x20 ADD DUP1 DUP4 GT PUSH2 0x9EE JUMPI DUP3 SWAP1 SUB PUSH1 0x1F AND DUP3 ADD SWAP2 JUMPDEST POP POP POP POP POP DUP2 JUMP JUMPDEST PUSH1 0x1 SLOAD DUP2 JUMP JUMPDEST PUSH1 0x0 DUP1 PUSH2 0xA25 DUP6 PUSH2 0xBAE JUMP JUMPDEST SWAP1 POP PUSH1 0x0 PUSH2 0xA77 DUP3 DUP7 DUP7 DUP1 DUP1 PUSH1 0x1F ADD PUSH1 0x20 DUP1 SWAP2 DIV MUL PUSH1 0x20 ADD PUSH1 0x40 MLOAD SWAP1 DUP2 ADD PUSH1 0x40 MSTORE DUP1 SWAP4 SWAP3 SWAP2 SWAP1 DUP2 DUP2 MSTORE PUSH1 0x20 ADD DUP4 DUP4 DUP1 DUP3 DUP5 CALLDATACOPY PUSH1 0x0 DUP2 DUP5 ADD MSTORE PUSH1 0x1F NOT PUSH1 0x1F DUP3 ADD AND SWAP1 POP DUP1 DUP4 ADD SWAP3 POP POP POP POP POP POP POP PUSH2 0xBD8 JUMP JUMPDEST SWAP1 POP DUP6 PUSH1 0x0 ADD PUSH1 0x20 DUP2 ADD SWAP1 PUSH2 0xA8C SWAP2 SWAP1 PUSH2 0x141C JUMP JUMPDEST PUSH20 0xFFFFFFFFFFFFFFFFFFFFFFFFFFFFFFFFFFFFFFFF AND DUP2 PUSH20 0xFFFFFFFFFFFFFFFFFFFFFFFFFFFFFFFFFFFFFFFF AND EQ PUSH2 0xAF9 JUMPI PUSH1 0x40 MLOAD PUSH32 0x8C379A000000000000000000000000000000000000000000000000000000000 DUP2 MSTORE PUSH1 0x4 ADD PUSH2 0xAF0 SWAP1 PUSH2 0x1BAF JUMP JUMPDEST PUSH1 0x40 MLOAD DUP1 SWAP2 SUB SWAP1 REVERT JUMPDEST PUSH1 0x1 SLOAD NUMBER PUSH2 0xB07 SWAP2 SWAP1 PUSH2 0x1B2F JUMP JUMPDEST DUP7 PUSH1 0x40 ADD CALLDATALOAD LT ISZERO PUSH2 0xB4D JUMPI PUSH1 0x40 MLOAD PUSH32 0x8C379A000000000000000000000000000000000000000000000000000000000 DUP2 MSTORE PUSH1 0x4 ADD PUSH2 0xB44 SWAP1 PUSH2 0x1C1B JUMP JUMPDEST PUSH1 0x40 MLOAD DUP1 SWAP2 SUB SWAP1 REVERT JUMPDEST PUSH1 0x1 SWAP3 POP POP POP SWAP4 SWAP3 POP POP POP JUMP JUMPDEST PUSH1 0x60 PUSH1 0x0 PUSH2 0xB6B DUP4 PUSH1 0x0 ADD MLOAD PUSH2 0xBFF JUMP JUMPDEST PUSH2 0xB78 DUP5 PUSH1 0x20 ADD MLOAD PUSH2 0xBFF JUMP JUMPDEST PUSH2 0xB85 DUP6 PUSH1 0x40 ADD MLOAD PUSH2 0xC2C JUMP JUMPDEST PUSH1 0x40 MLOAD PUSH1 0x20 ADD PUSH2 0xB98 SWAP5 SWAP4 SWAP3 SWAP2 SWAP1 PUSH2 0x1DF3 JUMP JUMPDEST PUSH1 0x40 MLOAD PUSH1 0x20 DUP2 DUP4 SUB SUB DUP2 MSTORE SWAP1 PUSH1 0x40 MSTORE SWAP1 POP SWAP2 SWAP1 POP JUMP JUMPDEST PUSH1 0x0 PUSH2 0xBD1 PUSH2 0xBCC DUP4 DUP1 CALLDATASIZE SUB DUP2 ADD SWAP1 PUSH2 0xBC7 SWAP2 SWAP1 PUSH2 0x1F33 JUMP JUMPDEST PUSH2 0xB5A JUMP JUMPDEST PUSH2 0xCFA JUMP JUMPDEST SWAP1 POP SWAP2 SWAP1 POP JUMP JUMPDEST PUSH1 0x0 DUP1 PUSH1 0x0 PUSH2 0xBE7 DUP6 DUP6 PUSH2 0xD35 JUMP JUMPDEST SWAP2 POP SWAP2 POP PUSH2 0xBF4 DUP2 PUSH2 0xD86 JUMP JUMPDEST DUP2 SWAP3 POP POP POP SWAP3 SWAP2 POP POP JUMP JUMPDEST PUSH1 0x60 PUSH2 0xC25 DUP3 PUSH20 0xFFFFFFFFFFFFFFFFFFFFFFFFFFFFFFFFFFFFFFFF AND PUSH1 0x14 PUSH1 0xFF AND PUSH2 0xEEC JUMP JUMPDEST SWAP1 POP SWAP2 SWAP1 POP JUMP JUMPDEST PUSH1 0x60 PUSH1 0x0 PUSH1 0x1 PUSH2 0xC3B DUP5 PUSH2 0x1128 JUMP JUMPDEST ADD SWAP1 POP PUSH1 0x0 DUP2 PUSH8 0xFFFFFFFFFFFFFFFF DUP2 GT ISZERO PUSH2 0xC5A JUMPI PUSH2 0xC59 PUSH2 0x177E JUMP JUMPDEST JUMPDEST PUSH1 0x40 MLOAD SWAP1 DUP1 DUP3 MSTORE DUP1 PUSH1 0x1F ADD PUSH1 0x1F NOT AND PUSH1 0x20 ADD DUP3 ADD PUSH1 0x40 MSTORE DUP1 ISZERO PUSH2 0xC8C JUMPI DUP2 PUSH1 0x20 ADD PUSH1 0x1 DUP3 MUL DUP1 CALLDATASIZE DUP4 CALLDATACOPY DUP1 DUP3 ADD SWAP2 POP POP SWAP1 POP JUMPDEST POP SWAP1 POP PUSH1 0x0 DUP3 PUSH1 0x20 ADD DUP3 ADD SWAP1 POP JUMPDEST PUSH1 0x1 ISZERO PUSH2 0xCEF JUMPI DUP1 DUP1 PUSH1 0x1 SWAP1 SUB SWAP2 POP POP PUSH32 0x3031323334353637383961626364656600000000000000000000000000000000 PUSH1 0xA DUP7 MOD BYTE DUP2 MSTORE8 PUSH1 0xA DUP6 DUP2 PUSH2 0xCE3 JUMPI PUSH2 0xCE2 PUSH2 0x1F60 JUMP JUMPDEST JUMPDEST DIV SWAP5 POP PUSH1 0x0 DUP6 SUB PUSH2 0xC9A JUMPI JUMPDEST DUP2 SWAP4 POP POP POP POP SWAP2 SWAP1 POP JUMP JUMPDEST PUSH1 0x0 PUSH2 0xD06 DUP3 MLOAD PUSH2 0xC2C JUMP JUMPDEST DUP3 PUSH1 0x40 MLOAD PUSH1 0x20 ADD PUSH2 0xD18 SWAP3 SWAP2 SWAP1 PUSH2 0x2017 JUMP JUMPDEST PUSH1 0x40 MLOAD PUSH1 0x20 DUP2 DUP4 SUB SUB DUP2 MSTORE SWAP1 PUSH1 0x40 MSTORE DUP1 MLOAD SWAP1 PUSH1 0x20 ADD KECCAK256 SWAP1 POP SWAP2 SWAP1 POP JUMP JUMPDEST PUSH1 0x0 DUP1 PUSH1 0x41 DUP4 MLOAD SUB PUSH2 0xD76 JUMPI PUSH1 0x0 DUP1 PUSH1 0x0 PUSH1 0x20 DUP7 ADD MLOAD SWAP3 POP PUSH1 0x40 DUP7 ADD MLOAD SWAP2 POP PUSH1 0x60 DUP7 ADD MLOAD PUSH1 0x0 BYTE SWAP1 POP PUSH2 0xD6A DUP8 DUP3 DUP6 DUP6 PUSH2 0x127B JUMP JUMPDEST SWAP5 POP SWAP5 POP POP POP POP PUSH2 0xD7F JUMP JUMPDEST PUSH1 0x0 PUSH1 0x2 SWAP2 POP SWAP2 POP JUMPDEST SWAP3 POP SWAP3 SWAP1 POP JUMP JUMPDEST PUSH1 0x0 PUSH1 0x4 DUP2 GT ISZERO PUSH2 0xD9A JUMPI PUSH2 0xD99 PUSH2 0x2046 JUMP JUMPDEST JUMPDEST DUP2 PUSH1 0x4 DUP2 GT ISZERO PUSH2 0xDAD JUMPI PUSH2 0xDAC PUSH2 0x2046 JUMP JUMPDEST JUMPDEST SUB ISZERO PUSH2 0xEE9 JUMPI PUSH1 0x1 PUSH1 0x4 DUP2 GT ISZERO PUSH2 0xDC7 JUMPI PUSH2 0xDC6 PUSH2 0x2046 JUMP JUMPDEST JUMPDEST DUP2 PUSH1 0x4 DUP2 GT ISZERO PUSH2 0xDDA JUMPI PUSH2 0xDD9 PUSH2 0x2046 JUMP JUMPDEST JUMPDEST SUB PUSH2 0xE1A JUMPI PUSH1 0x40 MLOAD PUSH32 0x8C379A000000000000000000000000000000000000000000000000000000000 DUP2 MSTORE PUSH1 0x4 ADD PUSH2 0xE11 SWAP1 PUSH2 0x20C1 JUMP JUMPDEST PUSH1 0x40 MLOAD DUP1 SWAP2 SUB SWAP1 REVERT JUMPDEST PUSH1 0x2 PUSH1 0x4 DUP2 GT ISZERO PUSH2 0xE2E JUMPI PUSH2 0xE2D PUSH2 0x2046 JUMP JUMPDEST JUMPDEST DUP2 PUSH1 0x4 DUP2 GT ISZERO PUSH2 0xE41 JUMPI PUSH2 0xE40 PUSH2 0x2046 JUMP JUMPDEST JUMPDEST SUB PUSH2 0xE81 JUMPI PUSH1 0x40 MLOAD PUSH32 0x8C379A000000000000000000000000000000000000000000000000000000000 DUP2 MSTORE PUSH1 0x4 ADD PUSH2 0xE78 SWAP1 PUSH2 0x212D JUMP JUMPDEST PUSH1 0x40 MLOAD DUP1 SWAP2 SUB SWAP1 REVERT JUMPDEST PUSH1 0x3 PUSH1 0x4 DUP2 GT ISZERO PUSH2 0xE95 JUMPI PUSH2 0xE94 PUSH2 0x2046 JUMP JUMPDEST JUMPDEST DUP2 PUSH1 0x4 DUP2 GT ISZERO PUSH2 0xEA8 JUMPI PUSH2 0xEA7 PUSH2 0x2046 JUMP JUMPDEST JUMPDEST SUB PUSH2 0xEE8 JUMPI PUSH1 0x40 MLOAD PUSH32 0x8C379A000000000000000000000000000000000000000000000000000000000 DUP2 MSTORE PUSH1 0x4 ADD PUSH2 0xEDF SWAP1 PUSH2 0x21BF JUMP JUMPDEST PUSH1 0x40 MLOAD DUP1 SWAP2 SUB SWAP1 REVERT JUMPDEST JUMPDEST POP JUMP JUMPDEST PUSH1 0x60 PUSH1 0x0 PUSH1 0x2 DUP4 PUSH1 0x2 PUSH2 0xEFF SWAP2 SWAP1 PUSH2 0x21DF JUMP JUMPDEST PUSH2 0xF09 SWAP2 SWAP1 PUSH2 0x2221 JUMP JUMPDEST PUSH8 0xFFFFFFFFFFFFFFFF DUP2 GT ISZERO PUSH2 0xF22 JUMPI PUSH2 0xF21 PUSH2 0x177E JUMP JUMPDEST JUMPDEST PUSH1 0x40 MLOAD SWAP1 DUP1 DUP3 MSTORE DUP1 PUSH1 0x1F ADD PUSH1 0x1F NOT AND PUSH1 0x20 ADD DUP3 ADD PUSH1 0x40 MSTORE DUP1 ISZERO PUSH2 0xF54 JUMPI DUP2 PUSH1 0x20 ADD PUSH1 0x1 DUP3 MUL DUP1 CALLDATASIZE DUP4 CALLDATACOPY DUP1 DUP3 ADD SWAP2 POP POP SWAP1 POP JUMPDEST POP SWAP1 POP PUSH32 0x3000000000000000000000000000000000000000000000000000000000000000 DUP2 PUSH1 0x0 DUP2 MLOAD DUP2 LT PUSH2 0xF8C JUMPI PUSH2 0xF8B PUSH2 0x17AD JUMP JUMPDEST JUMPDEST PUSH1 0x20 ADD ADD SWAP1 PUSH31 0xFFFFFFFFFFFFFFFFFFFFFFFFFFFFFFFFFFFFFFFFFFFFFFFFFFFFFFFFFFFFFF NOT AND SWAP1 DUP2 PUSH1 0x0 BYTE SWAP1 MSTORE8 POP PUSH32 0x7800000000000000000000000000000000000000000000000000000000000000 DUP2 PUSH1 0x1 DUP2 MLOAD DUP2 LT PUSH2 0xFF0 JUMPI PUSH2 0xFEF PUSH2 0x17AD JUMP JUMPDEST JUMPDEST PUSH1 0x20 ADD ADD SWAP1 PUSH31 0xFFFFFFFFFFFFFFFFFFFFFFFFFFFFFFFFFFFFFFFFFFFFFFFFFFFFFFFFFFFFFF NOT AND SWAP1 DUP2 PUSH1 0x0 BYTE SWAP1 MSTORE8 POP PUSH1 0x0 PUSH1 0x1 DUP5 PUSH1 0x2 PUSH2 0x1030 SWAP2 SWAP1 PUSH2 0x21DF JUMP JUMPDEST PUSH2 0x103A SWAP2 SWAP1 PUSH2 0x2221 JUMP JUMPDEST SWAP1 POP JUMPDEST PUSH1 0x1 DUP2 GT ISZERO PUSH2 0x10DA JUMPI PUSH32 0x3031323334353637383961626364656600000000000000000000000000000000 PUSH1 0xF DUP7 AND PUSH1 0x10 DUP2 LT PUSH2 0x107C JUMPI PUSH2 0x107B PUSH2 0x17AD JUMP JUMPDEST JUMPDEST BYTE PUSH1 0xF8 SHL DUP3 DUP3 DUP2 MLOAD DUP2 LT PUSH2 0x1093 JUMPI PUSH2 0x1092 PUSH2 0x17AD JUMP JUMPDEST JUMPDEST PUSH1 0x20 ADD ADD SWAP1 PUSH31 0xFFFFFFFFFFFFFFFFFFFFFFFFFFFFFFFFFFFFFFFFFFFFFFFFFFFFFFFFFFFFFF NOT AND SWAP1 DUP2 PUSH1 0x0 BYTE SWAP1 MSTORE8 POP PUSH1 0x4 DUP6 SWAP1 SHR SWAP5 POP DUP1 PUSH2 0x10D3 SWAP1 PUSH2 0x2255 JUMP JUMPDEST SWAP1 POP PUSH2 0x103D JUMP JUMPDEST POP PUSH1 0x0 DUP5 EQ PUSH2 0x111E JUMPI PUSH1 0x40 MLOAD PUSH32 0x8C379A000000000000000000000000000000000000000000000000000000000 DUP2 MSTORE PUSH1 0x4 ADD PUSH2 0x1115 SWAP1 PUSH2 0x22CA JUMP JUMPDEST PUSH1 0x40 MLOAD DUP1 SWAP2 SUB SWAP1 REVERT JUMPDEST DUP1 SWAP2 POP POP SWAP3 SWAP2 POP POP JUMP JUMPDEST PUSH1 0x0 DUP1 PUSH1 0x0 SWAP1 POP PUSH27 0x184F03E93FF9F4DAA797ED6E38ED64BF6A1F010000000000000000 DUP4 LT PUSH2 0x1186 JUMPI PUSH27 0x184F03E93FF9F4DAA797ED6E38ED64BF6A1F010000000000000000 DUP4 DUP2 PUSH2 0x117C JUMPI PUSH2 0x117B PUSH2 0x1F60 JUMP JUMPDEST JUMPDEST DIV SWAP3 POP PUSH1 0x40 DUP2 ADD SWAP1 POP JUMPDEST PUSH14 0x4EE2D6D415B85ACEF8100000000 DUP4 LT PUSH2 0x11C3 JUMPI PUSH14 0x4EE2D6D415B85ACEF8100000000 DUP4 DUP2 PUSH2 0x11B9 JUMPI PUSH2 0x11B8 PUSH2 0x1F60 JUMP JUMPDEST JUMPDEST DIV SWAP3 POP PUSH1 0x20 DUP2 ADD SWAP1 POP JUMPDEST PUSH7 0x2386F26FC10000 DUP4 LT PUSH2 0x11F2 JUMPI PUSH7 0x2386F26FC10000 DUP4 DUP2 PUSH2 0x11E8 JUMPI PUSH2 0x11E7 PUSH2 0x1F60 JUMP JUMPDEST JUMPDEST DIV SWAP3 POP PUSH1 0x10 DUP2 ADD SWAP1 POP JUMPDEST PUSH4 0x5F5E100 DUP4 LT PUSH2 0x121B JUMPI PUSH4 0x5F5E100 DUP4 DUP2 PUSH2 0x1211 JUMPI PUSH2 0x1210 PUSH2 0x1F60 JUMP JUMPDEST JUMPDEST DIV SWAP3 POP PUSH1 0x8 DUP2 ADD SWAP1 POP JUMPDEST PUSH2 0x2710 DUP4 LT PUSH2 0x1240 JUMPI PUSH2 0x2710 DUP4 DUP2 PUSH2 0x1236 JUMPI PUSH2 0x1235 PUSH2 0x1F60 JUMP JUMPDEST JUMPDEST DIV SWAP3 POP PUSH1 0x4 DUP2 ADD SWAP1 POP JUMPDEST PUSH1 0x64 DUP4 LT PUSH2 0x1263 JUMPI PUSH1 0x64 DUP4 DUP2 PUSH2 0x1259 JUMPI PUSH2 0x1258 PUSH2 0x1F60 JUMP JUMPDEST JUMPDEST DIV SWAP3 POP PUSH1 0x2 DUP2 ADD SWAP1 POP JUMPDEST PUSH1 0xA DUP4 LT PUSH2 0x1272 JUMPI PUSH1 0x1 DUP2 ADD SWAP1 POP JUMPDEST DUP1 SWAP2 POP POP SWAP2 SWAP1 POP JUMP JUMPDEST PUSH1 0x0 DUP1 PUSH32 0x7FFFFFFFFFFFFFFFFFFFFFFFFFFFFFFF5D576E7357A4501DDFE92F46681B20A0 DUP4 PUSH1 0x0 SHR GT ISZERO PUSH2 0x12B6 JUMPI PUSH1 0x0 PUSH1 0x3 SWAP2 POP SWAP2 POP PUSH2 0x1354 JUMP JUMPDEST PUSH1 0x0 PUSH1 0x1 DUP8 DUP8 DUP8 DUP8 PUSH1 0x40 MLOAD PUSH1 0x0 DUP2 MSTORE PUSH1 0x20 ADD PUSH1 0x40 MSTORE PUSH1 0x40 MLOAD PUSH2 0x12DB SWAP5 SWAP4 SWAP3 SWAP2 SWAP1 PUSH2 0x231F JUMP JUMPDEST PUSH1 0x20 PUSH1 0x40 MLOAD PUSH1 0x20 DUP2 SUB SWAP1 DUP1 DUP5 SUB SWAP1 DUP6 GAS STATICCALL ISZERO DUP1 ISZERO PUSH2 0x12FD JUMPI RETURNDATASIZE PUSH1 0x0 DUP1 RETURNDATACOPY RETURNDATASIZE PUSH1 0x0 REVERT JUMPDEST POP POP POP PUSH1 0x20 PUSH1 0x40 MLOAD SUB MLOAD SWAP1 POP PUSH1 0x0 PUSH20 0xFFFFFFFFFFFFFFFFFFFFFFFFFFFFFFFFFFFFFFFF AND DUP2 PUSH20 0xFFFFFFFFFFFFFFFFFFFFFFFFFFFFFFFFFFFFFFFF AND SUB PUSH2 0x134B JUMPI PUSH1 0x0 PUSH1 0x1 SWAP3 POP SWAP3 POP POP PUSH2 0x1354 JUMP JUMPDEST DUP1 PUSH1 0x0 SWAP3 POP SWAP3 POP POP JUMPDEST SWAP5 POP SWAP5 SWAP3 POP POP POP JUMP JUMPDEST PUSH1 0x40 MLOAD DUP1 PUSH1 0x60 ADD PUSH1 0x40 MSTORE DUP1 PUSH1 0x0 PUSH20 0xFFFFFFFFFFFFFFFFFFFFFFFFFFFFFFFFFFFFFFFF AND DUP2 MSTORE PUSH1 0x20 ADD PUSH1 0x0 PUSH20 0xFFFFFFFFFFFFFFFFFFFFFFFFFFFFFFFFFFFFFFFF AND DUP2 MSTORE PUSH1 0x20 ADD PUSH1 0x0 DUP2 MSTORE POP SWAP1 JUMP JUMPDEST PUSH1 0x0 PUSH1 0x40 MLOAD SWAP1 POP SWAP1 JUMP JUMPDEST PUSH1 0x0 DUP1 REVERT JUMPDEST PUSH1 0x0 DUP1 REVERT JUMPDEST PUSH1 0x0 PUSH20 0xFFFFFFFFFFFFFFFFFFFFFFFFFFFFFFFFFFFFFFFF DUP3 AND SWAP1 POP SWAP2 SWAP1 POP JUMP JUMPDEST PUSH1 0x0 PUSH2 0x13E9 DUP3 PUSH2 0x13BE JUMP JUMPDEST SWAP1 POP SWAP2 SWAP1 POP JUMP JUMPDEST PUSH2 0x13F9 DUP2 PUSH2 0x13DE JUMP JUMPDEST DUP2 EQ PUSH2 0x1404 JUMPI PUSH1 0x0 DUP1 REVERT JUMPDEST POP JUMP JUMPDEST PUSH1 0x0 DUP2 CALLDATALOAD SWAP1 POP PUSH2 0x1416 DUP2 PUSH2 0x13F0 JUMP JUMPDEST SWAP3 SWAP2 POP POP JUMP JUMPDEST PUSH1 0x0 PUSH1 0x20 DUP3 DUP5 SUB SLT ISZERO PUSH2 0x1432 JUMPI PUSH2 0x1431 PUSH2 0x13B4 JUMP JUMPDEST JUMPDEST PUSH1 0x0 PUSH2 0x1440 DUP5 DUP3 DUP6 ADD PUSH2 0x1407 JUMP JUMPDEST SWAP2 POP POP SWAP3 SWAP2 POP POP JUMP JUMPDEST PUSH2 0x1452 DUP2 PUSH2 0x13DE JUMP JUMPDEST DUP3 MSTORE POP POP JUMP JUMPDEST PUSH1 0x0 PUSH1 0x20 DUP3 ADD SWAP1 POP PUSH2 0x146D PUSH1 0x0 DUP4 ADD DUP5 PUSH2 0x1449 JUMP JUMPDEST SWAP3 SWAP2 POP POP JUMP JUMPDEST PUSH1 0x0 DUP1 REVERT JUMPDEST PUSH1 0x0 PUSH1 0x60 DUP3 DUP5 SUB SLT ISZERO PUSH2 0x148E JUMPI PUSH2 0x148D PUSH2 0x1473 JUMP JUMPDEST JUMPDEST DUP2 SWAP1 POP SWAP3 SWAP2 POP POP JUMP JUMPDEST PUSH1 0x0 DUP1 REVERT JUMPDEST PUSH1 0x0 DUP1 REVERT JUMPDEST PUSH1 0x0 DUP1 REVERT JUMPDEST PUSH1 0x0 DUP1 DUP4 PUSH1 0x1F DUP5 ADD SLT PUSH2 0x14BC JUMPI PUSH2 0x14BB PUSH2 0x1497 JUMP JUMPDEST JUMPDEST DUP3 CALLDATALOAD SWAP1 POP PUSH8 0xFFFFFFFFFFFFFFFF DUP2 GT ISZERO PUSH2 0x14D9 JUMPI PUSH2 0x14D8 PUSH2 0x149C JUMP JUMPDEST JUMPDEST PUSH1 0x20 DUP4 ADD SWAP2 POP DUP4 PUSH1 0x1 DUP3 MUL DUP4 ADD GT ISZERO PUSH2 0x14F5 JUMPI PUSH2 0x14F4 PUSH2 0x14A1 JUMP JUMPDEST JUMPDEST SWAP3 POP SWAP3 SWAP1 POP JUMP JUMPDEST PUSH1 0x0 DUP1 PUSH1 0x0 PUSH1 0x80 DUP5 DUP7 SUB SLT ISZERO PUSH2 0x1515 JUMPI PUSH2 0x1514 PUSH2 0x13B4 JUMP JUMPDEST JUMPDEST PUSH1 0x0 PUSH2 0x1523 DUP7 DUP3 DUP8 ADD PUSH2 0x1478 JUMP JUMPDEST SWAP4 POP POP PUSH1 0x60 DUP5 ADD CALLDATALOAD PUSH8 0xFFFFFFFFFFFFFFFF DUP2 GT ISZERO PUSH2 0x1544 JUMPI PUSH2 0x1543 PUSH2 0x13B9 JUMP JUMPDEST JUMPDEST PUSH2 0x1550 DUP7 DUP3 DUP8 ADD PUSH2 0x14A6 JUMP JUMPDEST SWAP3 POP SWAP3 POP POP SWAP3 POP SWAP3 POP SWAP3 JUMP JUMPDEST PUSH1 0x0 DUP2 MLOAD SWAP1 POP SWAP2 SWAP1 POP JUMP JUMPDEST PUSH1 0x0 DUP3 DUP3 MSTORE PUSH1 0x20 DUP3 ADD SWAP1 POP SWAP3 SWAP2 POP POP JUMP JUMPDEST PUSH1 0x0 JUMPDEST DUP4 DUP2 LT ISZERO PUSH2 0x1596 JUMPI DUP1 DUP3 ADD MLOAD DUP2 DUP5 ADD MSTORE PUSH1 0x20 DUP2 ADD SWAP1 POP PUSH2 0x157B JUMP JUMPDEST PUSH1 0x0 DUP5 DUP5 ADD MSTORE POP POP POP POP JUMP JUMPDEST PUSH1 0x0 PUSH1 0x1F NOT PUSH1 0x1F DUP4 ADD AND SWAP1 POP SWAP2 SWAP1 POP JUMP JUMPDEST PUSH1 0x0 PUSH2 0x15BE DUP3 PUSH2 0x155C JUMP JUMPDEST PUSH2 0x15C8 DUP2 DUP6 PUSH2 0x1567 JUMP JUMPDEST SWAP4 POP PUSH2 0x15D8 DUP2 DUP6 PUSH1 0x20 DUP7 ADD PUSH2 0x1578 JUMP JUMPDEST PUSH2 0x15E1 DUP2 PUSH2 0x15A2 JUMP JUMPDEST DUP5 ADD SWAP2 POP POP SWAP3 SWAP2 POP POP JUMP JUMPDEST PUSH1 0x0 PUSH1 0x20 DUP3 ADD SWAP1 POP DUP2 DUP2 SUB PUSH1 0x0 DUP4 ADD MSTORE PUSH2 0x1606 DUP2 DUP5 PUSH2 0x15B3 JUMP JUMPDEST SWAP1 POP SWAP3 SWAP2 POP POP JUMP JUMPDEST PUSH1 0x0 DUP1 PUSH1 0x40 DUP4 DUP6 SUB SLT ISZERO PUSH2 0x1625 JUMPI PUSH2 0x1624 PUSH2 0x13B4 JUMP JUMPDEST JUMPDEST PUSH1 0x0 PUSH2 0x1633 DUP6 DUP3 DUP7 ADD PUSH2 0x1407 JUMP JUMPDEST SWAP3 POP POP PUSH1 0x20 PUSH2 0x1644 DUP6 DUP3 DUP7 ADD PUSH2 0x1407 JUMP JUMPDEST SWAP2 POP POP SWAP3 POP SWAP3 SWAP1 POP JUMP JUMPDEST PUSH2 0x1657 DUP2 PUSH2 0x13DE JUMP JUMPDEST DUP3 MSTORE POP POP JUMP JUMPDEST PUSH1 0x0 DUP2 SWAP1 POP SWAP2 SWAP1 POP JUMP JUMPDEST PUSH2 0x1670 DUP2 PUSH2 0x165D JUMP JUMPDEST DUP3 MSTORE POP POP JUMP JUMPDEST PUSH1 0x60 DUP3 ADD PUSH1 0x0 DUP3 ADD MLOAD PUSH2 0x168C PUSH1 0x0 DUP6 ADD DUP3 PUSH2 0x164E JUMP JUMPDEST POP PUSH1 0x20 DUP3 ADD MLOAD PUSH2 0x169F PUSH1 0x20 DUP6 ADD DUP3 PUSH2 0x164E JUMP JUMPDEST POP PUSH1 0x40 DUP3 ADD MLOAD PUSH2 0x16B2 PUSH1 0x40 DUP6 ADD DUP3 PUSH2 0x1667 JUMP JUMPDEST POP POP POP POP JUMP JUMPDEST PUSH1 0x0 PUSH1 0x80 DUP3 ADD SWAP1 POP PUSH2 0x16CD PUSH1 0x0 DUP4 ADD DUP6 PUSH2 0x1676 JUMP JUMPDEST DUP2 DUP2 SUB PUSH1 0x60 DUP4 ADD MSTORE PUSH2 0x16DF DUP2 DUP5 PUSH2 0x15B3 JUMP JUMPDEST SWAP1 POP SWAP4 SWAP3 POP POP POP JUMP JUMPDEST PUSH2 0x16F1 DUP2 PUSH2 0x165D JUMP JUMPDEST DUP3 MSTORE POP POP JUMP JUMPDEST PUSH1 0x0 PUSH1 0x20 DUP3 ADD SWAP1 POP PUSH2 0x170C PUSH1 0x0 DUP4 ADD DUP5 PUSH2 0x16E8 JUMP JUMPDEST SWAP3 SWAP2 POP POP JUMP JUMPDEST PUSH32 0x5361666520616C72656164792065786973747320666F72206F776E6572000000 PUSH1 0x0 DUP3 ADD MSTORE POP JUMP JUMPDEST PUSH1 0x0 PUSH2 0x1748 PUSH1 0x1D DUP4 PUSH2 0x1567 JUMP JUMPDEST SWAP2 POP PUSH2 0x1753 DUP3 PUSH2 0x1712 JUMP JUMPDEST PUSH1 0x20 DUP3 ADD SWAP1 POP SWAP2 SWAP1 POP JUMP JUMPDEST PUSH1 0x0 PUSH1 0x20 DUP3 ADD SWAP1 POP DUP2 DUP2 SUB PUSH1 0x0 DUP4 ADD MSTORE PUSH2 0x1777 DUP2 PUSH2 0x173B JUMP JUMPDEST SWAP1 POP SWAP2 SWAP1 POP JUMP JUMPDEST PUSH32 0x4E487B7100000000000000000000000000000000000000000000000000000000 PUSH1 0x0 MSTORE PUSH1 0x41 PUSH1 0x4 MSTORE PUSH1 0x24 PUSH1 0x0 REVERT JUMPDEST PUSH32 0x4E487B7100000000000000000000000000000000000000000000000000000000 PUSH1 0x0 MSTORE PUSH1 0x32 PUSH1 0x4 MSTORE PUSH1 0x24 PUSH1 0x0 REVERT JUMPDEST PUSH1 0x0 DUP2 MLOAD SWAP1 POP SWAP2 SWAP1 POP JUMP JUMPDEST PUSH1 0x0 DUP3 DUP3 MSTORE PUSH1 0x20 DUP3 ADD SWAP1 POP SWAP3 SWAP2 POP POP JUMP JUMPDEST PUSH1 0x0 DUP2 SWAP1 POP PUSH1 0x20 DUP3 ADD SWAP1 POP SWAP2 SWAP1 POP JUMP JUMPDEST PUSH1 0x0 PUSH2 0x1814 DUP4 DUP4 PUSH2 0x164E JUMP JUMPDEST PUSH1 0x20 DUP4 ADD SWAP1 POP SWAP3 SWAP2 POP POP JUMP JUMPDEST PUSH1 0x0 PUSH1 0x20 DUP3 ADD SWAP1 POP SWAP2 SWAP1 POP JUMP JUMPDEST PUSH1 0x0 PUSH2 0x1838 DUP3 PUSH2 0x17DC JUMP JUMPDEST PUSH2 0x1842 DUP2 DUP6 PUSH2 0x17E7 JUMP JUMPDEST SWAP4 POP PUSH2 0x184D DUP4 PUSH2 0x17F8 JUMP JUMPDEST DUP1 PUSH1 0x0 JUMPDEST DUP4 DUP2 LT ISZERO PUSH2 0x187E JUMPI DUP2 MLOAD PUSH2 0x1865 DUP9 DUP3 PUSH2 0x1808 JUMP JUMPDEST SWAP8 POP PUSH2 0x1870 DUP4 PUSH2 0x1820 JUMP JUMPDEST SWAP3 POP POP PUSH1 0x1 DUP2 ADD SWAP1 POP PUSH2 0x1851 JUMP JUMPDEST POP DUP6 SWAP4 POP POP POP POP SWAP3 SWAP2 POP POP JUMP JUMPDEST PUSH1 0x0 DUP2 MLOAD SWAP1 POP SWAP2 SWAP1 POP JUMP JUMPDEST PUSH1 0x0 DUP3 DUP3 MSTORE PUSH1 0x20 DUP3 ADD SWAP1 POP SWAP3 SWAP2 POP POP JUMP JUMPDEST PUSH1 0x0 PUSH2 0x18B2 DUP3 PUSH2 0x188B JUMP JUMPDEST PUSH2 0x18BC DUP2 DUP6 PUSH2 0x1896 JUMP JUMPDEST SWAP4 POP PUSH2 0x18CC DUP2 DUP6 PUSH1 0x20 DUP7 ADD PUSH2 0x1578 JUMP JUMPDEST PUSH2 0x18D5 DUP2 PUSH2 0x15A2 JUMP JUMPDEST DUP5 ADD SWAP2 POP POP SWAP3 SWAP2 POP POP JUMP JUMPDEST PUSH1 0x0 PUSH2 0x120 DUP3 ADD SWAP1 POP DUP2 DUP2 SUB PUSH1 0x0 DUP4 ADD MSTORE PUSH2 0x18FB DUP2 DUP13 PUSH2 0x182D JUMP JUMPDEST SWAP1 POP PUSH2 0x190A PUSH1 0x20 DUP4 ADD DUP12 PUSH2 0x16E8 JUMP JUMPDEST PUSH2 0x1917 PUSH1 0x40 DUP4 ADD DUP11 PUSH2 0x1449 JUMP JUMPDEST DUP2 DUP2 SUB PUSH1 0x60 DUP4 ADD MSTORE PUSH2 0x1929 DUP2 DUP10 PUSH2 0x18A7 JUMP JUMPDEST SWAP1 POP PUSH2 0x1938 PUSH1 0x80 DUP4 ADD DUP9 PUSH2 0x1449 JUMP JUMPDEST PUSH2 0x1945 PUSH1 0xA0 DUP4 ADD DUP8 PUSH2 0x1449 JUMP JUMPDEST PUSH2 0x1952 PUSH1 0xC0 DUP4 ADD DUP7 PUSH2 0x1449 JUMP JUMPDEST PUSH2 0x195F PUSH1 0xE0 DUP4 ADD DUP6 PUSH2 0x16E8 JUMP JUMPDEST PUSH2 0x196D PUSH2 0x100 DUP4 ADD DUP5 PUSH2 0x1449 JUMP JUMPDEST SWAP11 SWAP10 POP POP POP POP POP POP POP POP POP POP JUMP JUMPDEST PUSH1 0x0 PUSH1 0x60 DUP3 ADD SWAP1 POP PUSH2 0x1990 PUSH1 0x0 DUP4 ADD DUP7 PUSH2 0x1449 JUMP JUMPDEST DUP2 DUP2 SUB PUSH1 0x20 DUP4 ADD MSTORE PUSH2 0x19A2 DUP2 DUP6 PUSH2 0x18A7 JUMP JUMPDEST SWAP1 POP PUSH2 0x19B1 PUSH1 0x40 DUP4 ADD DUP5 PUSH2 0x16E8 JUMP JUMPDEST SWAP5 SWAP4 POP POP POP POP JUMP JUMPDEST PUSH1 0x0 DUP2 MLOAD SWAP1 POP PUSH2 0x19C8 DUP2 PUSH2 0x13F0 JUMP JUMPDEST SWAP3 SWAP2 POP POP JUMP JUMPDEST PUSH1 0x0 PUSH1 0x20 DUP3 DUP5 SUB SLT ISZERO PUSH2 0x19E4 JUMPI PUSH2 0x19E3 PUSH2 0x13B4 JUMP JUMPDEST JUMPDEST PUSH1 0x0 PUSH2 0x19F2 DUP5 DUP3 DUP6 ADD PUSH2 0x19B9 JUMP JUMPDEST SWAP2 POP POP SWAP3 SWAP2 POP POP JUMP JUMPDEST PUSH1 0x0 DUP2 SWAP1 POP SWAP2 SWAP1 POP JUMP JUMPDEST PUSH1 0x0 DUP2 SWAP1 POP SWAP2 SWAP1 POP JUMP JUMPDEST PUSH1 0x0 PUSH2 0x1A2A PUSH2 0x1A25 PUSH2 0x1A20 DUP5 PUSH2 0x19FB JUMP JUMPDEST PUSH2 0x1A05 JUMP JUMPDEST PUSH2 0x165D JUMP JUMPDEST SWAP1 POP SWAP2 SWAP1 POP JUMP JUMPDEST PUSH2 0x1A3A DUP2 PUSH2 0x1A0F JUMP JUMPDEST DUP3 MSTORE POP POP JUMP JUMPDEST PUSH1 0x0 PUSH1 0x40 DUP3 ADD SWAP1 POP PUSH2 0x1A55 PUSH1 0x0 DUP4 ADD DUP6 PUSH2 0x1449 JUMP JUMPDEST PUSH2 0x1A62 PUSH1 0x20 DUP4 ADD DUP5 PUSH2 0x1A31 JUMP JUMPDEST SWAP4 SWAP3 POP POP POP JUMP JUMPDEST PUSH1 0x0 PUSH1 0x60 DUP3 ADD SWAP1 POP PUSH2 0x1A7E PUSH1 0x0 DUP4 ADD DUP7 PUSH2 0x1449 JUMP JUMPDEST PUSH2 0x1A8B PUSH1 0x20 DUP4 ADD DUP6 PUSH2 0x1449 JUMP JUMPDEST PUSH2 0x1A98 PUSH1 0x40 DUP4 ADD DUP5 PUSH2 0x1A31 JUMP JUMPDEST SWAP5 SWAP4 POP POP POP POP JUMP JUMPDEST PUSH32 0x4E487B7100000000000000000000000000000000000000000000000000000000 PUSH1 0x0 MSTORE PUSH1 0x22 PUSH1 0x4 MSTORE PUSH1 0x24 PUSH1 0x0 REVERT JUMPDEST PUSH1 0x0 PUSH1 0x2 DUP3 DIV SWAP1 POP PUSH1 0x1 DUP3 AND DUP1 PUSH2 0x1AE7 JUMPI PUSH1 0x7F DUP3 AND SWAP2 POP JUMPDEST PUSH1 0x20 DUP3 LT DUP2 SUB PUSH2 0x1AFA JUMPI PUSH2 0x1AF9 PUSH2 0x1AA0 JUMP JUMPDEST JUMPDEST POP SWAP2 SWAP1 POP JUMP JUMPDEST PUSH32 0x4E487B7100000000000000000000000000000000000000000000000000000000 PUSH1 0x0 MSTORE PUSH1 0x11 PUSH1 0x4 MSTORE PUSH1 0x24 PUSH1 0x0 REVERT JUMPDEST PUSH1 0x0 PUSH2 0x1B3A DUP3 PUSH2 0x165D JUMP JUMPDEST SWAP2 POP PUSH2 0x1B45 DUP4 PUSH2 0x165D JUMP JUMPDEST SWAP3 POP DUP3 DUP3 SUB SWAP1 POP DUP2 DUP2 GT ISZERO PUSH2 0x1B5D JUMPI PUSH2 0x1B5C PUSH2 0x1B00 JUMP JUMPDEST JUMPDEST SWAP3 SWAP2 POP POP JUMP JUMPDEST PUSH32 0x696E76616C6964207369676E6174757265000000000000000000000000000000 PUSH1 0x0 DUP3 ADD MSTORE POP JUMP JUMPDEST PUSH1 0x0 PUSH2 0x1B99 PUSH1 0x11 DUP4 PUSH2 0x1567 JUMP JUMPDEST SWAP2 POP PUSH2 0x1BA4 DUP3 PUSH2 0x1B63 JUMP JUMPDEST PUSH1 0x20 DUP3 ADD SWAP1 POP SWAP2 SWAP1 POP JUMP JUMPDEST PUSH1 0x0 PUSH1 0x20 DUP3 ADD SWAP1 POP DUP2 DUP2 SUB PUSH1 0x0 DUP4 ADD MSTORE PUSH2 0x1BC8 DUP2 PUSH2 0x1B8C JUMP JUMPDEST SWAP1 POP SWAP2 SWAP1 POP JUMP JUMPDEST PUSH32 0x5265717565737420697320746F6F206F6C640000000000000000000000000000 PUSH1 0x0 DUP3 ADD MSTORE POP JUMP JUMPDEST PUSH1 0x0 PUSH2 0x1C05 PUSH1 0x12 DUP4 PUSH2 0x1567 JUMP JUMPDEST SWAP2 POP PUSH2 0x1C10 DUP3 PUSH2 0x1BCF JUMP JUMPDEST PUSH1 0x20 DUP3 ADD SWAP1 POP SWAP2 SWAP1 POP JUMP JUMPDEST PUSH1 0x0 PUSH1 0x20 DUP3 ADD SWAP1 POP DUP2 DUP2 SUB PUSH1 0x0 DUP4 ADD MSTORE PUSH2 0x1C34 DUP2 PUSH2 0x1BF8 JUMP JUMPDEST SWAP1 POP SWAP2 SWAP1 POP JUMP JUMPDEST PUSH1 0x0 DUP2 SWAP1 POP SWAP3 SWAP2 POP POP JUMP JUMPDEST PUSH1 0x0 DUP2 SWAP1 POP DUP2 PUSH1 0x0 MSTORE PUSH1 0x20 PUSH1 0x0 KECCAK256 SWAP1 POP SWAP2 SWAP1 POP JUMP JUMPDEST PUSH1 0x0 DUP2 SLOAD PUSH2 0x1C68 DUP2 PUSH2 0x1ACF JUMP JUMPDEST PUSH2 0x1C72 DUP2 DUP7 PUSH2 0x1C3B JUMP JUMPDEST SWAP5 POP PUSH1 0x1 DUP3 AND PUSH1 0x0 DUP2 EQ PUSH2 0x1C8D JUMPI PUSH1 0x1 DUP2 EQ PUSH2 0x1CA2 JUMPI PUSH2 0x1CD5 JUMP JUMPDEST PUSH1 0xFF NOT DUP4 AND DUP7 MSTORE DUP2 ISZERO ISZERO DUP3 MUL DUP7 ADD SWAP4 POP PUSH2 0x1CD5 JUMP JUMPDEST PUSH2 0x1CAB DUP6 PUSH2 0x1C46 JUMP JUMPDEST PUSH1 0x0 JUMPDEST DUP4 DUP2 LT ISZERO PUSH2 0x1CCD JUMPI DUP2 SLOAD DUP2 DUP10 ADD MSTORE PUSH1 0x1 DUP3 ADD SWAP2 POP PUSH1 0x20 DUP2 ADD SWAP1 POP PUSH2 0x1CAE JUMP JUMPDEST DUP4 DUP9 ADD SWAP6 POP POP POP JUMPDEST POP POP POP SWAP3 SWAP2 POP POP JUMP JUMPDEST PUSH32 0xA0A4D653A200000000000000000000000000000000000000000000000000000 PUSH1 0x0 DUP3 ADD MSTORE POP JUMP JUMPDEST PUSH1 0x0 PUSH2 0x1D14 PUSH1 0x6 DUP4 PUSH2 0x1C3B JUMP JUMPDEST SWAP2 POP PUSH2 0x1D1F DUP3 PUSH2 0x1CDE JUMP JUMPDEST PUSH1 0x6 DUP3 ADD SWAP1 POP SWAP2 SWAP1 POP JUMP JUMPDEST PUSH1 0x0 PUSH2 0x1D35 DUP3 PUSH2 0x155C JUMP JUMPDEST PUSH2 0x1D3F DUP2 DUP6 PUSH2 0x1C3B JUMP JUMPDEST SWAP4 POP PUSH2 0x1D4F DUP2 DUP6 PUSH1 0x20 DUP7 ADD PUSH2 0x1578 JUMP JUMPDEST DUP1 DUP5 ADD SWAP2 POP POP SWAP3 SWAP2 POP POP JUMP JUMPDEST PUSH32 0xA4465766963653A200000000000000000000000000000000000000000000000 PUSH1 0x0 DUP3 ADD MSTORE POP JUMP JUMPDEST PUSH1 0x0 PUSH2 0x1D91 PUSH1 0x9 DUP4 PUSH2 0x1C3B JUMP JUMPDEST SWAP2 POP PUSH2 0x1D9C DUP3 PUSH2 0x1D5B JUMP JUMPDEST PUSH1 0x9 DUP3 ADD SWAP1 POP SWAP2 SWAP1 POP JUMP JUMPDEST PUSH32 0xA4973737565642061743A200000000000000000000000000000000000000000 PUSH1 0x0 DUP3 ADD MSTORE POP JUMP JUMPDEST PUSH1 0x0 PUSH2 0x1DDD PUSH1 0xC DUP4 PUSH2 0x1C3B JUMP JUMPDEST SWAP2 POP PUSH2 0x1DE8 DUP3 PUSH2 0x1DA7 JUMP JUMPDEST PUSH1 0xC DUP3 ADD SWAP1 POP SWAP2 SWAP1 POP JUMP JUMPDEST PUSH1 0x0 PUSH2 0x1DFF DUP3 DUP8 PUSH2 0x1C5B JUMP JUMPDEST SWAP2 POP PUSH2 0x1E0A DUP3 PUSH2 0x1D07 JUMP JUMPDEST SWAP2 POP PUSH2 0x1E16 DUP3 DUP7 PUSH2 0x1D2A JUMP JUMPDEST SWAP2 POP PUSH2 0x1E21 DUP3 PUSH2 0x1D84 JUMP JUMPDEST SWAP2 POP PUSH2 0x1E2D DUP3 DUP6 PUSH2 0x1D2A JUMP JUMPDEST SWAP2 POP PUSH2 0x1E38 DUP3 PUSH2 0x1DD0 JUMP JUMPDEST SWAP2 POP PUSH2 0x1E44 DUP3 DUP5 PUSH2 0x1D2A JUMP JUMPDEST SWAP2 POP DUP2 SWAP1 POP SWAP6 SWAP5 POP POP POP POP POP JUMP JUMPDEST PUSH1 0x0 DUP1 REVERT JUMPDEST PUSH2 0x1E60 DUP3 PUSH2 0x15A2 JUMP JUMPDEST DUP2 ADD DUP2 DUP2 LT PUSH8 0xFFFFFFFFFFFFFFFF DUP3 GT OR ISZERO PUSH2 0x1E7F JUMPI PUSH2 0x1E7E PUSH2 0x177E JUMP JUMPDEST JUMPDEST DUP1 PUSH1 0x40 MSTORE POP POP POP JUMP JUMPDEST PUSH1 0x0 PUSH2 0x1E92 PUSH2 0x13AA JUMP JUMPDEST SWAP1 POP PUSH2 0x1E9E DUP3 DUP3 PUSH2 0x1E57 JUMP JUMPDEST SWAP2 SWAP1 POP JUMP JUMPDEST PUSH2 0x1EAC DUP2 PUSH2 0x165D JUMP JUMPDEST DUP2 EQ PUSH2 0x1EB7 JUMPI PUSH1 0x0 DUP1 REVERT JUMPDEST POP JUMP JUMPDEST PUSH1 0x0 DUP2 CALLDATALOAD SWAP1 POP PUSH2 0x1EC9 DUP2 PUSH2 0x1EA3 JUMP JUMPDEST SWAP3 SWAP2 POP POP JUMP JUMPDEST PUSH1 0x0 PUSH1 0x60 DUP3 DUP5 SUB SLT ISZERO PUSH2 0x1EE5 JUMPI PUSH2 0x1EE4 PUSH2 0x1E52 JUMP JUMPDEST JUMPDEST PUSH2 0x1EEF PUSH1 0x60 PUSH2 0x1E88 JUMP JUMPDEST SWAP1 POP PUSH1 0x0 PUSH2 0x1EFF DUP5 DUP3 DUP6 ADD PUSH2 0x1407 JUMP JUMPDEST PUSH1 0x0 DUP4 ADD MSTORE POP PUSH1 0x20 PUSH2 0x1F13 DUP5 DUP3 DUP6 ADD PUSH2 0x1407 JUMP JUMPDEST PUSH1 0x20 DUP4 ADD MSTORE POP PUSH1 0x40 PUSH2 0x1F27 DUP5 DUP3 DUP6 ADD PUSH2 0x1EBA JUMP JUMPDEST PUSH1 0x40 DUP4 ADD MSTORE POP SWAP3 SWAP2 POP POP JUMP JUMPDEST PUSH1 0x0 PUSH1 0x60 DUP3 DUP5 SUB SLT ISZERO PUSH2 0x1F49 JUMPI PUSH2 0x1F48 PUSH2 0x13B4 JUMP JUMPDEST JUMPDEST PUSH1 0x0 PUSH2 0x1F57 DUP5 DUP3 DUP6 ADD PUSH2 0x1ECF JUMP JUMPDEST SWAP2 POP POP SWAP3 SWAP2 POP POP JUMP JUMPDEST PUSH32 0x4E487B7100000000000000000000000000000000000000000000000000000000 PUSH1 0x0 MSTORE PUSH1 0x12 PUSH1 0x4 MSTORE PUSH1 0x24 PUSH1 0x0 REVERT JUMPDEST PUSH32 0x19457468657265756D205369676E6564204D6573736167653A0A000000000000 PUSH1 0x0 DUP3 ADD MSTORE POP JUMP JUMPDEST PUSH1 0x0 PUSH2 0x1FC5 PUSH1 0x1A DUP4 PUSH2 0x1C3B JUMP JUMPDEST SWAP2 POP PUSH2 0x1FD0 DUP3 PUSH2 0x1F8F JUMP JUMPDEST PUSH1 0x1A DUP3 ADD SWAP1 POP SWAP2 SWAP1 POP JUMP JUMPDEST PUSH1 0x0 DUP2 SWAP1 POP SWAP3 SWAP2 POP POP JUMP JUMPDEST PUSH1 0x0 PUSH2 0x1FF1 DUP3 PUSH2 0x188B JUMP JUMPDEST PUSH2 0x1FFB DUP2 DUP6 PUSH2 0x1FDB JUMP JUMPDEST SWAP4 POP PUSH2 0x200B DUP2 DUP6 PUSH1 0x20 DUP7 ADD PUSH2 0x1578 JUMP JUMPDEST DUP1 DUP5 ADD SWAP2 POP POP SWAP3 SWAP2 POP POP JUMP JUMPDEST PUSH1 0x0 PUSH2 0x2022 DUP3 PUSH2 0x1FB8 JUMP JUMPDEST SWAP2 POP PUSH2 0x202E DUP3 DUP6 PUSH2 0x1D2A JUMP JUMPDEST SWAP2 POP PUSH2 0x203A DUP3 DUP5 PUSH2 0x1FE6 JUMP JUMPDEST SWAP2 POP DUP2 SWAP1 POP SWAP4 SWAP3 POP POP POP JUMP JUMPDEST PUSH32 0x4E487B7100000000000000000000000000000000000000000000000000000000 PUSH1 0x0 MSTORE PUSH1 0x21 PUSH1 0x4 MSTORE PUSH1 0x24 PUSH1 0x0 REVERT JUMPDEST PUSH32 0x45434453413A20696E76616C6964207369676E61747572650000000000000000 PUSH1 0x0 DUP3 ADD MSTORE POP JUMP JUMPDEST PUSH1 0x0 PUSH2 0x20AB PUSH1 0x18 DUP4 PUSH2 0x1567 JUMP JUMPDEST SWAP2 POP PUSH2 0x20B6 DUP3 PUSH2 0x2075 JUMP JUMPDEST PUSH1 0x20 DUP3 ADD SWAP1 POP SWAP2 SWAP1 POP JUMP JUMPDEST PUSH1 0x0 PUSH1 0x20 DUP3 ADD SWAP1 POP DUP2 DUP2 SUB PUSH1 0x0 DUP4 ADD MSTORE PUSH2 0x20DA DUP2 PUSH2 0x209E JUMP JUMPDEST SWAP1 POP SWAP2 SWAP1 POP JUMP JUMPDEST PUSH32 0x45434453413A20696E76616C6964207369676E6174757265206C656E67746800 PUSH1 0x0 DUP3 ADD MSTORE POP JUMP JUMPDEST PUSH1 0x0 PUSH2 0x2117 PUSH1 0x1F DUP4 PUSH2 0x1567 JUMP JUMPDEST SWAP2 POP PUSH2 0x2122 DUP3 PUSH2 0x20E1 JUMP JUMPDEST PUSH1 0x20 DUP3 ADD SWAP1 POP SWAP2 SWAP1 POP JUMP JUMPDEST PUSH1 0x0 PUSH1 0x20 DUP3 ADD SWAP1 POP DUP2 DUP2 SUB PUSH1 0x0 DUP4 ADD MSTORE PUSH2 0x2146 DUP2 PUSH2 0x210A JUMP JUMPDEST SWAP1 POP SWAP2 SWAP1 POP JUMP JUMPDEST PUSH32 0x45434453413A20696E76616C6964207369676E6174757265202773272076616C PUSH1 0x0 DUP3 ADD MSTORE PUSH32 0x7565000000000000000000000000000000000000000000000000000000000000 PUSH1 0x20 DUP3 ADD MSTORE POP JUMP JUMPDEST PUSH1 0x0 PUSH2 0x21A9 PUSH1 0x22 DUP4 PUSH2 0x1567 JUMP JUMPDEST SWAP2 POP PUSH2 0x21B4 DUP3 PUSH2 0x214D JUMP JUMPDEST PUSH1 0x40 DUP3 ADD SWAP1 POP SWAP2 SWAP1 POP JUMP JUMPDEST PUSH1 0x0 PUSH1 0x20 DUP3 ADD SWAP1 POP DUP2 DUP2 SUB PUSH1 0x0 DUP4 ADD MSTORE PUSH2 0x21D8 DUP2 PUSH2 0x219C JUMP JUMPDEST SWAP1 POP SWAP2 SWAP1 POP JUMP JUMPDEST PUSH1 0x0 PUSH2 0x21EA DUP3 PUSH2 0x165D JUMP JUMPDEST SWAP2 POP PUSH2 0x21F5 DUP4 PUSH2 0x165D JUMP JUMPDEST SWAP3 POP DUP3 DUP3 MUL PUSH2 0x2203 DUP2 PUSH2 0x165D JUMP JUMPDEST SWAP2 POP DUP3 DUP3 DIV DUP5 EQ DUP4 ISZERO OR PUSH2 0x221A JUMPI PUSH2 0x2219 PUSH2 0x1B00 JUMP JUMPDEST JUMPDEST POP SWAP3 SWAP2 POP POP JUMP JUMPDEST PUSH1 0x0 PUSH2 0x222C DUP3 PUSH2 0x165D JUMP JUMPDEST SWAP2 POP PUSH2 0x2237 DUP4 PUSH2 0x165D JUMP JUMPDEST SWAP3 POP DUP3 DUP3 ADD SWAP1 POP DUP1 DUP3 GT ISZERO PUSH2 0x224F JUMPI PUSH2 0x224E PUSH2 0x1B00 JUMP JUMPDEST JUMPDEST SWAP3 SWAP2 POP POP JUMP JUMPDEST PUSH1 0x0 PUSH2 0x2260 DUP3 PUSH2 0x165D JUMP JUMPDEST SWAP2 POP PUSH1 0x0 DUP3 SUB PUSH2 0x2273 JUMPI PUSH2 0x2272 PUSH2 0x1B00 JUMP JUMPDEST JUMPDEST PUSH1 0x1 DUP3 SUB SWAP1 POP SWAP2 SWAP1 POP JUMP JUMPDEST PUSH32 0x537472696E67733A20686578206C656E67746820696E73756666696369656E74 PUSH1 0x0 DUP3 ADD MSTORE POP JUMP JUMPDEST PUSH1 0x0 PUSH2 0x22B4 PUSH1 0x20 DUP4 PUSH2 0x1567 JUMP JUMPDEST SWAP2 POP PUSH2 0x22BF DUP3 PUSH2 0x227E JUMP JUMPDEST PUSH1 0x20 DUP3 ADD SWAP1 POP SWAP2 SWAP1 POP JUMP JUMPDEST PUSH1 0x0 PUSH1 0x20 DUP3 ADD SWAP1 POP DUP2 DUP2 SUB PUSH1 0x0 DUP4 ADD MSTORE PUSH2 0x22E3 DUP2 PUSH2 0x22A7 JUMP JUMPDEST SWAP1 POP SWAP2 SWAP1 POP JUMP JUMPDEST PUSH1 0x0 DUP2 SWAP1 POP SWAP2 SWAP1 POP JUMP JUMPDEST PUSH2 0x22FD DUP2 PUSH2 0x22EA JUMP JUMPDEST DUP3 MSTORE POP POP JUMP JUMPDEST PUSH1 0x0 PUSH1 0xFF DUP3 AND SWAP1 POP SWAP2 SWAP1 POP JUMP JUMPDEST PUSH2 0x2319 DUP2 PUSH2 0x2303 JUMP JUMPDEST DUP3 MSTORE POP POP JUMP JUMPDEST PUSH1 0x0 PUSH1 0x80 DUP3 ADD SWAP1 POP PUSH2 0x2334 PUSH1 0x0 DUP4 ADD DUP8 PUSH2 0x22F4 JUMP JUMPDEST PUSH2 0x2341 PUSH1 0x20 DUP4 ADD DUP7 PUSH2 0x2310 JUMP JUMPDEST PUSH2 0x234E PUSH1 0x40 DUP4 ADD DUP6 PUSH2 0x22F4 JUMP JUMPDEST PUSH2 0x235B PUSH1 0x60 DUP4 ADD DUP5 PUSH2 0x22F4 JUMP JUMPDEST SWAP6 SWAP5 POP POP POP POP POP JUMP INVALID LOG2 PUSH5 0x6970667358 0x22 SLT KECCAK256 PREVRANDAO 0xB7 0x2C PUSH23 0x328D30B78976E07862DE2A9FC48DEE5DD67CD8FEC43363 PUSH24 0x5426C19264736F6C634300081300334920617574686F7269 PUSH27 0x6520746869732064657669636520746F2073656E64207472616E73 PUSH2 0x6374 PUSH10 0x6F6E73206F6E206D7920 PUSH3 0x656861 PUSH13 0x662E0000000000000000000000 "},"gasEstimates":{"creation":{"codeDepositCost":"1822800","executionCost":"infinite","totalCost":"infinite"},"external":{"CHAIN_ID()":"infinite","STATEMENT()":"infinite","createSafe((address,address,uint256),bytes)":"infinite","createTokenRequest(address,address)":"infinite","lengthOfToken()":"2495","ownerToSafe(address)":"infinite","safeToOwner(address)":"infinite"}},"methodIdentifiers":{"CHAIN_ID()":"85e1f4d0","STATEMENT()":"bebc479c","createSafe((address,address,uint256),bytes)":"24f669b4","createTokenRequest(address,address)":"b6ad16a8","lengthOfToken()":"cb2e6043","ownerToSafe(address)":"5e619a4a","safeToOwner(address)":"06634e88"}},"storageLayout":{"storage":[{"astId":1457,"contract":"contracts/WalletDeployer.sol:WalletDeployer","label":"STATEMENT","offset":0,"slot":"0","type":"t_string_storage"},{"astId":1460,"contract":"contracts/WalletDeployer.sol:WalletDeployer","label":"lengthOfToken","offset":0,"slot":"1","type":"t_uint256"},{"astId":1650,"contract":"contracts/WalletDeployer.sol:WalletDeployer","label":"CHAIN_ID","offset":0,"slot":"2","type":"t_string_storage"},{"astId":1670,"contract":"contracts/WalletDeployer.sol:WalletDeployer","label":"ownerToSafe","offset":0,"slot":"3","type":"t_mapping(t_address,t_address)"},{"astId":1674,"contract":"contracts/WalletDeployer.sol:WalletDeployer","label":"safeToOwner","offset":0,"slot":"4","type":"t_mapping(t_address,t_address)"}],"types":{"t_address":{"encoding":"inplace","label":"address","numberOfBytes":"20"},"t_mapping(t_address,t_address)":{"encoding":"mapping","key":"t_address","label":"mapping(address => address)","numberOfBytes":"32","value":"t_address"},"t_string_storage":{"encoding":"bytes","label":"string","numberOfBytes":"32"},"t_uint256":{"encoding":"inplace","label":"uint256","numberOfBytes":"32"}}},"userdoc":{"kind":"user","methods":{},"version":1}}}}