{"contracts/WalletDeployer.sol":{"WalletDeployer":{"abi":[{"inputs":[{"internalType":"address","name":"gnosisSafeContract","type":"address"},{"internalType":"address","name":"gnosisSafeProxyFactory","type":"address"},{"internalType":"address","name":"defaultFallbackHandler","type":"address"},{"internalType":"address","name":"setupHandler","type":"address"}],"stateMutability":"nonpayable","type":"constructor"},{"inputs":[],"name":"CHAIN_ID","outputs":[{"internalType":"string","name":"","type":"string"}],"stateMutability":"view","type":"function"},{"inputs":[],"name":"STATEMENT","outputs":[{"internalType":"string","name":"","type":"string"}],"stateMutability":"view","type":"function"},{"inputs":[{"components":[{"internalType":"address","name":"owner","type":"address"},{"internalType":"address","name":"device","type":"address"},{"internalType":"uint256","name":"issuedAt","type":"uint256"}],"internalType":"struct TokenAuthenticated.TokenRequest","name":"request","type":"tuple"},{"internalType":"bytes","name":"signature","type":"bytes"},{"internalType":"address","name":"englishOwnerAdder","type":"address"},{"internalType":"bytes","name":"firstTransaction","type":"bytes"}],"name":"createSafe","outputs":[],"stateMutability":"nonpayable","type":"function"},{"inputs":[{"internalType":"address","name":"owner","type":"address"},{"internalType":"address","name":"device","type":"address"}],"name":"createTokenRequest","outputs":[{"components":[{"internalType":"address","name":"owner","type":"address"},{"internalType":"address","name":"device","type":"address"},{"internalType":"uint256","name":"issuedAt","type":"uint256"}],"internalType":"struct TokenAuthenticated.TokenRequest","name":"request","type":"tuple"},{"internalType":"string","name":"","type":"string"}],"stateMutability":"view","type":"function"},{"inputs":[{"internalType":"bytes","name":"buffer","type":"bytes"}],"name":"iToHex","outputs":[{"internalType":"string","name":"","type":"string"}],"stateMutability":"pure","type":"function"},{"inputs":[],"name":"lengthOfToken","outputs":[{"internalType":"uint256","name":"","type":"uint256"}],"stateMutability":"view","type":"function"},{"inputs":[{"internalType":"address","name":"","type":"address"}],"name":"ownerToSafe","outputs":[{"internalType":"address","name":"","type":"address"}],"stateMutability":"view","type":"function"},{"inputs":[{"internalType":"address","name":"","type":"address"}],"name":"safeToOwner","outputs":[{"internalType":"address","name":"","type":"address"}],"stateMutability":"view","type":"function"}],"devdoc":{"details":"A contract that allows a user to create a Gnosis Safe wallet by signing an English message.      It sets up a a safe by calling the SafeStetup.sol contract which adds the correct modules and the TokenRequest      device and owner as owners to the safe.","kind":"dev","methods":{"createSafe((address,address,uint256),bytes,address,bytes)":{"details":"Creates a Gnosis Safe wallet using the provided WalletCreateRequest and signature.","params":{"request":"The WalletCreateRequest struct containing the owner address, first device address, and issuedAt block number.","signature":"The signature signed by the owner to verify ownership."}}},"title":"WalletDeployer","version":1},"evm":{"bytecode":{"linkReferences":{},"object":"610100604052600f6001553480156200001757600080fd5b506040516200319e3803806200319e83398181016040528101906200003d91906200041b565b6040518060600160405280603a815260200162003164603a9139806000908162000068919062000707565b50506200007b466200016660201b60201c565b600290816200008b919062000707565b508373ffffffffffffffffffffffffffffffffffffffff1660808173ffffffffffffffffffffffffffffffffffffffff16815250508273ffffffffffffffffffffffffffffffffffffffff1660a08173ffffffffffffffffffffffffffffffffffffffff16815250508173ffffffffffffffffffffffffffffffffffffffff1660c08173ffffffffffffffffffffffffffffffffffffffff16815250508073ffffffffffffffffffffffffffffffffffffffff1660e08173ffffffffffffffffffffffffffffffffffffffff1681525050505050506200081d565b6060600060016200017d846200024560201b60201c565b01905060008167ffffffffffffffff8111156200019f576200019e62000498565b5b6040519080825280601f01601f191660200182016040528015620001d25781602001600182028036833780820191505090505b509050600082602001820190505b6001156200023a578080600190039150507f3031323334353637383961626364656600000000000000000000000000000000600a86061a8153600a85816200022d576200022c620007ee565b5b04945060008503620001e0575b819350505050919050565b600080600090507a184f03e93ff9f4daa797ed6e38ed64bf6a1f0100000000000000008310620002a7577a184f03e93ff9f4daa797ed6e38ed64bf6a1f01000000000000000083816200029d576200029c620007ee565b5b0492506040810190505b6d04ee2d6d415b85acef81000000008310620002e8576d04ee2d6d415b85acef81000000008381620002de57620002dd620007ee565b5b0492506020810190505b662386f26fc1000083106200031b57662386f26fc100008381620003115762000310620007ee565b5b0492506010810190505b6305f5e100831062000348576305f5e10083816200033e576200033d620007ee565b5b0492506008810190505b612710831062000371576127108381620003675762000366620007ee565b5b0492506004810190505b606483106200039857606483816200038e576200038d620007ee565b5b0492506002810190505b600a8310620003a8576001810190505b80915050919050565b600080fd5b600073ffffffffffffffffffffffffffffffffffffffff82169050919050565b6000620003e382620003b6565b9050919050565b620003f581620003d6565b81146200040157600080fd5b50565b6000815190506200041581620003ea565b92915050565b60008060008060808587031215620004385762000437620003b1565b5b6000620004488782880162000404565b94505060206200045b8782880162000404565b93505060406200046e8782880162000404565b9250506060620004818782880162000404565b91505092959194509250565b600081519050919050565b7f4e487b7100000000000000000000000000000000000000000000000000000000600052604160045260246000fd5b7f4e487b7100000000000000000000000000000000000000000000000000000000600052602260045260246000fd5b600060028204905060018216806200050f57607f821691505b602082108103620005255762000524620004c7565b5b50919050565b60008190508160005260206000209050919050565b60006020601f8301049050919050565b600082821b905092915050565b6000600883026200058f7fffffffffffffffffffffffffffffffffffffffffffffffffffffffffffffffff8262000550565b6200059b868362000550565b95508019841693508086168417925050509392505050565b6000819050919050565b6000819050919050565b6000620005e8620005e2620005dc84620005b3565b620005bd565b620005b3565b9050919050565b6000819050919050565b6200060483620005c7565b6200061c6200061382620005ef565b8484546200055d565b825550505050565b600090565b6200063362000624565b62000640818484620005f9565b505050565b5b8181101562000668576200065c60008262000629565b60018101905062000646565b5050565b601f821115620006b75762000681816200052b565b6200068c8462000540565b810160208510156200069c578190505b620006b4620006ab8562000540565b83018262000645565b50505b505050565b600082821c905092915050565b6000620006dc60001984600802620006bc565b1980831691505092915050565b6000620006f78383620006c9565b9150826002028217905092915050565b62000712826200048d565b67ffffffffffffffff8111156200072e576200072d62000498565b5b6200073a8254620004f6565b620007478282856200066c565b600060209050601f8311600181146200077f57600084156200076a578287015190505b620007768582620006e9565b865550620007e6565b601f1984166200078f866200052b565b60005b82811015620007b95784890151825560018201915060208501945060208101905062000792565b86831015620007d95784890151620007d5601f891682620006c9565b8355505b6001600288020188555050505b505050505050565b7f4e487b7100000000000000000000000000000000000000000000000000000000600052601260045260246000fd5b60805160a05160c05160e05161290d6200085760003960006105f90152600061069d0152600061075b01526000610797015261290d6000f3fe608060405234801561001057600080fd5b50600436106100885760003560e01c806385e1f4d01161005b57806385e1f4d014610139578063b6ad16a814610157578063bebc479c14610188578063cb2e6043146101a657610088565b806306634e881461008d5780635e619a4a146100bd578063671ff786146100ed57806385442d5e1461011d575b600080fd5b6100a760048036038101906100a29190611647565b6101c4565b6040516100b49190611683565b60405180910390f35b6100d760048036038101906100d29190611647565b6101f7565b6040516100e49190611683565b60405180910390f35b610107600480360381019061010291906117e4565b61022a565b60405161011491906118ac565b60405180910390f35b61013760048036038101906101329190611952565b61044f565b005b610141610aae565b60405161014e91906118ac565b60405180910390f35b610171600480360381019061016c91906119f9565b610b3c565b60405161017f929190611aa3565b60405180910390f35b610190610bb0565b60405161019d91906118ac565b60405180910390f35b6101ae610c3e565b6040516101bb9190611ae2565b60405180910390f35b60046020528060005260406000206000915054906101000a900473ffffffffffffffffffffffffffffffffffffffff1681565b60036020528060005260406000206000915054906101000a900473ffffffffffffffffffffffffffffffffffffffff1681565b606060006002835161023c9190611b2c565b67ffffffffffffffff811115610255576102546116b9565b5b6040519080825280601f01601f1916602001820160405280156102875781602001600182028036833780820191505090505b50905060006040518060400160405280601081526020017f3031323334353637383961626364656600000000000000000000000000000000815250905060005b8451811015610425578182518683815181106102e6576102e5611b6e565b5b602001015160f81c60f81b60f81c60ff166103019190611bcc565b8151811061031257610311611b6e565b5b602001015160f81c60f81b8360028361032b9190611b2c565b8151811061033c5761033b611b6e565b5b60200101907effffffffffffffffffffffffffffffffffffffffffffffffffffffffffffff1916908160001a90535081825186838151811061038157610380611b6e565b5b602001015160f81c60f81b60f81c60ff1661039c9190611bfd565b815181106103ad576103ac611b6e565b5b602001015160f81c60f81b8360016002846103c89190611b2c565b6103d29190611c2e565b815181106103e3576103e2611b6e565b5b60200101907effffffffffffffffffffffffffffffffffffffffffffffffffffffffffffff1916908160001a905350808061041d90611c62565b9150506102c7565b50816040516020016104379190611d48565b60405160208183030381529060405292505050919050565b600073ffffffffffffffffffffffffffffffffffffffff166003600088600001602081019061047e9190611647565b73ffffffffffffffffffffffffffffffffffffffff1673ffffffffffffffffffffffffffffffffffffffff16815260200190815260200160002060009054906101000a900473ffffffffffffffffffffffffffffffffffffffff1673ffffffffffffffffffffffffffffffffffffffff161461052f576040517f08c379a000000000000000000000000000000000000000000000000000000000815260040161052690611db6565b60405180910390fd5b61053a868686610c44565b61054357600080fd5b6000600167ffffffffffffffff8111156105605761055f6116b9565b5b60405190808252806020026020018201604052801561058e5781602001602082028036833780820191505090505b5090508660000160208101906105a49190611647565b816000815181106105b8576105b7611b6e565b5b602002602001019073ffffffffffffffffffffffffffffffffffffffff16908173ffffffffffffffffffffffffffffffffffffffff168152505060008160017f00000000000000000000000000000000000000000000000000000000000000006040516024016040516020818303038152906040527fba0bba40000000000000000000000000000000000000000000000000000000007bffffffffffffffffffffffffffffffffffffffffffffffffffffffff19166020820180517bffffffffffffffffffffffffffffffffffffffffffffffffffffffff83818316178352505050507f000000000000000000000000000000000000000000000000000000000000000060008060006040516024016106d8989796959493929190611ecf565b6040516020818303038152906040527fb63e800d000000000000000000000000000000000000000000000000000000007bffffffffffffffffffffffffffffffffffffffffffffffffffffffff19166020820180517bffffffffffffffffffffffffffffffffffffffffffffffffffffffff8381831617835250505050905060007f000000000000000000000000000000000000000000000000000000000000000073ffffffffffffffffffffffffffffffffffffffff16631688f0b97f000000000000000000000000000000000000000000000000000000000000000084466040518463ffffffff1660e01b81526004016107d693929190611f5b565b6020604051808303816000875af11580156107f5573d6000803e3d6000fd5b505050506040513d601f19601f820116820180604052508101906108199190611fae565b9050600073ffffffffffffffffffffffffffffffffffffffff168960200160208101906108469190611647565b73ffffffffffffffffffffffffffffffffffffffff16146108d3578573ffffffffffffffffffffffffffffffffffffffff1663724e59c3828b8b8b6040518563ffffffff1660e01b81526004016108a094939291906120bc565b600060405180830381600087803b1580156108ba57600080fd5b505af11580156108ce573d6000803e3d6000fd5b505050505b80600360008b60000160208101906108eb9190611647565b73ffffffffffffffffffffffffffffffffffffffff1673ffffffffffffffffffffffffffffffffffffffff16815260200190815260200160002060006101000a81548173ffffffffffffffffffffffffffffffffffffffff021916908373ffffffffffffffffffffffffffffffffffffffff1602179055508860000160208101906109769190611647565b600460008373ffffffffffffffffffffffffffffffffffffffff1673ffffffffffffffffffffffffffffffffffffffff16815260200190815260200160002060006101000a81548173ffffffffffffffffffffffffffffffffffffffff021916908373ffffffffffffffffffffffffffffffffffffffff16021790555060008173ffffffffffffffffffffffffffffffffffffffff168686604051610a1c929190612121565b6000604051808303816000865af19150503d8060008114610a59576040519150601f19603f3d011682016040523d82523d6000602084013e610a5e565b606091505b5050905080610aa2576040517f08c379a0000000000000000000000000000000000000000000000000000000008152600401610a9990612186565b60405180910390fd5b50505050505050505050565b60028054610abb906121d5565b80601f0160208091040260200160405190810160405280929190818152602001828054610ae7906121d5565b8015610b345780601f10610b0957610100808354040283529160200191610b34565b820191906000526020600020905b815481529060010190602001808311610b1757829003601f168201915b505050505081565b610b44611588565b606060405180606001604052808573ffffffffffffffffffffffffffffffffffffffff1681526020018473ffffffffffffffffffffffffffffffffffffffff168152602001600143610b969190612206565b815250915081610ba583610d85565b915091509250929050565b60008054610bbd906121d5565b80601f0160208091040260200160405190810160405280929190818152602001828054610be9906121d5565b8015610c365780601f10610c0b57610100808354040283529160200191610c36565b820191906000526020600020905b815481529060010190602001808311610c1957829003601f168201915b505050505081565b60015481565b600080610c5085610dd9565b90506000610ca28286868080601f016020809104026020016040519081016040528093929190818152602001838380828437600081840152601f19601f82011690508083019250505050505050610e03565b9050856000016020810190610cb79190611647565b73ffffffffffffffffffffffffffffffffffffffff168173ffffffffffffffffffffffffffffffffffffffff1614610d24576040517f08c379a0000000000000000000000000000000000000000000000000000000008152600401610d1b90612286565b60405180910390fd5b60015443610d329190612206565b86604001351015610d78576040517f08c379a0000000000000000000000000000000000000000000000000000000008152600401610d6f906122f2565b60405180910390fd5b6001925050509392505050565b60606000610d968360000151610e2a565b610da38460200151610e2a565b610db08560400151610e57565b604051602001610dc394939291906124bf565b6040516020818303038152906040529050919050565b6000610dfc610df783803603810190610df29190612587565b610d85565b610f25565b9050919050565b6000806000610e128585610f60565b91509150610e1f81610fb1565b819250505092915050565b6060610e508273ffffffffffffffffffffffffffffffffffffffff16601460ff16611117565b9050919050565b606060006001610e6684611353565b01905060008167ffffffffffffffff811115610e8557610e846116b9565b5b6040519080825280601f01601f191660200182016040528015610eb75781602001600182028036833780820191505090505b509050600082602001820190505b600115610f1a578080600190039150507f3031323334353637383961626364656600000000000000000000000000000000600a86061a8153600a8581610f0e57610f0d611b9d565b5b04945060008503610ec5575b819350505050919050565b6000610f318251610e57565b82604051602001610f43929190612600565b604051602081830303815290604052805190602001209050919050565b6000806041835103610fa15760008060006020860151925060408601519150606086015160001a9050610f95878285856114a6565b94509450505050610faa565b60006002915091505b9250929050565b60006004811115610fc557610fc461262f565b5b816004811115610fd857610fd761262f565b5b03156111145760016004811115610ff257610ff161262f565b5b8160048111156110055761100461262f565b5b03611045576040517f08c379a000000000000000000000000000000000000000000000000000000000815260040161103c906126aa565b60405180910390fd5b600260048111156110595761105861262f565b5b81600481111561106c5761106b61262f565b5b036110ac576040517f08c379a00000000000000000000000000000000000000000000000000000000081526004016110a390612716565b60405180910390fd5b600360048111156110c0576110bf61262f565b5b8160048111156110d3576110d261262f565b5b03611113576040517f08c379a000000000000000000000000000000000000000000000000000000000815260040161110a906127a8565b60405180910390fd5b5b50565b60606000600283600261112a9190611b2c565b6111349190611c2e565b67ffffffffffffffff81111561114d5761114c6116b9565b5b6040519080825280601f01601f19166020018201604052801561117f5781602001600182028036833780820191505090505b5090507f3000000000000000000000000000000000000000000000000000000000000000816000815181106111b7576111b6611b6e565b5b60200101907effffffffffffffffffffffffffffffffffffffffffffffffffffffffffffff1916908160001a9053507f78000000000000000000000000000000000000000000000000000000000000008160018151811061121b5761121a611b6e565b5b60200101907effffffffffffffffffffffffffffffffffffffffffffffffffffffffffffff1916908160001a9053506000600184600261125b9190611b2c565b6112659190611c2e565b90505b6001811115611305577f3031323334353637383961626364656600000000000000000000000000000000600f8616601081106112a7576112a6611b6e565b5b1a60f81b8282815181106112be576112bd611b6e565b5b60200101907effffffffffffffffffffffffffffffffffffffffffffffffffffffffffffff1916908160001a905350600485901c9450806112fe906127c8565b9050611268565b5060008414611349576040517f08c379a00000000000000000000000000000000000000000000000000000000081526004016113409061283d565b60405180910390fd5b8091505092915050565b600080600090507a184f03e93ff9f4daa797ed6e38ed64bf6a1f01000000000000000083106113b1577a184f03e93ff9f4daa797ed6e38ed64bf6a1f01000000000000000083816113a7576113a6611b9d565b5b0492506040810190505b6d04ee2d6d415b85acef810000000083106113ee576d04ee2d6d415b85acef810000000083816113e4576113e3611b9d565b5b0492506020810190505b662386f26fc10000831061141d57662386f26fc10000838161141357611412611b9d565b5b0492506010810190505b6305f5e1008310611446576305f5e100838161143c5761143b611b9d565b5b0492506008810190505b612710831061146b57612710838161146157611460611b9d565b5b0492506004810190505b6064831061148e576064838161148457611483611b9d565b5b0492506002810190505b600a831061149d576001810190505b80915050919050565b6000807f7fffffffffffffffffffffffffffffff5d576e7357a4501ddfe92f46681b20a08360001c11156114e157600060039150915061157f565b6000600187878787604051600081526020016040526040516115069493929190612892565b6020604051602081039080840390855afa158015611528573d6000803e3d6000fd5b505050602060405103519050600073ffffffffffffffffffffffffffffffffffffffff168173ffffffffffffffffffffffffffffffffffffffff16036115765760006001925092505061157f565b80600092509250505b94509492505050565b6040518060600160405280600073ffffffffffffffffffffffffffffffffffffffff168152602001600073ffffffffffffffffffffffffffffffffffffffff168152602001600081525090565b6000604051905090565b600080fd5b600080fd5b600073ffffffffffffffffffffffffffffffffffffffff82169050919050565b6000611614826115e9565b9050919050565b61162481611609565b811461162f57600080fd5b50565b6000813590506116418161161b565b92915050565b60006020828403121561165d5761165c6115df565b5b600061166b84828501611632565b91505092915050565b61167d81611609565b82525050565b60006020820190506116986000830184611674565b92915050565b600080fd5b600080fd5b6000601f19601f8301169050919050565b7f4e487b7100000000000000000000000000000000000000000000000000000000600052604160045260246000fd5b6116f1826116a8565b810181811067ffffffffffffffff821117156117105761170f6116b9565b5b80604052505050565b60006117236115d5565b905061172f82826116e8565b919050565b600067ffffffffffffffff82111561174f5761174e6116b9565b5b611758826116a8565b9050602081019050919050565b82818337600083830152505050565b600061178761178284611734565b611719565b9050828152602081018484840111156117a3576117a26116a3565b5b6117ae848285611765565b509392505050565b600082601f8301126117cb576117ca61169e565b5b81356117db848260208601611774565b91505092915050565b6000602082840312156117fa576117f96115df565b5b600082013567ffffffffffffffff811115611818576118176115e4565b5b611824848285016117b6565b91505092915050565b600081519050919050565b600082825260208201905092915050565b60005b8381101561186757808201518184015260208101905061184c565b60008484015250505050565b600061187e8261182d565b6118888185611838565b9350611898818560208601611849565b6118a1816116a8565b840191505092915050565b600060208201905081810360008301526118c68184611873565b905092915050565b600080fd5b6000606082840312156118e9576118e86118ce565b5b81905092915050565b600080fd5b600080fd5b60008083601f8401126119125761191161169e565b5b8235905067ffffffffffffffff81111561192f5761192e6118f2565b5b60208301915083600182028301111561194b5761194a6118f7565b5b9250929050565b60008060008060008060c0878903121561196f5761196e6115df565b5b600061197d89828a016118d3565b965050606087013567ffffffffffffffff81111561199e5761199d6115e4565b5b6119aa89828a016118fc565b955095505060806119bd89828a01611632565b93505060a087013567ffffffffffffffff8111156119de576119dd6115e4565b5b6119ea89828a016118fc565b92509250509295509295509295565b60008060408385031215611a1057611a0f6115df565b5b6000611a1e85828601611632565b9250506020611a2f85828601611632565b9150509250929050565b611a4281611609565b82525050565b6000819050919050565b611a5b81611a48565b82525050565b606082016000820151611a776000850182611a39565b506020820151611a8a6020850182611a39565b506040820151611a9d6040850182611a52565b50505050565b6000608082019050611ab86000830185611a61565b8181036060830152611aca8184611873565b90509392505050565b611adc81611a48565b82525050565b6000602082019050611af76000830184611ad3565b92915050565b7f4e487b7100000000000000000000000000000000000000000000000000000000600052601160045260246000fd5b6000611b3782611a48565b9150611b4283611a48565b9250828202611b5081611a48565b91508282048414831517611b6757611b66611afd565b5b5092915050565b7f4e487b7100000000000000000000000000000000000000000000000000000000600052603260045260246000fd5b7f4e487b7100000000000000000000000000000000000000000000000000000000600052601260045260246000fd5b6000611bd782611a48565b9150611be283611a48565b925082611bf257611bf1611b9d565b5b828204905092915050565b6000611c0882611a48565b9150611c1383611a48565b925082611c2357611c22611b9d565b5b828206905092915050565b6000611c3982611a48565b9150611c4483611a48565b9250828201905080821115611c5c57611c5b611afd565b5b92915050565b6000611c6d82611a48565b91507fffffffffffffffffffffffffffffffffffffffffffffffffffffffffffffffff8203611c9f57611c9e611afd565b5b600182019050919050565b600081905092915050565b7f3078000000000000000000000000000000000000000000000000000000000000600082015250565b6000611ceb600283611caa565b9150611cf682611cb5565b600282019050919050565b600081519050919050565b600081905092915050565b6000611d2282611d01565b611d2c8185611d0c565b9350611d3c818560208601611849565b80840191505092915050565b6000611d5382611cde565b9150611d5f8284611d17565b915081905092915050565b7f5361666520616c72656164792065786973747320666f72206f776e6572000000600082015250565b6000611da0601d83611838565b9150611dab82611d6a565b602082019050919050565b60006020820190508181036000830152611dcf81611d93565b9050919050565b600081519050919050565b600082825260208201905092915050565b6000819050602082019050919050565b6000611e0e8383611a39565b60208301905092915050565b6000602082019050919050565b6000611e3282611dd6565b611e3c8185611de1565b9350611e4783611df2565b8060005b83811015611e78578151611e5f8882611e02565b9750611e6a83611e1a565b925050600181019050611e4b565b5085935050505092915050565b600082825260208201905092915050565b6000611ea182611d01565b611eab8185611e85565b9350611ebb818560208601611849565b611ec4816116a8565b840191505092915050565b6000610100820190508181036000830152611eea818b611e27565b9050611ef9602083018a611ad3565b611f066040830189611674565b8181036060830152611f188188611e96565b9050611f276080830187611674565b611f3460a0830186611674565b611f4160c0830185611ad3565b611f4e60e0830184611674565b9998505050505050505050565b6000606082019050611f706000830186611674565b8181036020830152611f828185611e96565b9050611f916040830184611ad3565b949350505050565b600081519050611fa88161161b565b92915050565b600060208284031215611fc457611fc36115df565b5b6000611fd284828501611f99565b91505092915050565b6000611fea6020840184611632565b905092915050565b611ffb81611a48565b811461200657600080fd5b50565b60008135905061201881611ff2565b92915050565b600061202d6020840184612009565b905092915050565b606082016120466000830183611fdb565b6120536000850182611a39565b506120616020830183611fdb565b61206e6020850182611a39565b5061207c604083018361201e565b6120896040850182611a52565b50505050565b600061209b8385611e85565b93506120a8838584611765565b6120b1836116a8565b840190509392505050565b600060a0820190506120d16000830187611674565b6120de6020830186612035565b81810360808301526120f181848661208f565b905095945050505050565b60006121088385611d0c565b9350612115838584611765565b82840190509392505050565b600061212e8284866120fc565b91508190509392505050565b7f4669727374207472616e73616374696f6e206661696c65640000000000000000600082015250565b6000612170601883611838565b915061217b8261213a565b602082019050919050565b6000602082019050818103600083015261219f81612163565b9050919050565b7f4e487b7100000000000000000000000000000000000000000000000000000000600052602260045260246000fd5b600060028204905060018216806121ed57607f821691505b602082108103612200576121ff6121a6565b5b50919050565b600061221182611a48565b915061221c83611a48565b925082820390508181111561223457612233611afd565b5b92915050565b7f696e76616c6964207369676e6174757265000000000000000000000000000000600082015250565b6000612270601183611838565b915061227b8261223a565b602082019050919050565b6000602082019050818103600083015261229f81612263565b9050919050565b7f5265717565737420697320746f6f206f6c640000000000000000000000000000600082015250565b60006122dc601283611838565b91506122e7826122a6565b602082019050919050565b6000602082019050818103600083015261230b816122cf565b9050919050565b60008190508160005260206000209050919050565b60008154612334816121d5565b61233e8186611caa565b94506001821660008114612359576001811461236e576123a1565b60ff19831686528115158202860193506123a1565b61237785612312565b60005b838110156123995781548189015260018201915060208101905061237a565b838801955050505b50505092915050565b7f0a0a4d653a200000000000000000000000000000000000000000000000000000600082015250565b60006123e0600683611caa565b91506123eb826123aa565b600682019050919050565b60006124018261182d565b61240b8185611caa565b935061241b818560208601611849565b80840191505092915050565b7f0a4465766963653a200000000000000000000000000000000000000000000000600082015250565b600061245d600983611caa565b915061246882612427565b600982019050919050565b7f0a4973737565642061743a200000000000000000000000000000000000000000600082015250565b60006124a9600c83611caa565b91506124b482612473565b600c82019050919050565b60006124cb8287612327565b91506124d6826123d3565b91506124e282866123f6565b91506124ed82612450565b91506124f982856123f6565b91506125048261249c565b915061251082846123f6565b915081905095945050505050565b600080fd5b6000606082840312156125395761253861251e565b5b6125436060611719565b9050600061255384828501611632565b600083015250602061256784828501611632565b602083015250604061257b84828501612009565b60408301525092915050565b60006060828403121561259d5761259c6115df565b5b60006125ab84828501612523565b91505092915050565b7f19457468657265756d205369676e6564204d6573736167653a0a000000000000600082015250565b60006125ea601a83611caa565b91506125f5826125b4565b601a82019050919050565b600061260b826125dd565b915061261782856123f6565b91506126238284611d17565b91508190509392505050565b7f4e487b7100000000000000000000000000000000000000000000000000000000600052602160045260246000fd5b7f45434453413a20696e76616c6964207369676e61747572650000000000000000600082015250565b6000612694601883611838565b915061269f8261265e565b602082019050919050565b600060208201905081810360008301526126c381612687565b9050919050565b7f45434453413a20696e76616c6964207369676e6174757265206c656e67746800600082015250565b6000612700601f83611838565b915061270b826126ca565b602082019050919050565b6000602082019050818103600083015261272f816126f3565b9050919050565b7f45434453413a20696e76616c6964207369676e6174757265202773272076616c60008201527f7565000000000000000000000000000000000000000000000000000000000000602082015250565b6000612792602283611838565b915061279d82612736565b604082019050919050565b600060208201905081810360008301526127c181612785565b9050919050565b60006127d382611a48565b9150600082036127e6576127e5611afd565b5b600182039050919050565b7f537472696e67733a20686578206c656e67746820696e73756666696369656e74600082015250565b6000612827602083611838565b9150612832826127f1565b602082019050919050565b600060208201905081810360008301526128568161281a565b9050919050565b6000819050919050565b6128708161285d565b82525050565b600060ff82169050919050565b61288c81612876565b82525050565b60006080820190506128a76000830187612867565b6128b46020830186612883565b6128c16040830185612867565b6128ce6060830184612867565b9594505050505056fea26469706673582212207167cc10b3a91e5b789733762431f0ec1799c7f7c4cf19e08cf6b24a0968253764736f6c634300081300334920617574686f72697a6520746869732064657669636520746f2073656e64207472616e73616374696f6e73206f6e206d7920626568616c662e","opcodes":"PUSH2 0x100 PUSH1 0x40 MSTORE PUSH1 0xF PUSH1 0x1 SSTORE CALLVALUE DUP1 ISZERO PUSH3 0x17 JUMPI PUSH1 0x0 DUP1 REVERT JUMPDEST POP PUSH1 0x40 MLOAD PUSH3 0x319E CODESIZE SUB DUP1 PUSH3 0x319E DUP4 CODECOPY DUP2 DUP2 ADD PUSH1 0x40 MSTORE DUP2 ADD SWAP1 PUSH3 0x3D SWAP2 SWAP1 PUSH3 0x41B JUMP JUMPDEST PUSH1 0x40 MLOAD DUP1 PUSH1 0x60 ADD PUSH1 0x40 MSTORE DUP1 PUSH1 0x3A DUP2 MSTORE PUSH1 0x20 ADD PUSH3 0x3164 PUSH1 0x3A SWAP2 CODECOPY DUP1 PUSH1 0x0 SWAP1 DUP2 PUSH3 0x68 SWAP2 SWAP1 PUSH3 0x707 JUMP JUMPDEST POP POP PUSH3 0x7B CHAINID PUSH3 0x166 PUSH1 0x20 SHL PUSH1 0x20 SHR JUMP JUMPDEST PUSH1 0x2 SWAP1 DUP2 PUSH3 0x8B SWAP2 SWAP1 PUSH3 0x707 JUMP JUMPDEST POP DUP4 PUSH20 0xFFFFFFFFFFFFFFFFFFFFFFFFFFFFFFFFFFFFFFFF AND PUSH1 0x80 DUP2 PUSH20 0xFFFFFFFFFFFFFFFFFFFFFFFFFFFFFFFFFFFFFFFF AND DUP2 MSTORE POP POP DUP3 PUSH20 0xFFFFFFFFFFFFFFFFFFFFFFFFFFFFFFFFFFFFFFFF AND PUSH1 0xA0 DUP2 PUSH20 0xFFFFFFFFFFFFFFFFFFFFFFFFFFFFFFFFFFFFFFFF AND DUP2 MSTORE POP POP DUP2 PUSH20 0xFFFFFFFFFFFFFFFFFFFFFFFFFFFFFFFFFFFFFFFF AND PUSH1 0xC0 DUP2 PUSH20 0xFFFFFFFFFFFFFFFFFFFFFFFFFFFFFFFFFFFFFFFF AND DUP2 MSTORE POP POP DUP1 PUSH20 0xFFFFFFFFFFFFFFFFFFFFFFFFFFFFFFFFFFFFFFFF AND PUSH1 0xE0 DUP2 PUSH20 0xFFFFFFFFFFFFFFFFFFFFFFFFFFFFFFFFFFFFFFFF AND DUP2 MSTORE POP POP POP POP POP POP PUSH3 0x81D JUMP JUMPDEST PUSH1 0x60 PUSH1 0x0 PUSH1 0x1 PUSH3 0x17D DUP5 PUSH3 0x245 PUSH1 0x20 SHL PUSH1 0x20 SHR JUMP JUMPDEST ADD SWAP1 POP PUSH1 0x0 DUP2 PUSH8 0xFFFFFFFFFFFFFFFF DUP2 GT ISZERO PUSH3 0x19F JUMPI PUSH3 0x19E PUSH3 0x498 JUMP JUMPDEST JUMPDEST PUSH1 0x40 MLOAD SWAP1 DUP1 DUP3 MSTORE DUP1 PUSH1 0x1F ADD PUSH1 0x1F NOT AND PUSH1 0x20 ADD DUP3 ADD PUSH1 0x40 MSTORE DUP1 ISZERO PUSH3 0x1D2 JUMPI DUP2 PUSH1 0x20 ADD PUSH1 0x1 DUP3 MUL DUP1 CALLDATASIZE DUP4 CALLDATACOPY DUP1 DUP3 ADD SWAP2 POP POP SWAP1 POP JUMPDEST POP SWAP1 POP PUSH1 0x0 DUP3 PUSH1 0x20 ADD DUP3 ADD SWAP1 POP JUMPDEST PUSH1 0x1 ISZERO PUSH3 0x23A JUMPI DUP1 DUP1 PUSH1 0x1 SWAP1 SUB SWAP2 POP POP PUSH32 0x3031323334353637383961626364656600000000000000000000000000000000 PUSH1 0xA DUP7 MOD BYTE DUP2 MSTORE8 PUSH1 0xA DUP6 DUP2 PUSH3 0x22D JUMPI PUSH3 0x22C PUSH3 0x7EE JUMP JUMPDEST JUMPDEST DIV SWAP5 POP PUSH1 0x0 DUP6 SUB PUSH3 0x1E0 JUMPI JUMPDEST DUP2 SWAP4 POP POP POP POP SWAP2 SWAP1 POP JUMP JUMPDEST PUSH1 0x0 DUP1 PUSH1 0x0 SWAP1 POP PUSH27 0x184F03E93FF9F4DAA797ED6E38ED64BF6A1F010000000000000000 DUP4 LT PUSH3 0x2A7 JUMPI PUSH27 0x184F03E93FF9F4DAA797ED6E38ED64BF6A1F010000000000000000 DUP4 DUP2 PUSH3 0x29D JUMPI PUSH3 0x29C PUSH3 0x7EE JUMP JUMPDEST JUMPDEST DIV SWAP3 POP PUSH1 0x40 DUP2 ADD SWAP1 POP JUMPDEST PUSH14 0x4EE2D6D415B85ACEF8100000000 DUP4 LT PUSH3 0x2E8 JUMPI PUSH14 0x4EE2D6D415B85ACEF8100000000 DUP4 DUP2 PUSH3 0x2DE JUMPI PUSH3 0x2DD PUSH3 0x7EE JUMP JUMPDEST JUMPDEST DIV SWAP3 POP PUSH1 0x20 DUP2 ADD SWAP1 POP JUMPDEST PUSH7 0x2386F26FC10000 DUP4 LT PUSH3 0x31B JUMPI PUSH7 0x2386F26FC10000 DUP4 DUP2 PUSH3 0x311 JUMPI PUSH3 0x310 PUSH3 0x7EE JUMP JUMPDEST JUMPDEST DIV SWAP3 POP PUSH1 0x10 DUP2 ADD SWAP1 POP JUMPDEST PUSH4 0x5F5E100 DUP4 LT PUSH3 0x348 JUMPI PUSH4 0x5F5E100 DUP4 DUP2 PUSH3 0x33E JUMPI PUSH3 0x33D PUSH3 0x7EE JUMP JUMPDEST JUMPDEST DIV SWAP3 POP PUSH1 0x8 DUP2 ADD SWAP1 POP JUMPDEST PUSH2 0x2710 DUP4 LT PUSH3 0x371 JUMPI PUSH2 0x2710 DUP4 DUP2 PUSH3 0x367 JUMPI PUSH3 0x366 PUSH3 0x7EE JUMP JUMPDEST JUMPDEST DIV SWAP3 POP PUSH1 0x4 DUP2 ADD SWAP1 POP JUMPDEST PUSH1 0x64 DUP4 LT PUSH3 0x398 JUMPI PUSH1 0x64 DUP4 DUP2 PUSH3 0x38E JUMPI PUSH3 0x38D PUSH3 0x7EE JUMP JUMPDEST JUMPDEST DIV SWAP3 POP PUSH1 0x2 DUP2 ADD SWAP1 POP JUMPDEST PUSH1 0xA DUP4 LT PUSH3 0x3A8 JUMPI PUSH1 0x1 DUP2 ADD SWAP1 POP JUMPDEST DUP1 SWAP2 POP POP SWAP2 SWAP1 POP JUMP JUMPDEST PUSH1 0x0 DUP1 REVERT JUMPDEST PUSH1 0x0 PUSH20 0xFFFFFFFFFFFFFFFFFFFFFFFFFFFFFFFFFFFFFFFF DUP3 AND SWAP1 POP SWAP2 SWAP1 POP JUMP JUMPDEST PUSH1 0x0 PUSH3 0x3E3 DUP3 PUSH3 0x3B6 JUMP JUMPDEST SWAP1 POP SWAP2 SWAP1 POP JUMP JUMPDEST PUSH3 0x3F5 DUP2 PUSH3 0x3D6 JUMP JUMPDEST DUP2 EQ PUSH3 0x401 JUMPI PUSH1 0x0 DUP1 REVERT JUMPDEST POP JUMP JUMPDEST PUSH1 0x0 DUP2 MLOAD SWAP1 POP PUSH3 0x415 DUP2 PUSH3 0x3EA JUMP JUMPDEST SWAP3 SWAP2 POP POP JUMP JUMPDEST PUSH1 0x0 DUP1 PUSH1 0x0 DUP1 PUSH1 0x80 DUP6 DUP8 SUB SLT ISZERO PUSH3 0x438 JUMPI PUSH3 0x437 PUSH3 0x3B1 JUMP JUMPDEST JUMPDEST PUSH1 0x0 PUSH3 0x448 DUP8 DUP3 DUP9 ADD PUSH3 0x404 JUMP JUMPDEST SWAP5 POP POP PUSH1 0x20 PUSH3 0x45B DUP8 DUP3 DUP9 ADD PUSH3 0x404 JUMP JUMPDEST SWAP4 POP POP PUSH1 0x40 PUSH3 0x46E DUP8 DUP3 DUP9 ADD PUSH3 0x404 JUMP JUMPDEST SWAP3 POP POP PUSH1 0x60 PUSH3 0x481 DUP8 DUP3 DUP9 ADD PUSH3 0x404 JUMP JUMPDEST SWAP2 POP POP SWAP3 SWAP6 SWAP2 SWAP5 POP SWAP3 POP JUMP JUMPDEST PUSH1 0x0 DUP2 MLOAD SWAP1 POP SWAP2 SWAP1 POP JUMP JUMPDEST PUSH32 0x4E487B7100000000000000000000000000000000000000000000000000000000 PUSH1 0x0 MSTORE PUSH1 0x41 PUSH1 0x4 MSTORE PUSH1 0x24 PUSH1 0x0 REVERT JUMPDEST PUSH32 0x4E487B7100000000000000000000000000000000000000000000000000000000 PUSH1 0x0 MSTORE PUSH1 0x22 PUSH1 0x4 MSTORE PUSH1 0x24 PUSH1 0x0 REVERT JUMPDEST PUSH1 0x0 PUSH1 0x2 DUP3 DIV SWAP1 POP PUSH1 0x1 DUP3 AND DUP1 PUSH3 0x50F JUMPI PUSH1 0x7F DUP3 AND SWAP2 POP JUMPDEST PUSH1 0x20 DUP3 LT DUP2 SUB PUSH3 0x525 JUMPI PUSH3 0x524 PUSH3 0x4C7 JUMP JUMPDEST JUMPDEST POP SWAP2 SWAP1 POP JUMP JUMPDEST PUSH1 0x0 DUP2 SWAP1 POP DUP2 PUSH1 0x0 MSTORE PUSH1 0x20 PUSH1 0x0 KECCAK256 SWAP1 POP SWAP2 SWAP1 POP JUMP JUMPDEST PUSH1 0x0 PUSH1 0x20 PUSH1 0x1F DUP4 ADD DIV SWAP1 POP SWAP2 SWAP1 POP JUMP JUMPDEST PUSH1 0x0 DUP3 DUP3 SHL SWAP1 POP SWAP3 SWAP2 POP POP JUMP JUMPDEST PUSH1 0x0 PUSH1 0x8 DUP4 MUL PUSH3 0x58F PUSH32 0xFFFFFFFFFFFFFFFFFFFFFFFFFFFFFFFFFFFFFFFFFFFFFFFFFFFFFFFFFFFFFFFF DUP3 PUSH3 0x550 JUMP JUMPDEST PUSH3 0x59B DUP7 DUP4 PUSH3 0x550 JUMP JUMPDEST SWAP6 POP DUP1 NOT DUP5 AND SWAP4 POP DUP1 DUP7 AND DUP5 OR SWAP3 POP POP POP SWAP4 SWAP3 POP POP POP JUMP JUMPDEST PUSH1 0x0 DUP2 SWAP1 POP SWAP2 SWAP1 POP JUMP JUMPDEST PUSH1 0x0 DUP2 SWAP1 POP SWAP2 SWAP1 POP JUMP JUMPDEST PUSH1 0x0 PUSH3 0x5E8 PUSH3 0x5E2 PUSH3 0x5DC DUP5 PUSH3 0x5B3 JUMP JUMPDEST PUSH3 0x5BD JUMP JUMPDEST PUSH3 0x5B3 JUMP JUMPDEST SWAP1 POP SWAP2 SWAP1 POP JUMP JUMPDEST PUSH1 0x0 DUP2 SWAP1 POP SWAP2 SWAP1 POP JUMP JUMPDEST PUSH3 0x604 DUP4 PUSH3 0x5C7 JUMP JUMPDEST PUSH3 0x61C PUSH3 0x613 DUP3 PUSH3 0x5EF JUMP JUMPDEST DUP5 DUP5 SLOAD PUSH3 0x55D JUMP JUMPDEST DUP3 SSTORE POP POP POP POP JUMP JUMPDEST PUSH1 0x0 SWAP1 JUMP JUMPDEST PUSH3 0x633 PUSH3 0x624 JUMP JUMPDEST PUSH3 0x640 DUP2 DUP5 DUP5 PUSH3 0x5F9 JUMP JUMPDEST POP POP POP JUMP JUMPDEST JUMPDEST DUP2 DUP2 LT ISZERO PUSH3 0x668 JUMPI PUSH3 0x65C PUSH1 0x0 DUP3 PUSH3 0x629 JUMP JUMPDEST PUSH1 0x1 DUP2 ADD SWAP1 POP PUSH3 0x646 JUMP JUMPDEST POP POP JUMP JUMPDEST PUSH1 0x1F DUP3 GT ISZERO PUSH3 0x6B7 JUMPI PUSH3 0x681 DUP2 PUSH3 0x52B JUMP JUMPDEST PUSH3 0x68C DUP5 PUSH3 0x540 JUMP JUMPDEST DUP2 ADD PUSH1 0x20 DUP6 LT ISZERO PUSH3 0x69C JUMPI DUP2 SWAP1 POP JUMPDEST PUSH3 0x6B4 PUSH3 0x6AB DUP6 PUSH3 0x540 JUMP JUMPDEST DUP4 ADD DUP3 PUSH3 0x645 JUMP JUMPDEST POP POP JUMPDEST POP POP POP JUMP JUMPDEST PUSH1 0x0 DUP3 DUP3 SHR SWAP1 POP SWAP3 SWAP2 POP POP JUMP JUMPDEST PUSH1 0x0 PUSH3 0x6DC PUSH1 0x0 NOT DUP5 PUSH1 0x8 MUL PUSH3 0x6BC JUMP JUMPDEST NOT DUP1 DUP4 AND SWAP2 POP POP SWAP3 SWAP2 POP POP JUMP JUMPDEST PUSH1 0x0 PUSH3 0x6F7 DUP4 DUP4 PUSH3 0x6C9 JUMP JUMPDEST SWAP2 POP DUP3 PUSH1 0x2 MUL DUP3 OR SWAP1 POP SWAP3 SWAP2 POP POP JUMP JUMPDEST PUSH3 0x712 DUP3 PUSH3 0x48D JUMP JUMPDEST PUSH8 0xFFFFFFFFFFFFFFFF DUP2 GT ISZERO PUSH3 0x72E JUMPI PUSH3 0x72D PUSH3 0x498 JUMP JUMPDEST JUMPDEST PUSH3 0x73A DUP3 SLOAD PUSH3 0x4F6 JUMP JUMPDEST PUSH3 0x747 DUP3 DUP3 DUP6 PUSH3 0x66C JUMP JUMPDEST PUSH1 0x0 PUSH1 0x20 SWAP1 POP PUSH1 0x1F DUP4 GT PUSH1 0x1 DUP2 EQ PUSH3 0x77F JUMPI PUSH1 0x0 DUP5 ISZERO PUSH3 0x76A JUMPI DUP3 DUP8 ADD MLOAD SWAP1 POP JUMPDEST PUSH3 0x776 DUP6 DUP3 PUSH3 0x6E9 JUMP JUMPDEST DUP7 SSTORE POP PUSH3 0x7E6 JUMP JUMPDEST PUSH1 0x1F NOT DUP5 AND PUSH3 0x78F DUP7 PUSH3 0x52B JUMP JUMPDEST PUSH1 0x0 JUMPDEST DUP3 DUP2 LT ISZERO PUSH3 0x7B9 JUMPI DUP5 DUP10 ADD MLOAD DUP3 SSTORE PUSH1 0x1 DUP3 ADD SWAP2 POP PUSH1 0x20 DUP6 ADD SWAP5 POP PUSH1 0x20 DUP2 ADD SWAP1 POP PUSH3 0x792 JUMP JUMPDEST DUP7 DUP4 LT ISZERO PUSH3 0x7D9 JUMPI DUP5 DUP10 ADD MLOAD PUSH3 0x7D5 PUSH1 0x1F DUP10 AND DUP3 PUSH3 0x6C9 JUMP JUMPDEST DUP4 SSTORE POP JUMPDEST PUSH1 0x1 PUSH1 0x2 DUP9 MUL ADD DUP9 SSTORE POP POP POP JUMPDEST POP POP POP POP POP POP JUMP JUMPDEST PUSH32 0x4E487B7100000000000000000000000000000000000000000000000000000000 PUSH1 0x0 MSTORE PUSH1 0x12 PUSH1 0x4 MSTORE PUSH1 0x24 PUSH1 0x0 REVERT JUMPDEST PUSH1 0x80 MLOAD PUSH1 0xA0 MLOAD PUSH1 0xC0 MLOAD PUSH1 0xE0 MLOAD PUSH2 0x290D PUSH3 0x857 PUSH1 0x0 CODECOPY PUSH1 0x0 PUSH2 0x5F9 ADD MSTORE PUSH1 0x0 PUSH2 0x69D ADD MSTORE PUSH1 0x0 PUSH2 0x75B ADD MSTORE PUSH1 0x0 PUSH2 0x797 ADD MSTORE PUSH2 0x290D PUSH1 0x0 RETURN INVALID PUSH1 0x80 PUSH1 0x40 MSTORE CALLVALUE DUP1 ISZERO PUSH2 0x10 JUMPI PUSH1 0x0 DUP1 REVERT JUMPDEST POP PUSH1 0x4 CALLDATASIZE LT PUSH2 0x88 JUMPI PUSH1 0x0 CALLDATALOAD PUSH1 0xE0 SHR DUP1 PUSH4 0x85E1F4D0 GT PUSH2 0x5B JUMPI DUP1 PUSH4 0x85E1F4D0 EQ PUSH2 0x139 JUMPI DUP1 PUSH4 0xB6AD16A8 EQ PUSH2 0x157 JUMPI DUP1 PUSH4 0xBEBC479C EQ PUSH2 0x188 JUMPI DUP1 PUSH4 0xCB2E6043 EQ PUSH2 0x1A6 JUMPI PUSH2 0x88 JUMP JUMPDEST DUP1 PUSH4 0x6634E88 EQ PUSH2 0x8D JUMPI DUP1 PUSH4 0x5E619A4A EQ PUSH2 0xBD JUMPI DUP1 PUSH4 0x671FF786 EQ PUSH2 0xED JUMPI DUP1 PUSH4 0x85442D5E EQ PUSH2 0x11D JUMPI JUMPDEST PUSH1 0x0 DUP1 REVERT JUMPDEST PUSH2 0xA7 PUSH1 0x4 DUP1 CALLDATASIZE SUB DUP2 ADD SWAP1 PUSH2 0xA2 SWAP2 SWAP1 PUSH2 0x1647 JUMP JUMPDEST PUSH2 0x1C4 JUMP JUMPDEST PUSH1 0x40 MLOAD PUSH2 0xB4 SWAP2 SWAP1 PUSH2 0x1683 JUMP JUMPDEST PUSH1 0x40 MLOAD DUP1 SWAP2 SUB SWAP1 RETURN JUMPDEST PUSH2 0xD7 PUSH1 0x4 DUP1 CALLDATASIZE SUB DUP2 ADD SWAP1 PUSH2 0xD2 SWAP2 SWAP1 PUSH2 0x1647 JUMP JUMPDEST PUSH2 0x1F7 JUMP JUMPDEST PUSH1 0x40 MLOAD PUSH2 0xE4 SWAP2 SWAP1 PUSH2 0x1683 JUMP JUMPDEST PUSH1 0x40 MLOAD DUP1 SWAP2 SUB SWAP1 RETURN JUMPDEST PUSH2 0x107 PUSH1 0x4 DUP1 CALLDATASIZE SUB DUP2 ADD SWAP1 PUSH2 0x102 SWAP2 SWAP1 PUSH2 0x17E4 JUMP JUMPDEST PUSH2 0x22A JUMP JUMPDEST PUSH1 0x40 MLOAD PUSH2 0x114 SWAP2 SWAP1 PUSH2 0x18AC JUMP JUMPDEST PUSH1 0x40 MLOAD DUP1 SWAP2 SUB SWAP1 RETURN JUMPDEST PUSH2 0x137 PUSH1 0x4 DUP1 CALLDATASIZE SUB DUP2 ADD SWAP1 PUSH2 0x132 SWAP2 SWAP1 PUSH2 0x1952 JUMP JUMPDEST PUSH2 0x44F JUMP JUMPDEST STOP JUMPDEST PUSH2 0x141 PUSH2 0xAAE JUMP JUMPDEST PUSH1 0x40 MLOAD PUSH2 0x14E SWAP2 SWAP1 PUSH2 0x18AC JUMP JUMPDEST PUSH1 0x40 MLOAD DUP1 SWAP2 SUB SWAP1 RETURN JUMPDEST PUSH2 0x171 PUSH1 0x4 DUP1 CALLDATASIZE SUB DUP2 ADD SWAP1 PUSH2 0x16C SWAP2 SWAP1 PUSH2 0x19F9 JUMP JUMPDEST PUSH2 0xB3C JUMP JUMPDEST PUSH1 0x40 MLOAD PUSH2 0x17F SWAP3 SWAP2 SWAP1 PUSH2 0x1AA3 JUMP JUMPDEST PUSH1 0x40 MLOAD DUP1 SWAP2 SUB SWAP1 RETURN JUMPDEST PUSH2 0x190 PUSH2 0xBB0 JUMP JUMPDEST PUSH1 0x40 MLOAD PUSH2 0x19D SWAP2 SWAP1 PUSH2 0x18AC JUMP JUMPDEST PUSH1 0x40 MLOAD DUP1 SWAP2 SUB SWAP1 RETURN JUMPDEST PUSH2 0x1AE PUSH2 0xC3E JUMP JUMPDEST PUSH1 0x40 MLOAD PUSH2 0x1BB SWAP2 SWAP1 PUSH2 0x1AE2 JUMP JUMPDEST PUSH1 0x40 MLOAD DUP1 SWAP2 SUB SWAP1 RETURN JUMPDEST PUSH1 0x4 PUSH1 0x20 MSTORE DUP1 PUSH1 0x0 MSTORE PUSH1 0x40 PUSH1 0x0 KECCAK256 PUSH1 0x0 SWAP2 POP SLOAD SWAP1 PUSH2 0x100 EXP SWAP1 DIV PUSH20 0xFFFFFFFFFFFFFFFFFFFFFFFFFFFFFFFFFFFFFFFF AND DUP2 JUMP JUMPDEST PUSH1 0x3 PUSH1 0x20 MSTORE DUP1 PUSH1 0x0 MSTORE PUSH1 0x40 PUSH1 0x0 KECCAK256 PUSH1 0x0 SWAP2 POP SLOAD SWAP1 PUSH2 0x100 EXP SWAP1 DIV PUSH20 0xFFFFFFFFFFFFFFFFFFFFFFFFFFFFFFFFFFFFFFFF AND DUP2 JUMP JUMPDEST PUSH1 0x60 PUSH1 0x0 PUSH1 0x2 DUP4 MLOAD PUSH2 0x23C SWAP2 SWAP1 PUSH2 0x1B2C JUMP JUMPDEST PUSH8 0xFFFFFFFFFFFFFFFF DUP2 GT ISZERO PUSH2 0x255 JUMPI PUSH2 0x254 PUSH2 0x16B9 JUMP JUMPDEST JUMPDEST PUSH1 0x40 MLOAD SWAP1 DUP1 DUP3 MSTORE DUP1 PUSH1 0x1F ADD PUSH1 0x1F NOT AND PUSH1 0x20 ADD DUP3 ADD PUSH1 0x40 MSTORE DUP1 ISZERO PUSH2 0x287 JUMPI DUP2 PUSH1 0x20 ADD PUSH1 0x1 DUP3 MUL DUP1 CALLDATASIZE DUP4 CALLDATACOPY DUP1 DUP3 ADD SWAP2 POP POP SWAP1 POP JUMPDEST POP SWAP1 POP PUSH1 0x0 PUSH1 0x40 MLOAD DUP1 PUSH1 0x40 ADD PUSH1 0x40 MSTORE DUP1 PUSH1 0x10 DUP2 MSTORE PUSH1 0x20 ADD PUSH32 0x3031323334353637383961626364656600000000000000000000000000000000 DUP2 MSTORE POP SWAP1 POP PUSH1 0x0 JUMPDEST DUP5 MLOAD DUP2 LT ISZERO PUSH2 0x425 JUMPI DUP2 DUP3 MLOAD DUP7 DUP4 DUP2 MLOAD DUP2 LT PUSH2 0x2E6 JUMPI PUSH2 0x2E5 PUSH2 0x1B6E JUMP JUMPDEST JUMPDEST PUSH1 0x20 ADD ADD MLOAD PUSH1 0xF8 SHR PUSH1 0xF8 SHL PUSH1 0xF8 SHR PUSH1 0xFF AND PUSH2 0x301 SWAP2 SWAP1 PUSH2 0x1BCC JUMP JUMPDEST DUP2 MLOAD DUP2 LT PUSH2 0x312 JUMPI PUSH2 0x311 PUSH2 0x1B6E JUMP JUMPDEST JUMPDEST PUSH1 0x20 ADD ADD MLOAD PUSH1 0xF8 SHR PUSH1 0xF8 SHL DUP4 PUSH1 0x2 DUP4 PUSH2 0x32B SWAP2 SWAP1 PUSH2 0x1B2C JUMP JUMPDEST DUP2 MLOAD DUP2 LT PUSH2 0x33C JUMPI PUSH2 0x33B PUSH2 0x1B6E JUMP JUMPDEST JUMPDEST PUSH1 0x20 ADD ADD SWAP1 PUSH31 0xFFFFFFFFFFFFFFFFFFFFFFFFFFFFFFFFFFFFFFFFFFFFFFFFFFFFFFFFFFFFFF NOT AND SWAP1 DUP2 PUSH1 0x0 BYTE SWAP1 MSTORE8 POP DUP2 DUP3 MLOAD DUP7 DUP4 DUP2 MLOAD DUP2 LT PUSH2 0x381 JUMPI PUSH2 0x380 PUSH2 0x1B6E JUMP JUMPDEST JUMPDEST PUSH1 0x20 ADD ADD MLOAD PUSH1 0xF8 SHR PUSH1 0xF8 SHL PUSH1 0xF8 SHR PUSH1 0xFF AND PUSH2 0x39C SWAP2 SWAP1 PUSH2 0x1BFD JUMP JUMPDEST DUP2 MLOAD DUP2 LT PUSH2 0x3AD JUMPI PUSH2 0x3AC PUSH2 0x1B6E JUMP JUMPDEST JUMPDEST PUSH1 0x20 ADD ADD MLOAD PUSH1 0xF8 SHR PUSH1 0xF8 SHL DUP4 PUSH1 0x1 PUSH1 0x2 DUP5 PUSH2 0x3C8 SWAP2 SWAP1 PUSH2 0x1B2C JUMP JUMPDEST PUSH2 0x3D2 SWAP2 SWAP1 PUSH2 0x1C2E JUMP JUMPDEST DUP2 MLOAD DUP2 LT PUSH2 0x3E3 JUMPI PUSH2 0x3E2 PUSH2 0x1B6E JUMP JUMPDEST JUMPDEST PUSH1 0x20 ADD ADD SWAP1 PUSH31 0xFFFFFFFFFFFFFFFFFFFFFFFFFFFFFFFFFFFFFFFFFFFFFFFFFFFFFFFFFFFFFF NOT AND SWAP1 DUP2 PUSH1 0x0 BYTE SWAP1 MSTORE8 POP DUP1 DUP1 PUSH2 0x41D SWAP1 PUSH2 0x1C62 JUMP JUMPDEST SWAP2 POP POP PUSH2 0x2C7 JUMP JUMPDEST POP DUP2 PUSH1 0x40 MLOAD PUSH1 0x20 ADD PUSH2 0x437 SWAP2 SWAP1 PUSH2 0x1D48 JUMP JUMPDEST PUSH1 0x40 MLOAD PUSH1 0x20 DUP2 DUP4 SUB SUB DUP2 MSTORE SWAP1 PUSH1 0x40 MSTORE SWAP3 POP POP POP SWAP2 SWAP1 POP JUMP JUMPDEST PUSH1 0x0 PUSH20 0xFFFFFFFFFFFFFFFFFFFFFFFFFFFFFFFFFFFFFFFF AND PUSH1 0x3 PUSH1 0x0 DUP9 PUSH1 0x0 ADD PUSH1 0x20 DUP2 ADD SWAP1 PUSH2 0x47E SWAP2 SWAP1 PUSH2 0x1647 JUMP JUMPDEST PUSH20 0xFFFFFFFFFFFFFFFFFFFFFFFFFFFFFFFFFFFFFFFF AND PUSH20 0xFFFFFFFFFFFFFFFFFFFFFFFFFFFFFFFFFFFFFFFF AND DUP2 MSTORE PUSH1 0x20 ADD SWAP1 DUP2 MSTORE PUSH1 0x20 ADD PUSH1 0x0 KECCAK256 PUSH1 0x0 SWAP1 SLOAD SWAP1 PUSH2 0x100 EXP SWAP1 DIV PUSH20 0xFFFFFFFFFFFFFFFFFFFFFFFFFFFFFFFFFFFFFFFF AND PUSH20 0xFFFFFFFFFFFFFFFFFFFFFFFFFFFFFFFFFFFFFFFF AND EQ PUSH2 0x52F JUMPI PUSH1 0x40 MLOAD PUSH32 0x8C379A000000000000000000000000000000000000000000000000000000000 DUP2 MSTORE PUSH1 0x4 ADD PUSH2 0x526 SWAP1 PUSH2 0x1DB6 JUMP JUMPDEST PUSH1 0x40 MLOAD DUP1 SWAP2 SUB SWAP1 REVERT JUMPDEST PUSH2 0x53A DUP7 DUP7 DUP7 PUSH2 0xC44 JUMP JUMPDEST PUSH2 0x543 JUMPI PUSH1 0x0 DUP1 REVERT JUMPDEST PUSH1 0x0 PUSH1 0x1 PUSH8 0xFFFFFFFFFFFFFFFF DUP2 GT ISZERO PUSH2 0x560 JUMPI PUSH2 0x55F PUSH2 0x16B9 JUMP JUMPDEST JUMPDEST PUSH1 0x40 MLOAD SWAP1 DUP1 DUP3 MSTORE DUP1 PUSH1 0x20 MUL PUSH1 0x20 ADD DUP3 ADD PUSH1 0x40 MSTORE DUP1 ISZERO PUSH2 0x58E JUMPI DUP2 PUSH1 0x20 ADD PUSH1 0x20 DUP3 MUL DUP1 CALLDATASIZE DUP4 CALLDATACOPY DUP1 DUP3 ADD SWAP2 POP POP SWAP1 POP JUMPDEST POP SWAP1 POP DUP7 PUSH1 0x0 ADD PUSH1 0x20 DUP2 ADD SWAP1 PUSH2 0x5A4 SWAP2 SWAP1 PUSH2 0x1647 JUMP JUMPDEST DUP2 PUSH1 0x0 DUP2 MLOAD DUP2 LT PUSH2 0x5B8 JUMPI PUSH2 0x5B7 PUSH2 0x1B6E JUMP JUMPDEST JUMPDEST PUSH1 0x20 MUL PUSH1 0x20 ADD ADD SWAP1 PUSH20 0xFFFFFFFFFFFFFFFFFFFFFFFFFFFFFFFFFFFFFFFF AND SWAP1 DUP2 PUSH20 0xFFFFFFFFFFFFFFFFFFFFFFFFFFFFFFFFFFFFFFFF AND DUP2 MSTORE POP POP PUSH1 0x0 DUP2 PUSH1 0x1 PUSH32 0x0 PUSH1 0x40 MLOAD PUSH1 0x24 ADD PUSH1 0x40 MLOAD PUSH1 0x20 DUP2 DUP4 SUB SUB DUP2 MSTORE SWAP1 PUSH1 0x40 MSTORE PUSH32 0xBA0BBA4000000000000000000000000000000000000000000000000000000000 PUSH28 0xFFFFFFFFFFFFFFFFFFFFFFFFFFFFFFFFFFFFFFFFFFFFFFFFFFFFFFFF NOT AND PUSH1 0x20 DUP3 ADD DUP1 MLOAD PUSH28 0xFFFFFFFFFFFFFFFFFFFFFFFFFFFFFFFFFFFFFFFFFFFFFFFFFFFFFFFF DUP4 DUP2 DUP4 AND OR DUP4 MSTORE POP POP POP POP PUSH32 0x0 PUSH1 0x0 DUP1 PUSH1 0x0 PUSH1 0x40 MLOAD PUSH1 0x24 ADD PUSH2 0x6D8 SWAP9 SWAP8 SWAP7 SWAP6 SWAP5 SWAP4 SWAP3 SWAP2 SWAP1 PUSH2 0x1ECF JUMP JUMPDEST PUSH1 0x40 MLOAD PUSH1 0x20 DUP2 DUP4 SUB SUB DUP2 MSTORE SWAP1 PUSH1 0x40 MSTORE PUSH32 0xB63E800D00000000000000000000000000000000000000000000000000000000 PUSH28 0xFFFFFFFFFFFFFFFFFFFFFFFFFFFFFFFFFFFFFFFFFFFFFFFFFFFFFFFF NOT AND PUSH1 0x20 DUP3 ADD DUP1 MLOAD PUSH28 0xFFFFFFFFFFFFFFFFFFFFFFFFFFFFFFFFFFFFFFFFFFFFFFFFFFFFFFFF DUP4 DUP2 DUP4 AND OR DUP4 MSTORE POP POP POP POP SWAP1 POP PUSH1 0x0 PUSH32 0x0 PUSH20 0xFFFFFFFFFFFFFFFFFFFFFFFFFFFFFFFFFFFFFFFF AND PUSH4 0x1688F0B9 PUSH32 0x0 DUP5 CHAINID PUSH1 0x40 MLOAD DUP5 PUSH4 0xFFFFFFFF AND PUSH1 0xE0 SHL DUP2 MSTORE PUSH1 0x4 ADD PUSH2 0x7D6 SWAP4 SWAP3 SWAP2 SWAP1 PUSH2 0x1F5B JUMP JUMPDEST PUSH1 0x20 PUSH1 0x40 MLOAD DUP1 DUP4 SUB DUP2 PUSH1 0x0 DUP8 GAS CALL ISZERO DUP1 ISZERO PUSH2 0x7F5 JUMPI RETURNDATASIZE PUSH1 0x0 DUP1 RETURNDATACOPY RETURNDATASIZE PUSH1 0x0 REVERT JUMPDEST POP POP POP POP PUSH1 0x40 MLOAD RETURNDATASIZE PUSH1 0x1F NOT PUSH1 0x1F DUP3 ADD AND DUP3 ADD DUP1 PUSH1 0x40 MSTORE POP DUP2 ADD SWAP1 PUSH2 0x819 SWAP2 SWAP1 PUSH2 0x1FAE JUMP JUMPDEST SWAP1 POP PUSH1 0x0 PUSH20 0xFFFFFFFFFFFFFFFFFFFFFFFFFFFFFFFFFFFFFFFF AND DUP10 PUSH1 0x20 ADD PUSH1 0x20 DUP2 ADD SWAP1 PUSH2 0x846 SWAP2 SWAP1 PUSH2 0x1647 JUMP JUMPDEST PUSH20 0xFFFFFFFFFFFFFFFFFFFFFFFFFFFFFFFFFFFFFFFF AND EQ PUSH2 0x8D3 JUMPI DUP6 PUSH20 0xFFFFFFFFFFFFFFFFFFFFFFFFFFFFFFFFFFFFFFFF AND PUSH4 0x724E59C3 DUP3 DUP12 DUP12 DUP12 PUSH1 0x40 MLOAD DUP6 PUSH4 0xFFFFFFFF AND PUSH1 0xE0 SHL DUP2 MSTORE PUSH1 0x4 ADD PUSH2 0x8A0 SWAP5 SWAP4 SWAP3 SWAP2 SWAP1 PUSH2 0x20BC JUMP JUMPDEST PUSH1 0x0 PUSH1 0x40 MLOAD DUP1 DUP4 SUB DUP2 PUSH1 0x0 DUP8 DUP1 EXTCODESIZE ISZERO DUP1 ISZERO PUSH2 0x8BA JUMPI PUSH1 0x0 DUP1 REVERT JUMPDEST POP GAS CALL ISZERO DUP1 ISZERO PUSH2 0x8CE JUMPI RETURNDATASIZE PUSH1 0x0 DUP1 RETURNDATACOPY RETURNDATASIZE PUSH1 0x0 REVERT JUMPDEST POP POP POP POP JUMPDEST DUP1 PUSH1 0x3 PUSH1 0x0 DUP12 PUSH1 0x0 ADD PUSH1 0x20 DUP2 ADD SWAP1 PUSH2 0x8EB SWAP2 SWAP1 PUSH2 0x1647 JUMP JUMPDEST PUSH20 0xFFFFFFFFFFFFFFFFFFFFFFFFFFFFFFFFFFFFFFFF AND PUSH20 0xFFFFFFFFFFFFFFFFFFFFFFFFFFFFFFFFFFFFFFFF AND DUP2 MSTORE PUSH1 0x20 ADD SWAP1 DUP2 MSTORE PUSH1 0x20 ADD PUSH1 0x0 KECCAK256 PUSH1 0x0 PUSH2 0x100 EXP DUP2 SLOAD DUP2 PUSH20 0xFFFFFFFFFFFFFFFFFFFFFFFFFFFFFFFFFFFFFFFF MUL NOT AND SWAP1 DUP4 PUSH20 0xFFFFFFFFFFFFFFFFFFFFFFFFFFFFFFFFFFFFFFFF AND MUL OR SWAP1 SSTORE POP DUP9 PUSH1 0x0 ADD PUSH1 0x20 DUP2 ADD SWAP1 PUSH2 0x976 SWAP2 SWAP1 PUSH2 0x1647 JUMP JUMPDEST PUSH1 0x4 PUSH1 0x0 DUP4 PUSH20 0xFFFFFFFFFFFFFFFFFFFFFFFFFFFFFFFFFFFFFFFF AND PUSH20 0xFFFFFFFFFFFFFFFFFFFFFFFFFFFFFFFFFFFFFFFF AND DUP2 MSTORE PUSH1 0x20 ADD SWAP1 DUP2 MSTORE PUSH1 0x20 ADD PUSH1 0x0 KECCAK256 PUSH1 0x0 PUSH2 0x100 EXP DUP2 SLOAD DUP2 PUSH20 0xFFFFFFFFFFFFFFFFFFFFFFFFFFFFFFFFFFFFFFFF MUL NOT AND SWAP1 DUP4 PUSH20 0xFFFFFFFFFFFFFFFFFFFFFFFFFFFFFFFFFFFFFFFF AND MUL OR SWAP1 SSTORE POP PUSH1 0x0 DUP2 PUSH20 0xFFFFFFFFFFFFFFFFFFFFFFFFFFFFFFFFFFFFFFFF AND DUP7 DUP7 PUSH1 0x40 MLOAD PUSH2 0xA1C SWAP3 SWAP2 SWAP1 PUSH2 0x2121 JUMP JUMPDEST PUSH1 0x0 PUSH1 0x40 MLOAD DUP1 DUP4 SUB DUP2 PUSH1 0x0 DUP7 GAS CALL SWAP2 POP POP RETURNDATASIZE DUP1 PUSH1 0x0 DUP2 EQ PUSH2 0xA59 JUMPI PUSH1 0x40 MLOAD SWAP2 POP PUSH1 0x1F NOT PUSH1 0x3F RETURNDATASIZE ADD AND DUP3 ADD PUSH1 0x40 MSTORE RETURNDATASIZE DUP3 MSTORE RETURNDATASIZE PUSH1 0x0 PUSH1 0x20 DUP5 ADD RETURNDATACOPY PUSH2 0xA5E JUMP JUMPDEST PUSH1 0x60 SWAP2 POP JUMPDEST POP POP SWAP1 POP DUP1 PUSH2 0xAA2 JUMPI PUSH1 0x40 MLOAD PUSH32 0x8C379A000000000000000000000000000000000000000000000000000000000 DUP2 MSTORE PUSH1 0x4 ADD PUSH2 0xA99 SWAP1 PUSH2 0x2186 JUMP JUMPDEST PUSH1 0x40 MLOAD DUP1 SWAP2 SUB SWAP1 REVERT JUMPDEST POP POP POP POP POP POP POP POP POP POP JUMP JUMPDEST PUSH1 0x2 DUP1 SLOAD PUSH2 0xABB SWAP1 PUSH2 0x21D5 JUMP JUMPDEST DUP1 PUSH1 0x1F ADD PUSH1 0x20 DUP1 SWAP2 DIV MUL PUSH1 0x20 ADD PUSH1 0x40 MLOAD SWAP1 DUP2 ADD PUSH1 0x40 MSTORE DUP1 SWAP3 SWAP2 SWAP1 DUP2 DUP2 MSTORE PUSH1 0x20 ADD DUP3 DUP1 SLOAD PUSH2 0xAE7 SWAP1 PUSH2 0x21D5 JUMP JUMPDEST DUP1 ISZERO PUSH2 0xB34 JUMPI DUP1 PUSH1 0x1F LT PUSH2 0xB09 JUMPI PUSH2 0x100 DUP1 DUP4 SLOAD DIV MUL DUP4 MSTORE SWAP2 PUSH1 0x20 ADD SWAP2 PUSH2 0xB34 JUMP JUMPDEST DUP3 ADD SWAP2 SWAP1 PUSH1 0x0 MSTORE PUSH1 0x20 PUSH1 0x0 KECCAK256 SWAP1 JUMPDEST DUP2 SLOAD DUP2 MSTORE SWAP1 PUSH1 0x1 ADD SWAP1 PUSH1 0x20 ADD DUP1 DUP4 GT PUSH2 0xB17 JUMPI DUP3 SWAP1 SUB PUSH1 0x1F AND DUP3 ADD SWAP2 JUMPDEST POP POP POP POP POP DUP2 JUMP JUMPDEST PUSH2 0xB44 PUSH2 0x1588 JUMP JUMPDEST PUSH1 0x60 PUSH1 0x40 MLOAD DUP1 PUSH1 0x60 ADD PUSH1 0x40 MSTORE DUP1 DUP6 PUSH20 0xFFFFFFFFFFFFFFFFFFFFFFFFFFFFFFFFFFFFFFFF AND DUP2 MSTORE PUSH1 0x20 ADD DUP5 PUSH20 0xFFFFFFFFFFFFFFFFFFFFFFFFFFFFFFFFFFFFFFFF AND DUP2 MSTORE PUSH1 0x20 ADD PUSH1 0x1 NUMBER PUSH2 0xB96 SWAP2 SWAP1 PUSH2 0x2206 JUMP JUMPDEST DUP2 MSTORE POP SWAP2 POP DUP2 PUSH2 0xBA5 DUP4 PUSH2 0xD85 JUMP JUMPDEST SWAP2 POP SWAP2 POP SWAP3 POP SWAP3 SWAP1 POP JUMP JUMPDEST PUSH1 0x0 DUP1 SLOAD PUSH2 0xBBD SWAP1 PUSH2 0x21D5 JUMP JUMPDEST DUP1 PUSH1 0x1F ADD PUSH1 0x20 DUP1 SWAP2 DIV MUL PUSH1 0x20 ADD PUSH1 0x40 MLOAD SWAP1 DUP2 ADD PUSH1 0x40 MSTORE DUP1 SWAP3 SWAP2 SWAP1 DUP2 DUP2 MSTORE PUSH1 0x20 ADD DUP3 DUP1 SLOAD PUSH2 0xBE9 SWAP1 PUSH2 0x21D5 JUMP JUMPDEST DUP1 ISZERO PUSH2 0xC36 JUMPI DUP1 PUSH1 0x1F LT PUSH2 0xC0B JUMPI PUSH2 0x100 DUP1 DUP4 SLOAD DIV MUL DUP4 MSTORE SWAP2 PUSH1 0x20 ADD SWAP2 PUSH2 0xC36 JUMP JUMPDEST DUP3 ADD SWAP2 SWAP1 PUSH1 0x0 MSTORE PUSH1 0x20 PUSH1 0x0 KECCAK256 SWAP1 JUMPDEST DUP2 SLOAD DUP2 MSTORE SWAP1 PUSH1 0x1 ADD SWAP1 PUSH1 0x20 ADD DUP1 DUP4 GT PUSH2 0xC19 JUMPI DUP3 SWAP1 SUB PUSH1 0x1F AND DUP3 ADD SWAP2 JUMPDEST POP POP POP POP POP DUP2 JUMP JUMPDEST PUSH1 0x1 SLOAD DUP2 JUMP JUMPDEST PUSH1 0x0 DUP1 PUSH2 0xC50 DUP6 PUSH2 0xDD9 JUMP JUMPDEST SWAP1 POP PUSH1 0x0 PUSH2 0xCA2 DUP3 DUP7 DUP7 DUP1 DUP1 PUSH1 0x1F ADD PUSH1 0x20 DUP1 SWAP2 DIV MUL PUSH1 0x20 ADD PUSH1 0x40 MLOAD SWAP1 DUP2 ADD PUSH1 0x40 MSTORE DUP1 SWAP4 SWAP3 SWAP2 SWAP1 DUP2 DUP2 MSTORE PUSH1 0x20 ADD DUP4 DUP4 DUP1 DUP3 DUP5 CALLDATACOPY PUSH1 0x0 DUP2 DUP5 ADD MSTORE PUSH1 0x1F NOT PUSH1 0x1F DUP3 ADD AND SWAP1 POP DUP1 DUP4 ADD SWAP3 POP POP POP POP POP POP POP PUSH2 0xE03 JUMP JUMPDEST SWAP1 POP DUP6 PUSH1 0x0 ADD PUSH1 0x20 DUP2 ADD SWAP1 PUSH2 0xCB7 SWAP2 SWAP1 PUSH2 0x1647 JUMP JUMPDEST PUSH20 0xFFFFFFFFFFFFFFFFFFFFFFFFFFFFFFFFFFFFFFFF AND DUP2 PUSH20 0xFFFFFFFFFFFFFFFFFFFFFFFFFFFFFFFFFFFFFFFF AND EQ PUSH2 0xD24 JUMPI PUSH1 0x40 MLOAD PUSH32 0x8C379A000000000000000000000000000000000000000000000000000000000 DUP2 MSTORE PUSH1 0x4 ADD PUSH2 0xD1B SWAP1 PUSH2 0x2286 JUMP JUMPDEST PUSH1 0x40 MLOAD DUP1 SWAP2 SUB SWAP1 REVERT JUMPDEST PUSH1 0x1 SLOAD NUMBER PUSH2 0xD32 SWAP2 SWAP1 PUSH2 0x2206 JUMP JUMPDEST DUP7 PUSH1 0x40 ADD CALLDATALOAD LT ISZERO PUSH2 0xD78 JUMPI PUSH1 0x40 MLOAD PUSH32 0x8C379A000000000000000000000000000000000000000000000000000000000 DUP2 MSTORE PUSH1 0x4 ADD PUSH2 0xD6F SWAP1 PUSH2 0x22F2 JUMP JUMPDEST PUSH1 0x40 MLOAD DUP1 SWAP2 SUB SWAP1 REVERT JUMPDEST PUSH1 0x1 SWAP3 POP POP POP SWAP4 SWAP3 POP POP POP JUMP JUMPDEST PUSH1 0x60 PUSH1 0x0 PUSH2 0xD96 DUP4 PUSH1 0x0 ADD MLOAD PUSH2 0xE2A JUMP JUMPDEST PUSH2 0xDA3 DUP5 PUSH1 0x20 ADD MLOAD PUSH2 0xE2A JUMP JUMPDEST PUSH2 0xDB0 DUP6 PUSH1 0x40 ADD MLOAD PUSH2 0xE57 JUMP JUMPDEST PUSH1 0x40 MLOAD PUSH1 0x20 ADD PUSH2 0xDC3 SWAP5 SWAP4 SWAP3 SWAP2 SWAP1 PUSH2 0x24BF JUMP JUMPDEST PUSH1 0x40 MLOAD PUSH1 0x20 DUP2 DUP4 SUB SUB DUP2 MSTORE SWAP1 PUSH1 0x40 MSTORE SWAP1 POP SWAP2 SWAP1 POP JUMP JUMPDEST PUSH1 0x0 PUSH2 0xDFC PUSH2 0xDF7 DUP4 DUP1 CALLDATASIZE SUB DUP2 ADD SWAP1 PUSH2 0xDF2 SWAP2 SWAP1 PUSH2 0x2587 JUMP JUMPDEST PUSH2 0xD85 JUMP JUMPDEST PUSH2 0xF25 JUMP JUMPDEST SWAP1 POP SWAP2 SWAP1 POP JUMP JUMPDEST PUSH1 0x0 DUP1 PUSH1 0x0 PUSH2 0xE12 DUP6 DUP6 PUSH2 0xF60 JUMP JUMPDEST SWAP2 POP SWAP2 POP PUSH2 0xE1F DUP2 PUSH2 0xFB1 JUMP JUMPDEST DUP2 SWAP3 POP POP POP SWAP3 SWAP2 POP POP JUMP JUMPDEST PUSH1 0x60 PUSH2 0xE50 DUP3 PUSH20 0xFFFFFFFFFFFFFFFFFFFFFFFFFFFFFFFFFFFFFFFF AND PUSH1 0x14 PUSH1 0xFF AND PUSH2 0x1117 JUMP JUMPDEST SWAP1 POP SWAP2 SWAP1 POP JUMP JUMPDEST PUSH1 0x60 PUSH1 0x0 PUSH1 0x1 PUSH2 0xE66 DUP5 PUSH2 0x1353 JUMP JUMPDEST ADD SWAP1 POP PUSH1 0x0 DUP2 PUSH8 0xFFFFFFFFFFFFFFFF DUP2 GT ISZERO PUSH2 0xE85 JUMPI PUSH2 0xE84 PUSH2 0x16B9 JUMP JUMPDEST JUMPDEST PUSH1 0x40 MLOAD SWAP1 DUP1 DUP3 MSTORE DUP1 PUSH1 0x1F ADD PUSH1 0x1F NOT AND PUSH1 0x20 ADD DUP3 ADD PUSH1 0x40 MSTORE DUP1 ISZERO PUSH2 0xEB7 JUMPI DUP2 PUSH1 0x20 ADD PUSH1 0x1 DUP3 MUL DUP1 CALLDATASIZE DUP4 CALLDATACOPY DUP1 DUP3 ADD SWAP2 POP POP SWAP1 POP JUMPDEST POP SWAP1 POP PUSH1 0x0 DUP3 PUSH1 0x20 ADD DUP3 ADD SWAP1 POP JUMPDEST PUSH1 0x1 ISZERO PUSH2 0xF1A JUMPI DUP1 DUP1 PUSH1 0x1 SWAP1 SUB SWAP2 POP POP PUSH32 0x3031323334353637383961626364656600000000000000000000000000000000 PUSH1 0xA DUP7 MOD BYTE DUP2 MSTORE8 PUSH1 0xA DUP6 DUP2 PUSH2 0xF0E JUMPI PUSH2 0xF0D PUSH2 0x1B9D JUMP JUMPDEST JUMPDEST DIV SWAP5 POP PUSH1 0x0 DUP6 SUB PUSH2 0xEC5 JUMPI JUMPDEST DUP2 SWAP4 POP POP POP POP SWAP2 SWAP1 POP JUMP JUMPDEST PUSH1 0x0 PUSH2 0xF31 DUP3 MLOAD PUSH2 0xE57 JUMP JUMPDEST DUP3 PUSH1 0x40 MLOAD PUSH1 0x20 ADD PUSH2 0xF43 SWAP3 SWAP2 SWAP1 PUSH2 0x2600 JUMP JUMPDEST PUSH1 0x40 MLOAD PUSH1 0x20 DUP2 DUP4 SUB SUB DUP2 MSTORE SWAP1 PUSH1 0x40 MSTORE DUP1 MLOAD SWAP1 PUSH1 0x20 ADD KECCAK256 SWAP1 POP SWAP2 SWAP1 POP JUMP JUMPDEST PUSH1 0x0 DUP1 PUSH1 0x41 DUP4 MLOAD SUB PUSH2 0xFA1 JUMPI PUSH1 0x0 DUP1 PUSH1 0x0 PUSH1 0x20 DUP7 ADD MLOAD SWAP3 POP PUSH1 0x40 DUP7 ADD MLOAD SWAP2 POP PUSH1 0x60 DUP7 ADD MLOAD PUSH1 0x0 BYTE SWAP1 POP PUSH2 0xF95 DUP8 DUP3 DUP6 DUP6 PUSH2 0x14A6 JUMP JUMPDEST SWAP5 POP SWAP5 POP POP POP POP PUSH2 0xFAA JUMP JUMPDEST PUSH1 0x0 PUSH1 0x2 SWAP2 POP SWAP2 POP JUMPDEST SWAP3 POP SWAP3 SWAP1 POP JUMP JUMPDEST PUSH1 0x0 PUSH1 0x4 DUP2 GT ISZERO PUSH2 0xFC5 JUMPI PUSH2 0xFC4 PUSH2 0x262F JUMP JUMPDEST JUMPDEST DUP2 PUSH1 0x4 DUP2 GT ISZERO PUSH2 0xFD8 JUMPI PUSH2 0xFD7 PUSH2 0x262F JUMP JUMPDEST JUMPDEST SUB ISZERO PUSH2 0x1114 JUMPI PUSH1 0x1 PUSH1 0x4 DUP2 GT ISZERO PUSH2 0xFF2 JUMPI PUSH2 0xFF1 PUSH2 0x262F JUMP JUMPDEST JUMPDEST DUP2 PUSH1 0x4 DUP2 GT ISZERO PUSH2 0x1005 JUMPI PUSH2 0x1004 PUSH2 0x262F JUMP JUMPDEST JUMPDEST SUB PUSH2 0x1045 JUMPI PUSH1 0x40 MLOAD PUSH32 0x8C379A000000000000000000000000000000000000000000000000000000000 DUP2 MSTORE PUSH1 0x4 ADD PUSH2 0x103C SWAP1 PUSH2 0x26AA JUMP JUMPDEST PUSH1 0x40 MLOAD DUP1 SWAP2 SUB SWAP1 REVERT JUMPDEST PUSH1 0x2 PUSH1 0x4 DUP2 GT ISZERO PUSH2 0x1059 JUMPI PUSH2 0x1058 PUSH2 0x262F JUMP JUMPDEST JUMPDEST DUP2 PUSH1 0x4 DUP2 GT ISZERO PUSH2 0x106C JUMPI PUSH2 0x106B PUSH2 0x262F JUMP JUMPDEST JUMPDEST SUB PUSH2 0x10AC JUMPI PUSH1 0x40 MLOAD PUSH32 0x8C379A000000000000000000000000000000000000000000000000000000000 DUP2 MSTORE PUSH1 0x4 ADD PUSH2 0x10A3 SWAP1 PUSH2 0x2716 JUMP JUMPDEST PUSH1 0x40 MLOAD DUP1 SWAP2 SUB SWAP1 REVERT JUMPDEST PUSH1 0x3 PUSH1 0x4 DUP2 GT ISZERO PUSH2 0x10C0 JUMPI PUSH2 0x10BF PUSH2 0x262F JUMP JUMPDEST JUMPDEST DUP2 PUSH1 0x4 DUP2 GT ISZERO PUSH2 0x10D3 JUMPI PUSH2 0x10D2 PUSH2 0x262F JUMP JUMPDEST JUMPDEST SUB PUSH2 0x1113 JUMPI PUSH1 0x40 MLOAD PUSH32 0x8C379A000000000000000000000000000000000000000000000000000000000 DUP2 MSTORE PUSH1 0x4 ADD PUSH2 0x110A SWAP1 PUSH2 0x27A8 JUMP JUMPDEST PUSH1 0x40 MLOAD DUP1 SWAP2 SUB SWAP1 REVERT JUMPDEST JUMPDEST POP JUMP JUMPDEST PUSH1 0x60 PUSH1 0x0 PUSH1 0x2 DUP4 PUSH1 0x2 PUSH2 0x112A SWAP2 SWAP1 PUSH2 0x1B2C JUMP JUMPDEST PUSH2 0x1134 SWAP2 SWAP1 PUSH2 0x1C2E JUMP JUMPDEST PUSH8 0xFFFFFFFFFFFFFFFF DUP2 GT ISZERO PUSH2 0x114D JUMPI PUSH2 0x114C PUSH2 0x16B9 JUMP JUMPDEST JUMPDEST PUSH1 0x40 MLOAD SWAP1 DUP1 DUP3 MSTORE DUP1 PUSH1 0x1F ADD PUSH1 0x1F NOT AND PUSH1 0x20 ADD DUP3 ADD PUSH1 0x40 MSTORE DUP1 ISZERO PUSH2 0x117F JUMPI DUP2 PUSH1 0x20 ADD PUSH1 0x1 DUP3 MUL DUP1 CALLDATASIZE DUP4 CALLDATACOPY DUP1 DUP3 ADD SWAP2 POP POP SWAP1 POP JUMPDEST POP SWAP1 POP PUSH32 0x3000000000000000000000000000000000000000000000000000000000000000 DUP2 PUSH1 0x0 DUP2 MLOAD DUP2 LT PUSH2 0x11B7 JUMPI PUSH2 0x11B6 PUSH2 0x1B6E JUMP JUMPDEST JUMPDEST PUSH1 0x20 ADD ADD SWAP1 PUSH31 0xFFFFFFFFFFFFFFFFFFFFFFFFFFFFFFFFFFFFFFFFFFFFFFFFFFFFFFFFFFFFFF NOT AND SWAP1 DUP2 PUSH1 0x0 BYTE SWAP1 MSTORE8 POP PUSH32 0x7800000000000000000000000000000000000000000000000000000000000000 DUP2 PUSH1 0x1 DUP2 MLOAD DUP2 LT PUSH2 0x121B JUMPI PUSH2 0x121A PUSH2 0x1B6E JUMP JUMPDEST JUMPDEST PUSH1 0x20 ADD ADD SWAP1 PUSH31 0xFFFFFFFFFFFFFFFFFFFFFFFFFFFFFFFFFFFFFFFFFFFFFFFFFFFFFFFFFFFFFF NOT AND SWAP1 DUP2 PUSH1 0x0 BYTE SWAP1 MSTORE8 POP PUSH1 0x0 PUSH1 0x1 DUP5 PUSH1 0x2 PUSH2 0x125B SWAP2 SWAP1 PUSH2 0x1B2C JUMP JUMPDEST PUSH2 0x1265 SWAP2 SWAP1 PUSH2 0x1C2E JUMP JUMPDEST SWAP1 POP JUMPDEST PUSH1 0x1 DUP2 GT ISZERO PUSH2 0x1305 JUMPI PUSH32 0x3031323334353637383961626364656600000000000000000000000000000000 PUSH1 0xF DUP7 AND PUSH1 0x10 DUP2 LT PUSH2 0x12A7 JUMPI PUSH2 0x12A6 PUSH2 0x1B6E JUMP JUMPDEST JUMPDEST BYTE PUSH1 0xF8 SHL DUP3 DUP3 DUP2 MLOAD DUP2 LT PUSH2 0x12BE JUMPI PUSH2 0x12BD PUSH2 0x1B6E JUMP JUMPDEST JUMPDEST PUSH1 0x20 ADD ADD SWAP1 PUSH31 0xFFFFFFFFFFFFFFFFFFFFFFFFFFFFFFFFFFFFFFFFFFFFFFFFFFFFFFFFFFFFFF NOT AND SWAP1 DUP2 PUSH1 0x0 BYTE SWAP1 MSTORE8 POP PUSH1 0x4 DUP6 SWAP1 SHR SWAP5 POP DUP1 PUSH2 0x12FE SWAP1 PUSH2 0x27C8 JUMP JUMPDEST SWAP1 POP PUSH2 0x1268 JUMP JUMPDEST POP PUSH1 0x0 DUP5 EQ PUSH2 0x1349 JUMPI PUSH1 0x40 MLOAD PUSH32 0x8C379A000000000000000000000000000000000000000000000000000000000 DUP2 MSTORE PUSH1 0x4 ADD PUSH2 0x1340 SWAP1 PUSH2 0x283D JUMP JUMPDEST PUSH1 0x40 MLOAD DUP1 SWAP2 SUB SWAP1 REVERT JUMPDEST DUP1 SWAP2 POP POP SWAP3 SWAP2 POP POP JUMP JUMPDEST PUSH1 0x0 DUP1 PUSH1 0x0 SWAP1 POP PUSH27 0x184F03E93FF9F4DAA797ED6E38ED64BF6A1F010000000000000000 DUP4 LT PUSH2 0x13B1 JUMPI PUSH27 0x184F03E93FF9F4DAA797ED6E38ED64BF6A1F010000000000000000 DUP4 DUP2 PUSH2 0x13A7 JUMPI PUSH2 0x13A6 PUSH2 0x1B9D JUMP JUMPDEST JUMPDEST DIV SWAP3 POP PUSH1 0x40 DUP2 ADD SWAP1 POP JUMPDEST PUSH14 0x4EE2D6D415B85ACEF8100000000 DUP4 LT PUSH2 0x13EE JUMPI PUSH14 0x4EE2D6D415B85ACEF8100000000 DUP4 DUP2 PUSH2 0x13E4 JUMPI PUSH2 0x13E3 PUSH2 0x1B9D JUMP JUMPDEST JUMPDEST DIV SWAP3 POP PUSH1 0x20 DUP2 ADD SWAP1 POP JUMPDEST PUSH7 0x2386F26FC10000 DUP4 LT PUSH2 0x141D JUMPI PUSH7 0x2386F26FC10000 DUP4 DUP2 PUSH2 0x1413 JUMPI PUSH2 0x1412 PUSH2 0x1B9D JUMP JUMPDEST JUMPDEST DIV SWAP3 POP PUSH1 0x10 DUP2 ADD SWAP1 POP JUMPDEST PUSH4 0x5F5E100 DUP4 LT PUSH2 0x1446 JUMPI PUSH4 0x5F5E100 DUP4 DUP2 PUSH2 0x143C JUMPI PUSH2 0x143B PUSH2 0x1B9D JUMP JUMPDEST JUMPDEST DIV SWAP3 POP PUSH1 0x8 DUP2 ADD SWAP1 POP JUMPDEST PUSH2 0x2710 DUP4 LT PUSH2 0x146B JUMPI PUSH2 0x2710 DUP4 DUP2 PUSH2 0x1461 JUMPI PUSH2 0x1460 PUSH2 0x1B9D JUMP JUMPDEST JUMPDEST DIV SWAP3 POP PUSH1 0x4 DUP2 ADD SWAP1 POP JUMPDEST PUSH1 0x64 DUP4 LT PUSH2 0x148E JUMPI PUSH1 0x64 DUP4 DUP2 PUSH2 0x1484 JUMPI PUSH2 0x1483 PUSH2 0x1B9D JUMP JUMPDEST JUMPDEST DIV SWAP3 POP PUSH1 0x2 DUP2 ADD SWAP1 POP JUMPDEST PUSH1 0xA DUP4 LT PUSH2 0x149D JUMPI PUSH1 0x1 DUP2 ADD SWAP1 POP JUMPDEST DUP1 SWAP2 POP POP SWAP2 SWAP1 POP JUMP JUMPDEST PUSH1 0x0 DUP1 PUSH32 0x7FFFFFFFFFFFFFFFFFFFFFFFFFFFFFFF5D576E7357A4501DDFE92F46681B20A0 DUP4 PUSH1 0x0 SHR GT ISZERO PUSH2 0x14E1 JUMPI PUSH1 0x0 PUSH1 0x3 SWAP2 POP SWAP2 POP PUSH2 0x157F JUMP JUMPDEST PUSH1 0x0 PUSH1 0x1 DUP8 DUP8 DUP8 DUP8 PUSH1 0x40 MLOAD PUSH1 0x0 DUP2 MSTORE PUSH1 0x20 ADD PUSH1 0x40 MSTORE PUSH1 0x40 MLOAD PUSH2 0x1506 SWAP5 SWAP4 SWAP3 SWAP2 SWAP1 PUSH2 0x2892 JUMP JUMPDEST PUSH1 0x20 PUSH1 0x40 MLOAD PUSH1 0x20 DUP2 SUB SWAP1 DUP1 DUP5 SUB SWAP1 DUP6 GAS STATICCALL ISZERO DUP1 ISZERO PUSH2 0x1528 JUMPI RETURNDATASIZE PUSH1 0x0 DUP1 RETURNDATACOPY RETURNDATASIZE PUSH1 0x0 REVERT JUMPDEST POP POP POP PUSH1 0x20 PUSH1 0x40 MLOAD SUB MLOAD SWAP1 POP PUSH1 0x0 PUSH20 0xFFFFFFFFFFFFFFFFFFFFFFFFFFFFFFFFFFFFFFFF AND DUP2 PUSH20 0xFFFFFFFFFFFFFFFFFFFFFFFFFFFFFFFFFFFFFFFF AND SUB PUSH2 0x1576 JUMPI PUSH1 0x0 PUSH1 0x1 SWAP3 POP SWAP3 POP POP PUSH2 0x157F JUMP JUMPDEST DUP1 PUSH1 0x0 SWAP3 POP SWAP3 POP POP JUMPDEST SWAP5 POP SWAP5 SWAP3 POP POP POP JUMP JUMPDEST PUSH1 0x40 MLOAD DUP1 PUSH1 0x60 ADD PUSH1 0x40 MSTORE DUP1 PUSH1 0x0 PUSH20 0xFFFFFFFFFFFFFFFFFFFFFFFFFFFFFFFFFFFFFFFF AND DUP2 MSTORE PUSH1 0x20 ADD PUSH1 0x0 PUSH20 0xFFFFFFFFFFFFFFFFFFFFFFFFFFFFFFFFFFFFFFFF AND DUP2 MSTORE PUSH1 0x20 ADD PUSH1 0x0 DUP2 MSTORE POP SWAP1 JUMP JUMPDEST PUSH1 0x0 PUSH1 0x40 MLOAD SWAP1 POP SWAP1 JUMP JUMPDEST PUSH1 0x0 DUP1 REVERT JUMPDEST PUSH1 0x0 DUP1 REVERT JUMPDEST PUSH1 0x0 PUSH20 0xFFFFFFFFFFFFFFFFFFFFFFFFFFFFFFFFFFFFFFFF DUP3 AND SWAP1 POP SWAP2 SWAP1 POP JUMP JUMPDEST PUSH1 0x0 PUSH2 0x1614 DUP3 PUSH2 0x15E9 JUMP JUMPDEST SWAP1 POP SWAP2 SWAP1 POP JUMP JUMPDEST PUSH2 0x1624 DUP2 PUSH2 0x1609 JUMP JUMPDEST DUP2 EQ PUSH2 0x162F JUMPI PUSH1 0x0 DUP1 REVERT JUMPDEST POP JUMP JUMPDEST PUSH1 0x0 DUP2 CALLDATALOAD SWAP1 POP PUSH2 0x1641 DUP2 PUSH2 0x161B JUMP JUMPDEST SWAP3 SWAP2 POP POP JUMP JUMPDEST PUSH1 0x0 PUSH1 0x20 DUP3 DUP5 SUB SLT ISZERO PUSH2 0x165D JUMPI PUSH2 0x165C PUSH2 0x15DF JUMP JUMPDEST JUMPDEST PUSH1 0x0 PUSH2 0x166B DUP5 DUP3 DUP6 ADD PUSH2 0x1632 JUMP JUMPDEST SWAP2 POP POP SWAP3 SWAP2 POP POP JUMP JUMPDEST PUSH2 0x167D DUP2 PUSH2 0x1609 JUMP JUMPDEST DUP3 MSTORE POP POP JUMP JUMPDEST PUSH1 0x0 PUSH1 0x20 DUP3 ADD SWAP1 POP PUSH2 0x1698 PUSH1 0x0 DUP4 ADD DUP5 PUSH2 0x1674 JUMP JUMPDEST SWAP3 SWAP2 POP POP JUMP JUMPDEST PUSH1 0x0 DUP1 REVERT JUMPDEST PUSH1 0x0 DUP1 REVERT JUMPDEST PUSH1 0x0 PUSH1 0x1F NOT PUSH1 0x1F DUP4 ADD AND SWAP1 POP SWAP2 SWAP1 POP JUMP JUMPDEST PUSH32 0x4E487B7100000000000000000000000000000000000000000000000000000000 PUSH1 0x0 MSTORE PUSH1 0x41 PUSH1 0x4 MSTORE PUSH1 0x24 PUSH1 0x0 REVERT JUMPDEST PUSH2 0x16F1 DUP3 PUSH2 0x16A8 JUMP JUMPDEST DUP2 ADD DUP2 DUP2 LT PUSH8 0xFFFFFFFFFFFFFFFF DUP3 GT OR ISZERO PUSH2 0x1710 JUMPI PUSH2 0x170F PUSH2 0x16B9 JUMP JUMPDEST JUMPDEST DUP1 PUSH1 0x40 MSTORE POP POP POP JUMP JUMPDEST PUSH1 0x0 PUSH2 0x1723 PUSH2 0x15D5 JUMP JUMPDEST SWAP1 POP PUSH2 0x172F DUP3 DUP3 PUSH2 0x16E8 JUMP JUMPDEST SWAP2 SWAP1 POP JUMP JUMPDEST PUSH1 0x0 PUSH8 0xFFFFFFFFFFFFFFFF DUP3 GT ISZERO PUSH2 0x174F JUMPI PUSH2 0x174E PUSH2 0x16B9 JUMP JUMPDEST JUMPDEST PUSH2 0x1758 DUP3 PUSH2 0x16A8 JUMP JUMPDEST SWAP1 POP PUSH1 0x20 DUP2 ADD SWAP1 POP SWAP2 SWAP1 POP JUMP JUMPDEST DUP3 DUP2 DUP4 CALLDATACOPY PUSH1 0x0 DUP4 DUP4 ADD MSTORE POP POP POP JUMP JUMPDEST PUSH1 0x0 PUSH2 0x1787 PUSH2 0x1782 DUP5 PUSH2 0x1734 JUMP JUMPDEST PUSH2 0x1719 JUMP JUMPDEST SWAP1 POP DUP3 DUP2 MSTORE PUSH1 0x20 DUP2 ADD DUP5 DUP5 DUP5 ADD GT ISZERO PUSH2 0x17A3 JUMPI PUSH2 0x17A2 PUSH2 0x16A3 JUMP JUMPDEST JUMPDEST PUSH2 0x17AE DUP5 DUP3 DUP6 PUSH2 0x1765 JUMP JUMPDEST POP SWAP4 SWAP3 POP POP POP JUMP JUMPDEST PUSH1 0x0 DUP3 PUSH1 0x1F DUP4 ADD SLT PUSH2 0x17CB JUMPI PUSH2 0x17CA PUSH2 0x169E JUMP JUMPDEST JUMPDEST DUP2 CALLDATALOAD PUSH2 0x17DB DUP5 DUP3 PUSH1 0x20 DUP7 ADD PUSH2 0x1774 JUMP JUMPDEST SWAP2 POP POP SWAP3 SWAP2 POP POP JUMP JUMPDEST PUSH1 0x0 PUSH1 0x20 DUP3 DUP5 SUB SLT ISZERO PUSH2 0x17FA JUMPI PUSH2 0x17F9 PUSH2 0x15DF JUMP JUMPDEST JUMPDEST PUSH1 0x0 DUP3 ADD CALLDATALOAD PUSH8 0xFFFFFFFFFFFFFFFF DUP2 GT ISZERO PUSH2 0x1818 JUMPI PUSH2 0x1817 PUSH2 0x15E4 JUMP JUMPDEST JUMPDEST PUSH2 0x1824 DUP5 DUP3 DUP6 ADD PUSH2 0x17B6 JUMP JUMPDEST SWAP2 POP POP SWAP3 SWAP2 POP POP JUMP JUMPDEST PUSH1 0x0 DUP2 MLOAD SWAP1 POP SWAP2 SWAP1 POP JUMP JUMPDEST PUSH1 0x0 DUP3 DUP3 MSTORE PUSH1 0x20 DUP3 ADD SWAP1 POP SWAP3 SWAP2 POP POP JUMP JUMPDEST PUSH1 0x0 JUMPDEST DUP4 DUP2 LT ISZERO PUSH2 0x1867 JUMPI DUP1 DUP3 ADD MLOAD DUP2 DUP5 ADD MSTORE PUSH1 0x20 DUP2 ADD SWAP1 POP PUSH2 0x184C JUMP JUMPDEST PUSH1 0x0 DUP5 DUP5 ADD MSTORE POP POP POP POP JUMP JUMPDEST PUSH1 0x0 PUSH2 0x187E DUP3 PUSH2 0x182D JUMP JUMPDEST PUSH2 0x1888 DUP2 DUP6 PUSH2 0x1838 JUMP JUMPDEST SWAP4 POP PUSH2 0x1898 DUP2 DUP6 PUSH1 0x20 DUP7 ADD PUSH2 0x1849 JUMP JUMPDEST PUSH2 0x18A1 DUP2 PUSH2 0x16A8 JUMP JUMPDEST DUP5 ADD SWAP2 POP POP SWAP3 SWAP2 POP POP JUMP JUMPDEST PUSH1 0x0 PUSH1 0x20 DUP3 ADD SWAP1 POP DUP2 DUP2 SUB PUSH1 0x0 DUP4 ADD MSTORE PUSH2 0x18C6 DUP2 DUP5 PUSH2 0x1873 JUMP JUMPDEST SWAP1 POP SWAP3 SWAP2 POP POP JUMP JUMPDEST PUSH1 0x0 DUP1 REVERT JUMPDEST PUSH1 0x0 PUSH1 0x60 DUP3 DUP5 SUB SLT ISZERO PUSH2 0x18E9 JUMPI PUSH2 0x18E8 PUSH2 0x18CE JUMP JUMPDEST JUMPDEST DUP2 SWAP1 POP SWAP3 SWAP2 POP POP JUMP JUMPDEST PUSH1 0x0 DUP1 REVERT JUMPDEST PUSH1 0x0 DUP1 REVERT JUMPDEST PUSH1 0x0 DUP1 DUP4 PUSH1 0x1F DUP5 ADD SLT PUSH2 0x1912 JUMPI PUSH2 0x1911 PUSH2 0x169E JUMP JUMPDEST JUMPDEST DUP3 CALLDATALOAD SWAP1 POP PUSH8 0xFFFFFFFFFFFFFFFF DUP2 GT ISZERO PUSH2 0x192F JUMPI PUSH2 0x192E PUSH2 0x18F2 JUMP JUMPDEST JUMPDEST PUSH1 0x20 DUP4 ADD SWAP2 POP DUP4 PUSH1 0x1 DUP3 MUL DUP4 ADD GT ISZERO PUSH2 0x194B JUMPI PUSH2 0x194A PUSH2 0x18F7 JUMP JUMPDEST JUMPDEST SWAP3 POP SWAP3 SWAP1 POP JUMP JUMPDEST PUSH1 0x0 DUP1 PUSH1 0x0 DUP1 PUSH1 0x0 DUP1 PUSH1 0xC0 DUP8 DUP10 SUB SLT ISZERO PUSH2 0x196F JUMPI PUSH2 0x196E PUSH2 0x15DF JUMP JUMPDEST JUMPDEST PUSH1 0x0 PUSH2 0x197D DUP10 DUP3 DUP11 ADD PUSH2 0x18D3 JUMP JUMPDEST SWAP7 POP POP PUSH1 0x60 DUP8 ADD CALLDATALOAD PUSH8 0xFFFFFFFFFFFFFFFF DUP2 GT ISZERO PUSH2 0x199E JUMPI PUSH2 0x199D PUSH2 0x15E4 JUMP JUMPDEST JUMPDEST PUSH2 0x19AA DUP10 DUP3 DUP11 ADD PUSH2 0x18FC JUMP JUMPDEST SWAP6 POP SWAP6 POP POP PUSH1 0x80 PUSH2 0x19BD DUP10 DUP3 DUP11 ADD PUSH2 0x1632 JUMP JUMPDEST SWAP4 POP POP PUSH1 0xA0 DUP8 ADD CALLDATALOAD PUSH8 0xFFFFFFFFFFFFFFFF DUP2 GT ISZERO PUSH2 0x19DE JUMPI PUSH2 0x19DD PUSH2 0x15E4 JUMP JUMPDEST JUMPDEST PUSH2 0x19EA DUP10 DUP3 DUP11 ADD PUSH2 0x18FC JUMP JUMPDEST SWAP3 POP SWAP3 POP POP SWAP3 SWAP6 POP SWAP3 SWAP6 POP SWAP3 SWAP6 JUMP JUMPDEST PUSH1 0x0 DUP1 PUSH1 0x40 DUP4 DUP6 SUB SLT ISZERO PUSH2 0x1A10 JUMPI PUSH2 0x1A0F PUSH2 0x15DF JUMP JUMPDEST JUMPDEST PUSH1 0x0 PUSH2 0x1A1E DUP6 DUP3 DUP7 ADD PUSH2 0x1632 JUMP JUMPDEST SWAP3 POP POP PUSH1 0x20 PUSH2 0x1A2F DUP6 DUP3 DUP7 ADD PUSH2 0x1632 JUMP JUMPDEST SWAP2 POP POP SWAP3 POP SWAP3 SWAP1 POP JUMP JUMPDEST PUSH2 0x1A42 DUP2 PUSH2 0x1609 JUMP JUMPDEST DUP3 MSTORE POP POP JUMP JUMPDEST PUSH1 0x0 DUP2 SWAP1 POP SWAP2 SWAP1 POP JUMP JUMPDEST PUSH2 0x1A5B DUP2 PUSH2 0x1A48 JUMP JUMPDEST DUP3 MSTORE POP POP JUMP JUMPDEST PUSH1 0x60 DUP3 ADD PUSH1 0x0 DUP3 ADD MLOAD PUSH2 0x1A77 PUSH1 0x0 DUP6 ADD DUP3 PUSH2 0x1A39 JUMP JUMPDEST POP PUSH1 0x20 DUP3 ADD MLOAD PUSH2 0x1A8A PUSH1 0x20 DUP6 ADD DUP3 PUSH2 0x1A39 JUMP JUMPDEST POP PUSH1 0x40 DUP3 ADD MLOAD PUSH2 0x1A9D PUSH1 0x40 DUP6 ADD DUP3 PUSH2 0x1A52 JUMP JUMPDEST POP POP POP POP JUMP JUMPDEST PUSH1 0x0 PUSH1 0x80 DUP3 ADD SWAP1 POP PUSH2 0x1AB8 PUSH1 0x0 DUP4 ADD DUP6 PUSH2 0x1A61 JUMP JUMPDEST DUP2 DUP2 SUB PUSH1 0x60 DUP4 ADD MSTORE PUSH2 0x1ACA DUP2 DUP5 PUSH2 0x1873 JUMP JUMPDEST SWAP1 POP SWAP4 SWAP3 POP POP POP JUMP JUMPDEST PUSH2 0x1ADC DUP2 PUSH2 0x1A48 JUMP JUMPDEST DUP3 MSTORE POP POP JUMP JUMPDEST PUSH1 0x0 PUSH1 0x20 DUP3 ADD SWAP1 POP PUSH2 0x1AF7 PUSH1 0x0 DUP4 ADD DUP5 PUSH2 0x1AD3 JUMP JUMPDEST SWAP3 SWAP2 POP POP JUMP JUMPDEST PUSH32 0x4E487B7100000000000000000000000000000000000000000000000000000000 PUSH1 0x0 MSTORE PUSH1 0x11 PUSH1 0x4 MSTORE PUSH1 0x24 PUSH1 0x0 REVERT JUMPDEST PUSH1 0x0 PUSH2 0x1B37 DUP3 PUSH2 0x1A48 JUMP JUMPDEST SWAP2 POP PUSH2 0x1B42 DUP4 PUSH2 0x1A48 JUMP JUMPDEST SWAP3 POP DUP3 DUP3 MUL PUSH2 0x1B50 DUP2 PUSH2 0x1A48 JUMP JUMPDEST SWAP2 POP DUP3 DUP3 DIV DUP5 EQ DUP4 ISZERO OR PUSH2 0x1B67 JUMPI PUSH2 0x1B66 PUSH2 0x1AFD JUMP JUMPDEST JUMPDEST POP SWAP3 SWAP2 POP POP JUMP JUMPDEST PUSH32 0x4E487B7100000000000000000000000000000000000000000000000000000000 PUSH1 0x0 MSTORE PUSH1 0x32 PUSH1 0x4 MSTORE PUSH1 0x24 PUSH1 0x0 REVERT JUMPDEST PUSH32 0x4E487B7100000000000000000000000000000000000000000000000000000000 PUSH1 0x0 MSTORE PUSH1 0x12 PUSH1 0x4 MSTORE PUSH1 0x24 PUSH1 0x0 REVERT JUMPDEST PUSH1 0x0 PUSH2 0x1BD7 DUP3 PUSH2 0x1A48 JUMP JUMPDEST SWAP2 POP PUSH2 0x1BE2 DUP4 PUSH2 0x1A48 JUMP JUMPDEST SWAP3 POP DUP3 PUSH2 0x1BF2 JUMPI PUSH2 0x1BF1 PUSH2 0x1B9D JUMP JUMPDEST JUMPDEST DUP3 DUP3 DIV SWAP1 POP SWAP3 SWAP2 POP POP JUMP JUMPDEST PUSH1 0x0 PUSH2 0x1C08 DUP3 PUSH2 0x1A48 JUMP JUMPDEST SWAP2 POP PUSH2 0x1C13 DUP4 PUSH2 0x1A48 JUMP JUMPDEST SWAP3 POP DUP3 PUSH2 0x1C23 JUMPI PUSH2 0x1C22 PUSH2 0x1B9D JUMP JUMPDEST JUMPDEST DUP3 DUP3 MOD SWAP1 POP SWAP3 SWAP2 POP POP JUMP JUMPDEST PUSH1 0x0 PUSH2 0x1C39 DUP3 PUSH2 0x1A48 JUMP JUMPDEST SWAP2 POP PUSH2 0x1C44 DUP4 PUSH2 0x1A48 JUMP JUMPDEST SWAP3 POP DUP3 DUP3 ADD SWAP1 POP DUP1 DUP3 GT ISZERO PUSH2 0x1C5C JUMPI PUSH2 0x1C5B PUSH2 0x1AFD JUMP JUMPDEST JUMPDEST SWAP3 SWAP2 POP POP JUMP JUMPDEST PUSH1 0x0 PUSH2 0x1C6D DUP3 PUSH2 0x1A48 JUMP JUMPDEST SWAP2 POP PUSH32 0xFFFFFFFFFFFFFFFFFFFFFFFFFFFFFFFFFFFFFFFFFFFFFFFFFFFFFFFFFFFFFFFF DUP3 SUB PUSH2 0x1C9F JUMPI PUSH2 0x1C9E PUSH2 0x1AFD JUMP JUMPDEST JUMPDEST PUSH1 0x1 DUP3 ADD SWAP1 POP SWAP2 SWAP1 POP JUMP JUMPDEST PUSH1 0x0 DUP2 SWAP1 POP SWAP3 SWAP2 POP POP JUMP JUMPDEST PUSH32 0x3078000000000000000000000000000000000000000000000000000000000000 PUSH1 0x0 DUP3 ADD MSTORE POP JUMP JUMPDEST PUSH1 0x0 PUSH2 0x1CEB PUSH1 0x2 DUP4 PUSH2 0x1CAA JUMP JUMPDEST SWAP2 POP PUSH2 0x1CF6 DUP3 PUSH2 0x1CB5 JUMP JUMPDEST PUSH1 0x2 DUP3 ADD SWAP1 POP SWAP2 SWAP1 POP JUMP JUMPDEST PUSH1 0x0 DUP2 MLOAD SWAP1 POP SWAP2 SWAP1 POP JUMP JUMPDEST PUSH1 0x0 DUP2 SWAP1 POP SWAP3 SWAP2 POP POP JUMP JUMPDEST PUSH1 0x0 PUSH2 0x1D22 DUP3 PUSH2 0x1D01 JUMP JUMPDEST PUSH2 0x1D2C DUP2 DUP6 PUSH2 0x1D0C JUMP JUMPDEST SWAP4 POP PUSH2 0x1D3C DUP2 DUP6 PUSH1 0x20 DUP7 ADD PUSH2 0x1849 JUMP JUMPDEST DUP1 DUP5 ADD SWAP2 POP POP SWAP3 SWAP2 POP POP JUMP JUMPDEST PUSH1 0x0 PUSH2 0x1D53 DUP3 PUSH2 0x1CDE JUMP JUMPDEST SWAP2 POP PUSH2 0x1D5F DUP3 DUP5 PUSH2 0x1D17 JUMP JUMPDEST SWAP2 POP DUP2 SWAP1 POP SWAP3 SWAP2 POP POP JUMP JUMPDEST PUSH32 0x5361666520616C72656164792065786973747320666F72206F776E6572000000 PUSH1 0x0 DUP3 ADD MSTORE POP JUMP JUMPDEST PUSH1 0x0 PUSH2 0x1DA0 PUSH1 0x1D DUP4 PUSH2 0x1838 JUMP JUMPDEST SWAP2 POP PUSH2 0x1DAB DUP3 PUSH2 0x1D6A JUMP JUMPDEST PUSH1 0x20 DUP3 ADD SWAP1 POP SWAP2 SWAP1 POP JUMP JUMPDEST PUSH1 0x0 PUSH1 0x20 DUP3 ADD SWAP1 POP DUP2 DUP2 SUB PUSH1 0x0 DUP4 ADD MSTORE PUSH2 0x1DCF DUP2 PUSH2 0x1D93 JUMP JUMPDEST SWAP1 POP SWAP2 SWAP1 POP JUMP JUMPDEST PUSH1 0x0 DUP2 MLOAD SWAP1 POP SWAP2 SWAP1 POP JUMP JUMPDEST PUSH1 0x0 DUP3 DUP3 MSTORE PUSH1 0x20 DUP3 ADD SWAP1 POP SWAP3 SWAP2 POP POP JUMP JUMPDEST PUSH1 0x0 DUP2 SWAP1 POP PUSH1 0x20 DUP3 ADD SWAP1 POP SWAP2 SWAP1 POP JUMP JUMPDEST PUSH1 0x0 PUSH2 0x1E0E DUP4 DUP4 PUSH2 0x1A39 JUMP JUMPDEST PUSH1 0x20 DUP4 ADD SWAP1 POP SWAP3 SWAP2 POP POP JUMP JUMPDEST PUSH1 0x0 PUSH1 0x20 DUP3 ADD SWAP1 POP SWAP2 SWAP1 POP JUMP JUMPDEST PUSH1 0x0 PUSH2 0x1E32 DUP3 PUSH2 0x1DD6 JUMP JUMPDEST PUSH2 0x1E3C DUP2 DUP6 PUSH2 0x1DE1 JUMP JUMPDEST SWAP4 POP PUSH2 0x1E47 DUP4 PUSH2 0x1DF2 JUMP JUMPDEST DUP1 PUSH1 0x0 JUMPDEST DUP4 DUP2 LT ISZERO PUSH2 0x1E78 JUMPI DUP2 MLOAD PUSH2 0x1E5F DUP9 DUP3 PUSH2 0x1E02 JUMP JUMPDEST SWAP8 POP PUSH2 0x1E6A DUP4 PUSH2 0x1E1A JUMP JUMPDEST SWAP3 POP POP PUSH1 0x1 DUP2 ADD SWAP1 POP PUSH2 0x1E4B JUMP JUMPDEST POP DUP6 SWAP4 POP POP POP POP SWAP3 SWAP2 POP POP JUMP JUMPDEST PUSH1 0x0 DUP3 DUP3 MSTORE PUSH1 0x20 DUP3 ADD SWAP1 POP SWAP3 SWAP2 POP POP JUMP JUMPDEST PUSH1 0x0 PUSH2 0x1EA1 DUP3 PUSH2 0x1D01 JUMP JUMPDEST PUSH2 0x1EAB DUP2 DUP6 PUSH2 0x1E85 JUMP JUMPDEST SWAP4 POP PUSH2 0x1EBB DUP2 DUP6 PUSH1 0x20 DUP7 ADD PUSH2 0x1849 JUMP JUMPDEST PUSH2 0x1EC4 DUP2 PUSH2 0x16A8 JUMP JUMPDEST DUP5 ADD SWAP2 POP POP SWAP3 SWAP2 POP POP JUMP JUMPDEST PUSH1 0x0 PUSH2 0x100 DUP3 ADD SWAP1 POP DUP2 DUP2 SUB PUSH1 0x0 DUP4 ADD MSTORE PUSH2 0x1EEA DUP2 DUP12 PUSH2 0x1E27 JUMP JUMPDEST SWAP1 POP PUSH2 0x1EF9 PUSH1 0x20 DUP4 ADD DUP11 PUSH2 0x1AD3 JUMP JUMPDEST PUSH2 0x1F06 PUSH1 0x40 DUP4 ADD DUP10 PUSH2 0x1674 JUMP JUMPDEST DUP2 DUP2 SUB PUSH1 0x60 DUP4 ADD MSTORE PUSH2 0x1F18 DUP2 DUP9 PUSH2 0x1E96 JUMP JUMPDEST SWAP1 POP PUSH2 0x1F27 PUSH1 0x80 DUP4 ADD DUP8 PUSH2 0x1674 JUMP JUMPDEST PUSH2 0x1F34 PUSH1 0xA0 DUP4 ADD DUP7 PUSH2 0x1674 JUMP JUMPDEST PUSH2 0x1F41 PUSH1 0xC0 DUP4 ADD DUP6 PUSH2 0x1AD3 JUMP JUMPDEST PUSH2 0x1F4E PUSH1 0xE0 DUP4 ADD DUP5 PUSH2 0x1674 JUMP JUMPDEST SWAP10 SWAP9 POP POP POP POP POP POP POP POP POP JUMP JUMPDEST PUSH1 0x0 PUSH1 0x60 DUP3 ADD SWAP1 POP PUSH2 0x1F70 PUSH1 0x0 DUP4 ADD DUP7 PUSH2 0x1674 JUMP JUMPDEST DUP2 DUP2 SUB PUSH1 0x20 DUP4 ADD MSTORE PUSH2 0x1F82 DUP2 DUP6 PUSH2 0x1E96 JUMP JUMPDEST SWAP1 POP PUSH2 0x1F91 PUSH1 0x40 DUP4 ADD DUP5 PUSH2 0x1AD3 JUMP JUMPDEST SWAP5 SWAP4 POP POP POP POP JUMP JUMPDEST PUSH1 0x0 DUP2 MLOAD SWAP1 POP PUSH2 0x1FA8 DUP2 PUSH2 0x161B JUMP JUMPDEST SWAP3 SWAP2 POP POP JUMP JUMPDEST PUSH1 0x0 PUSH1 0x20 DUP3 DUP5 SUB SLT ISZERO PUSH2 0x1FC4 JUMPI PUSH2 0x1FC3 PUSH2 0x15DF JUMP JUMPDEST JUMPDEST PUSH1 0x0 PUSH2 0x1FD2 DUP5 DUP3 DUP6 ADD PUSH2 0x1F99 JUMP JUMPDEST SWAP2 POP POP SWAP3 SWAP2 POP POP JUMP JUMPDEST PUSH1 0x0 PUSH2 0x1FEA PUSH1 0x20 DUP5 ADD DUP5 PUSH2 0x1632 JUMP JUMPDEST SWAP1 POP SWAP3 SWAP2 POP POP JUMP JUMPDEST PUSH2 0x1FFB DUP2 PUSH2 0x1A48 JUMP JUMPDEST DUP2 EQ PUSH2 0x2006 JUMPI PUSH1 0x0 DUP1 REVERT JUMPDEST POP JUMP JUMPDEST PUSH1 0x0 DUP2 CALLDATALOAD SWAP1 POP PUSH2 0x2018 DUP2 PUSH2 0x1FF2 JUMP JUMPDEST SWAP3 SWAP2 POP POP JUMP JUMPDEST PUSH1 0x0 PUSH2 0x202D PUSH1 0x20 DUP5 ADD DUP5 PUSH2 0x2009 JUMP JUMPDEST SWAP1 POP SWAP3 SWAP2 POP POP JUMP JUMPDEST PUSH1 0x60 DUP3 ADD PUSH2 0x2046 PUSH1 0x0 DUP4 ADD DUP4 PUSH2 0x1FDB JUMP JUMPDEST PUSH2 0x2053 PUSH1 0x0 DUP6 ADD DUP3 PUSH2 0x1A39 JUMP JUMPDEST POP PUSH2 0x2061 PUSH1 0x20 DUP4 ADD DUP4 PUSH2 0x1FDB JUMP JUMPDEST PUSH2 0x206E PUSH1 0x20 DUP6 ADD DUP3 PUSH2 0x1A39 JUMP JUMPDEST POP PUSH2 0x207C PUSH1 0x40 DUP4 ADD DUP4 PUSH2 0x201E JUMP JUMPDEST PUSH2 0x2089 PUSH1 0x40 DUP6 ADD DUP3 PUSH2 0x1A52 JUMP JUMPDEST POP POP POP POP JUMP JUMPDEST PUSH1 0x0 PUSH2 0x209B DUP4 DUP6 PUSH2 0x1E85 JUMP JUMPDEST SWAP4 POP PUSH2 0x20A8 DUP4 DUP6 DUP5 PUSH2 0x1765 JUMP JUMPDEST PUSH2 0x20B1 DUP4 PUSH2 0x16A8 JUMP JUMPDEST DUP5 ADD SWAP1 POP SWAP4 SWAP3 POP POP POP JUMP JUMPDEST PUSH1 0x0 PUSH1 0xA0 DUP3 ADD SWAP1 POP PUSH2 0x20D1 PUSH1 0x0 DUP4 ADD DUP8 PUSH2 0x1674 JUMP JUMPDEST PUSH2 0x20DE PUSH1 0x20 DUP4 ADD DUP7 PUSH2 0x2035 JUMP JUMPDEST DUP2 DUP2 SUB PUSH1 0x80 DUP4 ADD MSTORE PUSH2 0x20F1 DUP2 DUP5 DUP7 PUSH2 0x208F JUMP JUMPDEST SWAP1 POP SWAP6 SWAP5 POP POP POP POP POP JUMP JUMPDEST PUSH1 0x0 PUSH2 0x2108 DUP4 DUP6 PUSH2 0x1D0C JUMP JUMPDEST SWAP4 POP PUSH2 0x2115 DUP4 DUP6 DUP5 PUSH2 0x1765 JUMP JUMPDEST DUP3 DUP5 ADD SWAP1 POP SWAP4 SWAP3 POP POP POP JUMP JUMPDEST PUSH1 0x0 PUSH2 0x212E DUP3 DUP5 DUP7 PUSH2 0x20FC JUMP JUMPDEST SWAP2 POP DUP2 SWAP1 POP SWAP4 SWAP3 POP POP POP JUMP JUMPDEST PUSH32 0x4669727374207472616E73616374696F6E206661696C65640000000000000000 PUSH1 0x0 DUP3 ADD MSTORE POP JUMP JUMPDEST PUSH1 0x0 PUSH2 0x2170 PUSH1 0x18 DUP4 PUSH2 0x1838 JUMP JUMPDEST SWAP2 POP PUSH2 0x217B DUP3 PUSH2 0x213A JUMP JUMPDEST PUSH1 0x20 DUP3 ADD SWAP1 POP SWAP2 SWAP1 POP JUMP JUMPDEST PUSH1 0x0 PUSH1 0x20 DUP3 ADD SWAP1 POP DUP2 DUP2 SUB PUSH1 0x0 DUP4 ADD MSTORE PUSH2 0x219F DUP2 PUSH2 0x2163 JUMP JUMPDEST SWAP1 POP SWAP2 SWAP1 POP JUMP JUMPDEST PUSH32 0x4E487B7100000000000000000000000000000000000000000000000000000000 PUSH1 0x0 MSTORE PUSH1 0x22 PUSH1 0x4 MSTORE PUSH1 0x24 PUSH1 0x0 REVERT JUMPDEST PUSH1 0x0 PUSH1 0x2 DUP3 DIV SWAP1 POP PUSH1 0x1 DUP3 AND DUP1 PUSH2 0x21ED JUMPI PUSH1 0x7F DUP3 AND SWAP2 POP JUMPDEST PUSH1 0x20 DUP3 LT DUP2 SUB PUSH2 0x2200 JUMPI PUSH2 0x21FF PUSH2 0x21A6 JUMP JUMPDEST JUMPDEST POP SWAP2 SWAP1 POP JUMP JUMPDEST PUSH1 0x0 PUSH2 0x2211 DUP3 PUSH2 0x1A48 JUMP JUMPDEST SWAP2 POP PUSH2 0x221C DUP4 PUSH2 0x1A48 JUMP JUMPDEST SWAP3 POP DUP3 DUP3 SUB SWAP1 POP DUP2 DUP2 GT ISZERO PUSH2 0x2234 JUMPI PUSH2 0x2233 PUSH2 0x1AFD JUMP JUMPDEST JUMPDEST SWAP3 SWAP2 POP POP JUMP JUMPDEST PUSH32 0x696E76616C6964207369676E6174757265000000000000000000000000000000 PUSH1 0x0 DUP3 ADD MSTORE POP JUMP JUMPDEST PUSH1 0x0 PUSH2 0x2270 PUSH1 0x11 DUP4 PUSH2 0x1838 JUMP JUMPDEST SWAP2 POP PUSH2 0x227B DUP3 PUSH2 0x223A JUMP JUMPDEST PUSH1 0x20 DUP3 ADD SWAP1 POP SWAP2 SWAP1 POP JUMP JUMPDEST PUSH1 0x0 PUSH1 0x20 DUP3 ADD SWAP1 POP DUP2 DUP2 SUB PUSH1 0x0 DUP4 ADD MSTORE PUSH2 0x229F DUP2 PUSH2 0x2263 JUMP JUMPDEST SWAP1 POP SWAP2 SWAP1 POP JUMP JUMPDEST PUSH32 0x5265717565737420697320746F6F206F6C640000000000000000000000000000 PUSH1 0x0 DUP3 ADD MSTORE POP JUMP JUMPDEST PUSH1 0x0 PUSH2 0x22DC PUSH1 0x12 DUP4 PUSH2 0x1838 JUMP JUMPDEST SWAP2 POP PUSH2 0x22E7 DUP3 PUSH2 0x22A6 JUMP JUMPDEST PUSH1 0x20 DUP3 ADD SWAP1 POP SWAP2 SWAP1 POP JUMP JUMPDEST PUSH1 0x0 PUSH1 0x20 DUP3 ADD SWAP1 POP DUP2 DUP2 SUB PUSH1 0x0 DUP4 ADD MSTORE PUSH2 0x230B DUP2 PUSH2 0x22CF JUMP JUMPDEST SWAP1 POP SWAP2 SWAP1 POP JUMP JUMPDEST PUSH1 0x0 DUP2 SWAP1 POP DUP2 PUSH1 0x0 MSTORE PUSH1 0x20 PUSH1 0x0 KECCAK256 SWAP1 POP SWAP2 SWAP1 POP JUMP JUMPDEST PUSH1 0x0 DUP2 SLOAD PUSH2 0x2334 DUP2 PUSH2 0x21D5 JUMP JUMPDEST PUSH2 0x233E DUP2 DUP7 PUSH2 0x1CAA JUMP JUMPDEST SWAP5 POP PUSH1 0x1 DUP3 AND PUSH1 0x0 DUP2 EQ PUSH2 0x2359 JUMPI PUSH1 0x1 DUP2 EQ PUSH2 0x236E JUMPI PUSH2 0x23A1 JUMP JUMPDEST PUSH1 0xFF NOT DUP4 AND DUP7 MSTORE DUP2 ISZERO ISZERO DUP3 MUL DUP7 ADD SWAP4 POP PUSH2 0x23A1 JUMP JUMPDEST PUSH2 0x2377 DUP6 PUSH2 0x2312 JUMP JUMPDEST PUSH1 0x0 JUMPDEST DUP4 DUP2 LT ISZERO PUSH2 0x2399 JUMPI DUP2 SLOAD DUP2 DUP10 ADD MSTORE PUSH1 0x1 DUP3 ADD SWAP2 POP PUSH1 0x20 DUP2 ADD SWAP1 POP PUSH2 0x237A JUMP JUMPDEST DUP4 DUP9 ADD SWAP6 POP POP POP JUMPDEST POP POP POP SWAP3 SWAP2 POP POP JUMP JUMPDEST PUSH32 0xA0A4D653A200000000000000000000000000000000000000000000000000000 PUSH1 0x0 DUP3 ADD MSTORE POP JUMP JUMPDEST PUSH1 0x0 PUSH2 0x23E0 PUSH1 0x6 DUP4 PUSH2 0x1CAA JUMP JUMPDEST SWAP2 POP PUSH2 0x23EB DUP3 PUSH2 0x23AA JUMP JUMPDEST PUSH1 0x6 DUP3 ADD SWAP1 POP SWAP2 SWAP1 POP JUMP JUMPDEST PUSH1 0x0 PUSH2 0x2401 DUP3 PUSH2 0x182D JUMP JUMPDEST PUSH2 0x240B DUP2 DUP6 PUSH2 0x1CAA JUMP JUMPDEST SWAP4 POP PUSH2 0x241B DUP2 DUP6 PUSH1 0x20 DUP7 ADD PUSH2 0x1849 JUMP JUMPDEST DUP1 DUP5 ADD SWAP2 POP POP SWAP3 SWAP2 POP POP JUMP JUMPDEST PUSH32 0xA4465766963653A200000000000000000000000000000000000000000000000 PUSH1 0x0 DUP3 ADD MSTORE POP JUMP JUMPDEST PUSH1 0x0 PUSH2 0x245D PUSH1 0x9 DUP4 PUSH2 0x1CAA JUMP JUMPDEST SWAP2 POP PUSH2 0x2468 DUP3 PUSH2 0x2427 JUMP JUMPDEST PUSH1 0x9 DUP3 ADD SWAP1 POP SWAP2 SWAP1 POP JUMP JUMPDEST PUSH32 0xA4973737565642061743A200000000000000000000000000000000000000000 PUSH1 0x0 DUP3 ADD MSTORE POP JUMP JUMPDEST PUSH1 0x0 PUSH2 0x24A9 PUSH1 0xC DUP4 PUSH2 0x1CAA JUMP JUMPDEST SWAP2 POP PUSH2 0x24B4 DUP3 PUSH2 0x2473 JUMP JUMPDEST PUSH1 0xC DUP3 ADD SWAP1 POP SWAP2 SWAP1 POP JUMP JUMPDEST PUSH1 0x0 PUSH2 0x24CB DUP3 DUP8 PUSH2 0x2327 JUMP JUMPDEST SWAP2 POP PUSH2 0x24D6 DUP3 PUSH2 0x23D3 JUMP JUMPDEST SWAP2 POP PUSH2 0x24E2 DUP3 DUP7 PUSH2 0x23F6 JUMP JUMPDEST SWAP2 POP PUSH2 0x24ED DUP3 PUSH2 0x2450 JUMP JUMPDEST SWAP2 POP PUSH2 0x24F9 DUP3 DUP6 PUSH2 0x23F6 JUMP JUMPDEST SWAP2 POP PUSH2 0x2504 DUP3 PUSH2 0x249C JUMP JUMPDEST SWAP2 POP PUSH2 0x2510 DUP3 DUP5 PUSH2 0x23F6 JUMP JUMPDEST SWAP2 POP DUP2 SWAP1 POP SWAP6 SWAP5 POP POP POP POP POP JUMP JUMPDEST PUSH1 0x0 DUP1 REVERT JUMPDEST PUSH1 0x0 PUSH1 0x60 DUP3 DUP5 SUB SLT ISZERO PUSH2 0x2539 JUMPI PUSH2 0x2538 PUSH2 0x251E JUMP JUMPDEST JUMPDEST PUSH2 0x2543 PUSH1 0x60 PUSH2 0x1719 JUMP JUMPDEST SWAP1 POP PUSH1 0x0 PUSH2 0x2553 DUP5 DUP3 DUP6 ADD PUSH2 0x1632 JUMP JUMPDEST PUSH1 0x0 DUP4 ADD MSTORE POP PUSH1 0x20 PUSH2 0x2567 DUP5 DUP3 DUP6 ADD PUSH2 0x1632 JUMP JUMPDEST PUSH1 0x20 DUP4 ADD MSTORE POP PUSH1 0x40 PUSH2 0x257B DUP5 DUP3 DUP6 ADD PUSH2 0x2009 JUMP JUMPDEST PUSH1 0x40 DUP4 ADD MSTORE POP SWAP3 SWAP2 POP POP JUMP JUMPDEST PUSH1 0x0 PUSH1 0x60 DUP3 DUP5 SUB SLT ISZERO PUSH2 0x259D JUMPI PUSH2 0x259C PUSH2 0x15DF JUMP JUMPDEST JUMPDEST PUSH1 0x0 PUSH2 0x25AB DUP5 DUP3 DUP6 ADD PUSH2 0x2523 JUMP JUMPDEST SWAP2 POP POP SWAP3 SWAP2 POP POP JUMP JUMPDEST PUSH32 0x19457468657265756D205369676E6564204D6573736167653A0A000000000000 PUSH1 0x0 DUP3 ADD MSTORE POP JUMP JUMPDEST PUSH1 0x0 PUSH2 0x25EA PUSH1 0x1A DUP4 PUSH2 0x1CAA JUMP JUMPDEST SWAP2 POP PUSH2 0x25F5 DUP3 PUSH2 0x25B4 JUMP JUMPDEST PUSH1 0x1A DUP3 ADD SWAP1 POP SWAP2 SWAP1 POP JUMP JUMPDEST PUSH1 0x0 PUSH2 0x260B DUP3 PUSH2 0x25DD JUMP JUMPDEST SWAP2 POP PUSH2 0x2617 DUP3 DUP6 PUSH2 0x23F6 JUMP JUMPDEST SWAP2 POP PUSH2 0x2623 DUP3 DUP5 PUSH2 0x1D17 JUMP JUMPDEST SWAP2 POP DUP2 SWAP1 POP SWAP4 SWAP3 POP POP POP JUMP JUMPDEST PUSH32 0x4E487B7100000000000000000000000000000000000000000000000000000000 PUSH1 0x0 MSTORE PUSH1 0x21 PUSH1 0x4 MSTORE PUSH1 0x24 PUSH1 0x0 REVERT JUMPDEST PUSH32 0x45434453413A20696E76616C6964207369676E61747572650000000000000000 PUSH1 0x0 DUP3 ADD MSTORE POP JUMP JUMPDEST PUSH1 0x0 PUSH2 0x2694 PUSH1 0x18 DUP4 PUSH2 0x1838 JUMP JUMPDEST SWAP2 POP PUSH2 0x269F DUP3 PUSH2 0x265E JUMP JUMPDEST PUSH1 0x20 DUP3 ADD SWAP1 POP SWAP2 SWAP1 POP JUMP JUMPDEST PUSH1 0x0 PUSH1 0x20 DUP3 ADD SWAP1 POP DUP2 DUP2 SUB PUSH1 0x0 DUP4 ADD MSTORE PUSH2 0x26C3 DUP2 PUSH2 0x2687 JUMP JUMPDEST SWAP1 POP SWAP2 SWAP1 POP JUMP JUMPDEST PUSH32 0x45434453413A20696E76616C6964207369676E6174757265206C656E67746800 PUSH1 0x0 DUP3 ADD MSTORE POP JUMP JUMPDEST PUSH1 0x0 PUSH2 0x2700 PUSH1 0x1F DUP4 PUSH2 0x1838 JUMP JUMPDEST SWAP2 POP PUSH2 0x270B DUP3 PUSH2 0x26CA JUMP JUMPDEST PUSH1 0x20 DUP3 ADD SWAP1 POP SWAP2 SWAP1 POP JUMP JUMPDEST PUSH1 0x0 PUSH1 0x20 DUP3 ADD SWAP1 POP DUP2 DUP2 SUB PUSH1 0x0 DUP4 ADD MSTORE PUSH2 0x272F DUP2 PUSH2 0x26F3 JUMP JUMPDEST SWAP1 POP SWAP2 SWAP1 POP JUMP JUMPDEST PUSH32 0x45434453413A20696E76616C6964207369676E6174757265202773272076616C PUSH1 0x0 DUP3 ADD MSTORE PUSH32 0x7565000000000000000000000000000000000000000000000000000000000000 PUSH1 0x20 DUP3 ADD MSTORE POP JUMP JUMPDEST PUSH1 0x0 PUSH2 0x2792 PUSH1 0x22 DUP4 PUSH2 0x1838 JUMP JUMPDEST SWAP2 POP PUSH2 0x279D DUP3 PUSH2 0x2736 JUMP JUMPDEST PUSH1 0x40 DUP3 ADD SWAP1 POP SWAP2 SWAP1 POP JUMP JUMPDEST PUSH1 0x0 PUSH1 0x20 DUP3 ADD SWAP1 POP DUP2 DUP2 SUB PUSH1 0x0 DUP4 ADD MSTORE PUSH2 0x27C1 DUP2 PUSH2 0x2785 JUMP JUMPDEST SWAP1 POP SWAP2 SWAP1 POP JUMP JUMPDEST PUSH1 0x0 PUSH2 0x27D3 DUP3 PUSH2 0x1A48 JUMP JUMPDEST SWAP2 POP PUSH1 0x0 DUP3 SUB PUSH2 0x27E6 JUMPI PUSH2 0x27E5 PUSH2 0x1AFD JUMP JUMPDEST JUMPDEST PUSH1 0x1 DUP3 SUB SWAP1 POP SWAP2 SWAP1 POP JUMP JUMPDEST PUSH32 0x537472696E67733A20686578206C656E67746820696E73756666696369656E74 PUSH1 0x0 DUP3 ADD MSTORE POP JUMP JUMPDEST PUSH1 0x0 PUSH2 0x2827 PUSH1 0x20 DUP4 PUSH2 0x1838 JUMP JUMPDEST SWAP2 POP PUSH2 0x2832 DUP3 PUSH2 0x27F1 JUMP JUMPDEST PUSH1 0x20 DUP3 ADD SWAP1 POP SWAP2 SWAP1 POP JUMP JUMPDEST PUSH1 0x0 PUSH1 0x20 DUP3 ADD SWAP1 POP DUP2 DUP2 SUB PUSH1 0x0 DUP4 ADD MSTORE PUSH2 0x2856 DUP2 PUSH2 0x281A JUMP JUMPDEST SWAP1 POP SWAP2 SWAP1 POP JUMP JUMPDEST PUSH1 0x0 DUP2 SWAP1 POP SWAP2 SWAP1 POP JUMP JUMPDEST PUSH2 0x2870 DUP2 PUSH2 0x285D JUMP JUMPDEST DUP3 MSTORE POP POP JUMP JUMPDEST PUSH1 0x0 PUSH1 0xFF DUP3 AND SWAP1 POP SWAP2 SWAP1 POP JUMP JUMPDEST PUSH2 0x288C DUP2 PUSH2 0x2876 JUMP JUMPDEST DUP3 MSTORE POP POP JUMP JUMPDEST PUSH1 0x0 PUSH1 0x80 DUP3 ADD SWAP1 POP PUSH2 0x28A7 PUSH1 0x0 DUP4 ADD DUP8 PUSH2 0x2867 JUMP JUMPDEST PUSH2 0x28B4 PUSH1 0x20 DUP4 ADD DUP7 PUSH2 0x2883 JUMP JUMPDEST PUSH2 0x28C1 PUSH1 0x40 DUP4 ADD DUP6 PUSH2 0x2867 JUMP JUMPDEST PUSH2 0x28CE PUSH1 0x60 DUP4 ADD DUP5 PUSH2 0x2867 JUMP JUMPDEST SWAP6 SWAP5 POP POP POP POP POP JUMP INVALID LOG2 PUSH5 0x6970667358 0x22 SLT KECCAK256 PUSH18 0x67CC10B3A91E5B789733762431F0EC1799C7 0xF7 0xC4 0xCF NOT 0xE0 DUP13 0xF6 0xB2 0x4A MULMOD PUSH9 0x253764736F6C634300 ADDMOD SGT STOP CALLER 0x49 KECCAK256 PUSH2 0x7574 PUSH9 0x6F72697A6520746869 PUSH20 0x2064657669636520746F2073656E64207472616E PUSH20 0x616374696F6E73206F6E206D7920626568616C66 0x2E "},"gasEstimates":{"creation":{"codeDepositCost":"2101800","executionCost":"infinite","totalCost":"infinite"},"external":{"CHAIN_ID()":"infinite","STATEMENT()":"infinite","createSafe((address,address,uint256),bytes,address,bytes)":"infinite","createTokenRequest(address,address)":"infinite","iToHex(bytes)":"infinite","lengthOfToken()":"2495","ownerToSafe(address)":"infinite","safeToOwner(address)":"infinite"}},"methodIdentifiers":{"CHAIN_ID()":"85e1f4d0","STATEMENT()":"bebc479c","createSafe((address,address,uint256),bytes,address,bytes)":"85442d5e","createTokenRequest(address,address)":"b6ad16a8","iToHex(bytes)":"671ff786","lengthOfToken()":"cb2e6043","ownerToSafe(address)":"5e619a4a","safeToOwner(address)":"06634e88"}},"storageLayout":{"storage":[{"astId":1407,"contract":"contracts/WalletDeployer.sol:WalletDeployer","label":"STATEMENT","offset":0,"slot":"0","type":"t_string_storage"},{"astId":1410,"contract":"contracts/WalletDeployer.sol:WalletDeployer","label":"lengthOfToken","offset":0,"slot":"1","type":"t_uint256"},{"astId":1611,"contract":"contracts/WalletDeployer.sol:WalletDeployer","label":"CHAIN_ID","offset":0,"slot":"2","type":"t_string_storage"},{"astId":1631,"contract":"contracts/WalletDeployer.sol:WalletDeployer","label":"ownerToSafe","offset":0,"slot":"3","type":"t_mapping(t_address,t_address)"},{"astId":1635,"contract":"contracts/WalletDeployer.sol:WalletDeployer","label":"safeToOwner","offset":0,"slot":"4","type":"t_mapping(t_address,t_address)"}],"types":{"t_address":{"encoding":"inplace","label":"address","numberOfBytes":"20"},"t_mapping(t_address,t_address)":{"encoding":"mapping","key":"t_address","label":"mapping(address => address)","numberOfBytes":"32","value":"t_address"},"t_string_storage":{"encoding":"bytes","label":"string","numberOfBytes":"32"},"t_uint256":{"encoding":"inplace","label":"uint256","numberOfBytes":"32"}}},"userdoc":{"kind":"user","methods":{},"version":1}}}}